:1000000000800010192A0000492A00004B2A000035
:100010004D2A00004F2A0000512A00000000000075
:10002000000000000000000000000000B92A0000ED
:10003000552A000000000000272B00005F2B000065
:100040005B2A00005B2A00005B2A00005B2A00009C
:100050005B2A00005B2A00005B2A00005B2A00008C
:100060005B2A00005B2A00005B2A00005B2A00007C
:100070005B2A00005B2A00005B2A00005B2A00006C
:100080005B2A00005B2A00005B2A00005B2A00005C
:100090005B2A00005B2A00005B2A00005B2A00004C
:1000A0005B2A00005B2A00005B2A00005B2A00003C
:1000B0005B2A00005B2A00005B2A00005B2A00002C
:1000C0005B2A00005B2A00005B2A000010B5054C8B
:1000D000237833B9044B13B10448AFF300800123F4
:1000E000237010BD301D00100000000088DC0000EF
:1000F00008B5064B1BB106480649AFF30080064819
:10010000036813B1054B03B1984708BD0000000018
:1001100088DC0000341D0010301D001000000000BD
:10012000154B002B08BF134B9D46A3F5803A0021C9
:100130008B460F461348144A121A05F000FF0F4B66
:10014000002B00D098470E4B002B00D09847002082
:10015000002104000D000D48002802D00C4805F0D5
:10016000EFFA05F053FE2000290000F0AFF805F08B
:100170007FF800BF000008000080001000000000B1
:10018000693A0000301D0010084C00104157000073
:10019000955B0000014B0360704700BF50B8000042
:1001A00010B5034B0446036005F0B6FA204610BDB7
:1001B00050B80000074B10B503F1180203604C3330
:1001C00004468264C364483004F02EFF024B20468C
:1001D000236010BDA0D7000050B80000A0F14C0073
:1001E000FFF7E8BFA0F14800FFF7E4BF10B50446F1
:1001F000FFF7E0FF204605F08FFA204610BDA0F182
:100200004C00F3E7A0F14800F0E790F8483010B553
:10021000044643B1002380F84830006803F048F9F1
:10022000606C05F06DFE204610BD0000024B012100
:10023000186803F0E5B900BF601D001038B5084C20
:1002400005464FF0FF31204603F02EFE2A460548B2
:10025000054904F03BFF2046BDE8384003F031BEBD
:100260004C1D0010F81D001058B8000038B5084C9F
:1002700005464FF0FF31204603F016FEAA680548F8
:10028000054904F023FF2046BDE8384003F019BEBD
:100290004C1D0010F81D001058B8000038B5084C6F
:1002A00005464FF0FF31204603F0FEFDAA680548E1
:1002B000054904F00BFF2046BDE8384003F001BEBD
:1002C0004C1D0010F81D00105DB8000013B5164954
:1002D000164804F0FBFE16484FF47A7100F016F948
:1002E000144B5A695B6812681A420ED101A800F0DB
:1002F0001BFE114C636863B10123201DE16C84F87F
:10030000483003F0ABF8206003E001A800F056FC91
:10031000EFE70A4900220A4804F026FE044800F0EC
:1003200089FB002002B010BD6EB80000F81D00105F
:10033000C01E0010101E0010601D00102D020000D5
:10034000B01D00107FB51E4D00231E4C28461E49CF
:100350001E4A04F0BFFD28461D4D22461D4905F0EA
:10036000DFF9284603F088FD224628461A4905F0A1
:10037000D7F91A4B1A4E0093243301930025013309
:1003800002930395263B30461649174A01F0D8FFE1
:100390003046164E2246164905F0C2F92946182263
:1003A000304605F0CCFD3046124904F079FF124882
:1003B0001249224604B0BDE8704005F0B1B900BF53
:1003C000B01D0010C800001002C0092003C00920A1
:1003D0004C1D0010B5010000C93E00001AC00920E4
:1003E000281E001017C0092018C00920101E001078
:1003F0000104000040C00920601D00100B02000035
:1004000010B5064B0446036034334360483004F0B3
:1004100051FC204604F008FE204610BD20D200000A
:10042000A0F10400FFF7ECBF10B50446FFF7E8FFAA
:10043000204605F071F9204610BDA0F10400F3E755
:10044000024BDA6E0132DA66704700BFC01E001040
:1004500010B5054B0446036004F060FE204604F02E
:10046000A3FE204610BD00BF50D8000010B50446C2
:10047000FFF7EEFF204605F04FF9204610BD0000C3
:1004800010B5034B0446036004F08EFE204610BDF9
:10049000C0B8000010B50446FFF7F2FF204605F093
:1004A0003BF9204610BD10B504462830FFF7D0FFB9
:1004B000201D03F009FD204610BD037F042B02D050
:1004C000052B02D07047436B00E0036B826A1A6011
:1004D0007047000010B50446043003F0CDFC04F171
:1004E000180004F039FE04F1280004F077FE064BF2
:1004F00004F14800A362002104F0CAFC0023236039
:10050000E366204610BD00BF50D8000081667047EA
:10051000074A03681268934202DB064804F096BE5D
:10052000054A126842F8231001330360704700BF88
:1005300004160010D0B80000180C0010F8B50B68B5
:1005400001229B6807460D4683F8B02000262B68E1
:10055000B4019B6808341C44A369013326D0237F6F
:10056000013B042B22D8DFE803F00305101416002A
:10057000236B0BE0E26BA36AC2F10102E2630AB1F2
:10058000226B00E0626B136010E0636BA26A1A607A
:100590000CE0236B00E0636BA26A1A6004F064FB5A
:1005A000226A00230244204604F02CFE0136022E6B
:1005B000CDD16B680BB128469847786A0121BDE818
:1005C000F84003F01DB8000002680346926892F8F4
:1005D0008820012A02D0022A02D07047012900E0B7
:1005E000022903D102481946FFF7A8BF704700BF90
:1005F000C01E00104A608B6070472DE9F0420F4624
:100600001646994600253A68AC01936808341C44A4
:10061000A269531C01D0B24209D104F12400314631
:1006200004F050FE069B84F81C902362A6610135FD
:10063000022DE8D1BDE8F082F8B51F460B680C46E4
:100640009868164690F888309DF8185013B18C3091
:1006500003F05CFD23683146986880F88850983034
:1006600004F01EFE2368314698680F4A23468C30FA
:1006700003F014FD236839469868983003F05CFC59
:10068000012D01D0022D0DD1236829469868012241
:100690008C3003F043FD23689868BDE8F8408C3047
:1006A00003F0A8BDF8BD00BFC90500004A60CB60DB
:1006B00070470000084B1A68043A52F8043F4BB1E7
:1006C0001B689B6893F8B01083F8B110002183F881
:1006D000B010F2E7704700BF1418001070B506465E
:1006E000002433689C4214DA0A4D4FF0FF312B6826
:1006F00053F824305868503003F0D6FB2B680022A2
:1007000053F8243001345A755868503003F0D9FB3F
:10071000E7E770BD180C00102DE9FF4780460F4633
:100720003C4600252E46D8F800309D4239DADFF8E5
:10073000E4904FEA850AD9F8003053F82530DA689A
:1007400032B3042C05D01268127A042A01D1042491
:10075000E7E75868503003F0AAFBC0B1D9F8003081
:1007600053F80A30DA681268127A144206D0DA684E
:100770001268127A012A0DD15A7D5AB1D9F8003087
:1007800053F80A305868503003F09BFB00E0012614
:100790000135C8E75B680121186802F031FF0126C6
:1007A000ECE716B9A742BBD131E001A801214FF017
:1007B000FF3202F041FF00252E46D8F800309D425E
:1007C00021DADFF85090D9F8003053F82530586816
:1007D000503003F06CFB98B1D9F8003053F8253055
:1007E000DA6842B1DA681268127A042A03D11A7DF3
:1007F000002A18BF01265868503003F062FB00E061
:1008000001260135D9E7002E8BD1042C9FD004B0EE
:10081000BDE8F087180C001038B5136815469A68C3
:1008200004463AB11268926892F8B01011B992F881
:10083000B10088B11B6973B104344FF0FF31204619
:1008400003F032FB2B681B6998470546204603F0EE
:1008500038FB284638BD012038BDF8B5CB680746BF
:100860001B680D465C680CB90020F8BD264654F89C
:10087000042B002AF8D038462946FFF7CDFF002880
:10088000F4D03068F8BD08B55368CA600BB11046A3
:10089000984708BD08B50023CB6093680BB110469C
:1008A000984708BDF8B5CB6814461B6806461B7A06
:1008B0000D46012B08BF4B7501230B75CA68FFF766
:1008C000E9FF63680BB12046984723685B695BB119
:1008D000371D4FF0FF31384603F0E6FA23685B69B5
:1008E0009847384603F0EDFA23689A682AB11168F0
:1008F0004A7912B9896881F8B020D96811B13046B7
:10090000FFF71CFEA3680BB12046984723683046CA
:1009100029465A68BDE8F840FFF7B5BFF0B58F68C3
:1009200005460E68486885B00C4650304FF0FF31E0
:1009300003F0BAFA73680BB130469847214628464F
:100940007A680126FFF79FFFA6756068503003F0B4
:10095000B8FA686A314602F053FE0223A37501A873
:1009600001214FF0FF3202F067FE0123A37560689A
:100970004FF0FF31503003F097FA28462146FFF739
:100980006CFF024648B128462146FFF78BFFE3681B
:100990001B681B7A042BF0D000E020756068503093
:1009A00003F08FFA686A0121D5E70000014608B517
:1009B0000148FFF7B3FF00BFC01E001010B518308C
:1009C0000C4604F0DFFBA042BBBF6FF00043C0EB5E
:1009D0000303C4EB0000181910BD7FB5044618309E
:1009E00004F0D0FB06462046FFF764FE2046FFF7E2
:1009F00075FE20460421FFF78FFE20463146FFF7A3
:100A0000DDFFA36E05469D4220460DDA0321FFF768
:100A100083FEA26E4FF47A73521B01A8012192FB50
:100A2000F3F202F009FEE8E7022104B0BDE87040ED
:100A3000FFF772BEF8B5064602F02EFDB46E1549FA
:100A40007062E51706F1480006F1280704F026FA5F
:100A50002B463846224604F06DFB06F1180004F0E0
:100A600087FB002533689D4210DA0B4B1B6853F857
:100A700025305C6863683BB1012384F84830201D51
:100A8000E16C02F0EBFC20600135EBE73046FFF74C
:100A9000A4FFFBE741040000180C001010B5054C42
:100AA0002046FFF717FD20460349044ABDE81040E1
:100AB00004F036BEC01E0010A7040000C8000010DD
:100AC00001460148FFF724BDC01E00101FB501A854
:100AD00001214FF0FF3202F0AFFD2A4804F040FA46
:100AE0000028F4D0284804F0E7FA00F0DF004F288F
:100AF00024D009DC41281BD04D28EED12348FFF734
:100B00009DFB2348234910E0542809D0562812D0D1
:100B10005228E2D12048FFF791FB1D481F4904E00D
:100B20001F48FFF78BFB1A481E49FFF707FDD4E764
:100B300017481D49F9E716481C49F6E700241248F2
:100B400004F0BAFAC0B2A0F13003092B04D80A238A
:100B500003FB0404303CF2E70D2801D00A28BCD185
:100B6000134B4FF0FF311348C3F8904003F09CF94A
:100B700011492246044804F0A9FA0E4803F0A1F9ED
:100B8000ABE700BFB01D0010F81D0010FCB800005E
:100B9000C01E0010F00C0010E6B80000600F00103E
:100BA000F2B8000038030010201000107C0F001075
:100BB0001C3000104C1D001008B900002DE9F3474F
:100BC000464C474D474F484E81464848FFF736FB55
:100BD000DFF87CA1204639462A46454BFFF70AFD3F
:100BE000204631462A46434BFFF704FDDFF8648177
:100BF000204651462A46404BFFF7FCFC2A463F4D13
:100C0000204641463E4BFFF7F5FC0095204639460D
:100C10003C4A0423FFF7F1FC0095204631463A4A4E
:100C20000423FFF7EAFC009520465146374A042387
:100C3000FFF7E3FC00952046414649F64045344A1B
:100C40000423FFF7DAFC009520465146314A04237D
:100C5000FFF7D3FC00952046414601252E4A042388
:100C6000FFF7CBFC0095204639462C4A0323FFF7BB
:100C7000E3FC31462A4A032300952046FFF7DCFCBB
:100C80002848FFF71DFF2848FFF71AFF2748FFF7FE
:100C900017FF2748FFF714FF2648FFF711FF2648E4
:100CA000FFF70EFF2548FFF70BFF2548FFF708FF6A
:100CB0002448FFF705FF244C244B00254FF4006027
:100CC00063602581E06005F013F984F848502061E5
:100CD000C4F84C9002B0BDE8F08700BFC01E001001
:100CE0009D020000140D0010681800102CB90000BF
:100CF00046B900004CB9000052B9000090D0030082
:100D00005AB9000032C0092034C0092035C009207A
:100D100037C0092012C0092011C009200FC00920C6
:100D200010C0092028020010D40B00101C0800106D
:100D300048010010FC140010600900105808001051
:100D40001416001064130010601D0010CD0A00007E
:100D50002C1200101811001038B5084B084CD3F8AD
:100D6000AC50002120460A4601F0A5FA20462A464A
:100D70000449BDE8384004F0A9B900BF1C30001098
:100D8000281E001062B9000038B5074C0546002146
:100D90002046012201F08FFA2046AA680349BDE8E7
:100DA000384004F093B900BF281E00106CB9000051
:100DB00001460148FFF7ACBBC01E001030B5054628
:100DC0000C461346294622460248BDE83040FFF74C
:100DD00011BC00BFC01E00101FB501A801214FF0BB
:100DE000FF3202F029FC404804F0BAF80028F4D0A1
:100DF0003E4804F061F900F0DF0041381528F2D8D0
:100E000001A353F820F000BF950E0000E70D00008D
:100E1000E70D0000E70D00007D0E0000E70D00006B
:100E2000E70D0000E70D0000E70D0000E70D0000F2
:100E3000E70D0000E70D0000890E0000610E0000C4
:100E4000A10E0000E70D0000E70D0000E70D000017
:100E50006D0E0000E70D0000E70D00009B0E000086
:100E60002348FFF7EBF92348234904E02348FFF721
:100E7000E5F920482249FFF761FBB4E72148FFF775
:100E8000DDF91C482049F6E72048FFF7D7F9194853
:100E90001F49F0E717481F49EDE716481E49EAE7E2
:100EA0000024124804F008F9C0B2A0F13003092B65
:100EB00004D80A2303FB0404303CF2E70D2801D0D8
:100EC0000A2890D1154B4FF0FF311548C3F89040D8
:100ED00002F0EAFF13492246044804F0F7F81048EC
:100EE00002F0EFFF7FE700BFB01D0010F81D0010FB
:100EF0006FB90000C01E0010280A00107BB9000066
:100F00005407001086B9000028070010FCB8000044
:100F1000F00C0010F40A00109C1300101C3000109C
:100F20004C1D001008B900002DE9F04F614C85B050
:100F3000614F624E03906248FFF780F9DFF838B2E4
:100F4000384621465F4AFFF739FFDFF830A23046C6
:100F500021465D4AFFF732FFDFF8249258462146CA
:100F60005A4AFFF72BFF50462146594AFFF726FF02
:100F7000DFF8108248462146564AFFF71FFF2146F8
:100F8000554C4046554AFFF719FF21465448554AEB
:100F9000FFF714FF21465448544AFFF70FFF21463C
:100FA000534C5448544AFFF709FF21465348544ACA
:100FB000FFF704FF21465348534AFFF7FFFE21463F
:100FC0005248534AFFF7FAFE524D2146524C5348BD
:100FD000534AFFF7F3FE009520463946514A042351
:100FE000FFF70BFB0095204631464F4A0423FFF7DD
:100FF00004FB0095204659464C4A0423FFF7FDFAAE
:1010000000952046514649F64045494A0423FFF7DA
:10101000F4FA009520463946464A0423FFF7EDFAD4
:101020000095204631460125434A0423FFF7E5FA9F
:10103000009520464946414A0323FFF7FDFA0095F3
:10104000204641463E4A0323FFF7F6FA3D493E4A11
:1010500000232046FFF72AFB3C48FFF7A9FE3C4847
:10106000FFF7A6FE3B48FFF7A3FE3B48FFF7A0FEB5
:101070003A48FFF79DFE3A48FFF79AFE3948FFF7D6
:1010800097FE3948FFF794FE3848FFF791FE384C39
:10109000384B00254FF4006063602581E06004F068
:1010A00027FF039B206184F84850E36405B0BDE846
:1010B000F08F00BF9D020000140D00106818001092
:1010C00092B9000046B900004CB90000B0B9000068
:1010D000B7B9000052B90000890D00005AB90000EC
:1010E000CC0D0010BEB90000B80A0010C8B900004D
:1010F0006D020000080A0010D2B90000280A001092
:10110000DCB90000540700107BB90000280700106C
:1011100086B9000090D00300C01E0010F00C001033
:10112000FCB8000032C0092034C0092035C00920B5
:1011300037C009200AC009200BC0092004C00920BB
:1011400005C00920B8160010590D0000A8150010A0
:10115000F4190010C0080010200300101413001030
:10116000CC0E001078060010B01B001044040010D4
:10117000601D0010D90D0000B0170010D00600103F
:101180002C12001018110010014B0022DA66704773
:101190001C300010014B0022DA6670471C30001032
:1011A000014B0122DA6670471C300010014B00220F
:1011B000DA6670471C300010014B0222DA66704775
:1011C0001C300010034BD86ED0F1010038BF002056
:1011D000704700BF1C300010024BDA6E024B1A60E1
:1011E000704700BFC01E00101C300010024BD86EAC
:1011F000003018BF012070471C300010054B064915
:101200001A68C86EDB6D801A9842B4BF00200120B6
:10121000704700BF1C300010C01E0010024BDA6E79
:10122000024B1A60704700BFC01E00101C30001037
:10123000054B06491A68C86E1B6E801A9842CCBFCF
:1012400000200120704700BF1C300010C01E00109D
:10125000024BDA6E024B1A60704700BFC01E0010CE
:101260001C300010024BD86E003018BF01207047B0
:101270001C300010034BD86ED0F1010038BF0020A5
:10128000704700BF1C300010024BDA6E024B1A6030
:10129000704700BFC01E00101C300010054B0649EF
:1012A0001A68C86E5B6E801A9842B4BF0020012095
:1012B000704700BF1C300010C01E0010024BDA6ED9
:1012C000024B1A60704700BFC01E00101C30001097
:1012D000054B06491A68C86E9B6E801A9842CCBFAF
:1012E00000200120704700BF1C300010C01E0010FD
:1012F000024BDA6E024B1A60704700BFC01E00102E
:101300001C300010064B4EF66021D3F88820D3F82D
:101310009C0091FBF2F29042D4BF00200120704764
:101320001C3000100A4B4EF66021D3F88C00D3F825
:101330009C2091FBF0F0824208DBD3F8880091FBFF
:10134000F0F08242CCBF002001207047002070479F
:101350001C300010064B4EF66021D3F88C20D3F8D9
:101360009C0091FBF2F29042ACBF0020012070473C
:101370001C300010064B0749D3F89420C86ED3F8F0
:101380009030801A9842B4BF00200120704700BFFF
:101390001C300010C01E0010094B4EF66021D3F81F
:1013A00098205143D3F8902091FBF2F2C3F89C208F
:1013B0000022C3F89820034AD26EC3F894207047E5
:1013C0001C300010C01E0010034BD3F898200132CF
:1013D000C3F89820704700BF1C300010064B074927
:1013E000D3F89420C86ED3F89030801A9842CCBFBE
:1013F00000200120704700BF1C300010C01E0010EC
:10140000034B9A69C3F888205A69C3F88C20704747
:101410001C300010014B01221A6770471C3000106D
:10142000014B00221A6770471C300010034B1A69E9
:10143000C3F88820DA68C3F88C2070471C3000108D
:10144000034B1A6AC3F88820DA69C3F88C20704706
:101450001C300010054B06495A68C86ED3F8883016
:10146000801A9842B4BF0020012070471C30001041
:10147000C01E0010054B06499A68C86EDB6F801AC3
:101480009842B4BF00200120704700BF1C300010FC
:10149000C01E0010024BDA6E024B9A60704700BF0C
:1014A000C01E00101C300010024BDA6E024B5A6056
:1014B000704700BFC01E00101C300010054B0649CD
:1014C0005A68C86ED3F88830801A9842CCBF002082
:1014D000012070471C300010C01E0010054B06494B
:1014E0009A68C86EDB6F801A9842CCBF002001203A
:1014F000704700BF1C300010C01E0010064B07498B
:10150000D3F8A020C86ED3F88430801A9842B4BFB4
:1015100000200120704700BF1C300010C01E0010CA
:10152000024BDA6E024BC3F8A0207047C01E0010B9
:101530001C300010064B0749D3F8A020C86ED3F822
:101540008030801A9842B4BF00200120704700BF4D
:101550001C300010C01E0010024BDA6E024BC3F8A4
:10156000A0207047C01E00101C300010064B074919
:10157000D3F8A020C86ED3F88430801A9842CCBF2C
:1015800000200120704700BF1C300010C01E00105A
:10159000064B0749D3F8A020C86ED3F88030801AD4
:1015A0009842CCBF00200120704700BF1C300010C3
:1015B000C01E0010024B186F431E5842584170471E
:1015C0001C300010024B186F431E584258417047A0
:1015D0001C300010024B186F431E58425841704790
:1015E0001C300010024B186F431E58425841704780
:1015F0001C300010024B186F431E58425841704770
:101600001C300010034B186FD0F1010038BF0020D0
:10161000704700BF1C300010024BDA6E024B5A605C
:10162000704700BFC01E00101C300010064B074959
:101630005A68C86E801AD3F88C205B6FD31A984210
:10164000B4BF0020012070471C300010C01E0010E5
:10165000024BDA6E024B5A60704700BFC01E00108A
:101660001C300010054B06495A68C86ED3F88C3000
:10167000801A9842B4BF0020012070471C3000102F
:10168000C01E0010064B07495A68C86E801A5A6F70
:101690009B6F13449842B4BF00200120704700BFE5
:1016A0001C300010C01E0010064B9A6F596B8A4206
:1016B00005DA986B02448A42A8BF0A4600E000227D
:1016C0009A6770471C300010064B07495A68C86E6D
:1016D000801AD3F88C205B6FD31A9842CCBF0020BD
:1016E000012070471C300010C01E0010054B064939
:1016F0005A68C86ED3F88C30801A9842CCBF00204C
:10170000012070471C300010C01E0010064B074916
:101710005A68C86E801A5A6F9B6F13449842CCBFA8
:1017200000200120704700BF1C300010C01E0010B8
:10173000064B4EF66021D3F88820D3F8AC0091FB1D
:10174000F2F29042D4BF0020012070471C300010FC
:101750000A4B4EF66021D3F88C00D3F8AC2091FBF5
:10176000F0F0824208DBD3F8880091FBF0F082426F
:10177000CCBF002001207047002070471C300010B3
:10178000064B4EF66021D3F88C20D3F8AC0091FBC9
:10179000F2F29042ACBF0020012070471C300010D4
:1017A000064B0749D3F8A420C86ED3F89030801AAE
:1017B0009842B4BF00200120704700BF1C300010C9
:1017C000C01E0010094B4EF66021D3F8A8205143EB
:1017D000D3F8902091FBF2F2C3F8AC200022C3F8BA
:1017E000A820034AD26EC3F8A42070471C30001012
:1017F000C01E0010034BD3F8A8200132C3F8A82064
:10180000704700BF1C300010064B0749D3F8A420D6
:10181000C86ED3F89030801A9842CCBF00200120C7
:10182000704700BF1C300010C01E0010054A064B58
:10183000D06ED3F8B030C01AB0F57A7FB4BF0020B4
:1018400001207047C01E00101C300010054A064BD6
:10185000D06ED3F8B030C01A2228D4BF00200120A7
:10186000704700BFC01E00101C300010024BDA6E23
:10187000024BC3F8B0207047C01E00101C3000108F
:10188000054A064BD06ED3F8B030C01AB0F57A7F57
:10189000CCBF002001207047C01E00101C3000107B
:1018A000054A064BD06ED3F8B030C01A2328CCBFFF
:1018B00000200120704700BFC01E00101C30001027
:1018C000054A064BD06ED3F8B430C01AB0F57A7F13
:1018D000B4BF002001207047C01E00101C30001053
:1018E000054A064BD06ED3F8B430C01A8628D4BF50
:1018F00000200120704700BFC01E00101C300010E7
:10190000024BDA6E024BC3F8B4207047C01E0010C1
:101910001C300010054A064BD06ED3F8B430C01A04
:10192000B0F57A7FCCBF002001207047C01E0010A8
:101930001C300010054A064BD06ED3F8B430C01AE4
:101940002328CCBF00200120704700BFC01E00101C
:101950001C300010054A064BD06ED3F8B830C01AC0
:10196000B0F5FA6FB4BF002001207047C01E001010
:101970001C300010054A064BD06ED3F8B830C01AA0
:10198000B0F5C87FB4BF002001207047C01E001012
:101990001C300010024BDA6E024BC3F8B8207047BF
:1019A000C01E00101C300010054A064BD06ED3F844
:1019B000B830C01AB0F57A7FCCBF00200120704744
:1019C000C01E00101C300010054A064BD06ED3F824
:1019D000B830C01A2328CCBF00200120704700BFB8
:1019E000C01E00101C300010024BDA6E024BC3F810
:1019F000BC207047C01E00101C300010024BDA6E75
:101A0000024BC3F8BC207047C01E00101C300010F1
:101A1000024BDA6E024BC3F8BC207047C01E0010A8
:101A20001C300010024BDA6E024BC3F8C020704726
:101A3000C01E00101C300010024BDA6E024BC3F8BF
:101A4000C0207047C01E00101C300010024BDA6E20
:101A5000024BC3F8C0207047C01E00101C3000109D
:101A6000024BDA6E024BC3F8C0207047C01E001054
:101A70001C300010024BDA6E024BC3F8C4207047D2
:101A8000C01E00101C300010024BDA6E024BC3F86F
:101A9000C4207047C01E00101C300010024BDA6ECC
:101AA000024BC3F8C4207047C01E00101C30001049
:101AB000024BDA6E024BC3F8C8207047C01E0010FC
:101AC0001C300010024BDA6E024BC3F8C82070477E
:101AD000C01E00101C300010024BDA6E024BC3F81F
:101AE000C8207047C01E00101C300010024BDA6E78
:101AF000024BC3F8C8207047C01E00101C300010F5
:101B0000024BDA6E024BC3F8C8207047C01E0010AB
:101B10001C300010024BDA6E024BC3F8C82070472D
:101B2000C01E00101C300010024BDA6E024BC3F8CE
:101B3000C8207047C01E00101C300010024BDA6E27
:101B4000024BC3F8C8207047C01E00101C300010A4
:101B5000024BDA6E024BC3F8C8207047C01E00105B
:101B60001C30001070B510F10806044609D000F1D1
:101B70008805B54205D055F8403D1B682846984772
:101B8000F7E7204670BD10B50446503002F09CF9CE
:101B900094F8483043B1002384F84830206801F0BD
:101BA00087FC606C04F0ACF9204610BDF8B5054622
:101BB00000F12C0400F1AC07A4F1240003F00EFBAB
:101BC000134B002644F8243C4FF0FF3344F80C3C00
:101BD00004F8086CA661204631461822403404F00F
:101BE000AEF9BC42E8D1314605F19800182204F064
:101BF000A6F905F18C0031460C2204F0A0F985F815
:101C0000886085F8B16085F8B0602846F8BD00BFEF
:101C1000C0B800000A4B70B500250446436005813A
:101C20004FF40060E0600E4604F062F984F848501A
:101C30002061E66404F1500002F01EF9204670BDF8
:101C4000AD0900002DE9F041AA4EAB4CAB4D30463A
:101C5000FFF7ACFF3046AA4E2946224603F060FD4E
:101C60003046FFF7A3FF3046A64E2946224603F032
:101C700057FD3046FFF79AFF3046A34E29462246CD
:101C800003F04EFD3046FFF791FF30469F4E294648
:101C9000224603F045FD3046FFF788FF30469C4E54
:101CA0002946224603F03CFD3046FFF77FFF3046D1
:101CB000984E2946224603F033FD3046FFF776FF63
:101CC0003046954E2946224603F02AFD3046FFF75E
:101CD0006DFF3046914E2946224603F021FD3046E5
:101CE000FFF764FF30468E4E2946224603F018FD6A
:101CF0003046FFF75BFF30468A4E2946224603F006
:101D00000FFD3046FFF752FF3046874E29462246E8
:101D100003F006FD3046FFF749FF3046834E294663
:101D2000224603F0FDFC3046FFF740FF3046804E70
:101D30002946224603F0F4FC3046FFF737FF3046D1
:101D40007C4E2946224603F0EBFC3046FFF72EFF7F
:101D50003046794E2946224603F0E2FC3046FFF732
:101D600025FF3046754E2946224603F0D9FC304601
:101D7000FFF71CFF3046724E2946224603F0D0FC86
:101D80003046FFF713FF30466E4E2946224603F0D9
:101D9000C7FC3046FFF70AFF30466B4E2946224605
:101DA00003F0BEFC3046FFF701FF3046674E294680
:101DB000224603F0B5FC3046FFF7F8FE3046644E8D
:101DC0002946224603F0ACFC3046FFF7EFFE3046D2
:101DD000604E2946224603F0A3FC3046FFF7E6FE9C
:101DE00030465D4E2946224603F09AFC3046FFF706
:101DF000DDFE29462246304603F092FC574B4FF455
:101E0000AB71DA6E564B3C271962996264211963F3
:101E10003221596305214FF4FA6099631F654FF42D
:101E2000FA714FF4967740F2DC5E4FF00A0C4FF4F3
:101E30007A764FF41675D86058624FF01E089620D7
:101E4000196499645F65D96542F21077596600217B
:101E5000C3F814E0C3F84CC01A601E615A609D615B
:101E60009A60DD61C3F82C80D86358649F651E6654
:101E70009E66D9661967C3F874809967D867C3F8F6
:101E800080C0C3F88CE0C3F89420C3F88400C3F882
:101E9000A020C3F88850C3F8A420C3F89070C3F8FA
:101EA000B020C3F89810C3F8B420C3F89C10C3F84E
:101EB000B820C3F8A810C3F8BC20C3F8AC10C3F80E
:101EC000C020C3F8CC10C3F8C420C3F8C820254AEA
:101ED000254B264E9A60264B264A274D30462749E9
:101EE0009A60FFF797FE3046254E2246294603F0BA
:101EF00017FC47E0E81F0010C8000010651B000039
:101F0000E0390010A0370010603B001008240010DA
:101F1000C02D0010301F0010C8320010182800100B
:101F20006821001088250010F030001050230010A8
:101F30002839001060270010F029001040260010FA
:101F400010320010102B001030360010E836001050
:101F5000803C00101035001038290010C01E001001
:101F60001C3000107C0F0010780E0010B82F0010ED
:101F7000281B001020100010871B000028020010F2
:101F80002425001030468F49FFF744FE30468E4E20
:101F90002246294603F0C4FB30468C49FFF73AFE3F
:101FA00030468B4E2246294603F0BAFB304689491B
:101FB000FFF730FE3046884E2246294603F0B0FB3C
:101FC00030468649FFF726FE3046854E2246294692
:101FD00003F0A6FB30468349FFF71CFE3046824ED5
:101FE0002246294603F09CFB30468049FFF712FE4B
:101FF00030467F4E2246294603F092FB30467D490B
:10200000FFF708FE30467C4E2246294603F088FB47
:1020100030467A49FFF7FEFD3046794E2246294682
:1020200003F07EFB30467749FFF7F4FD2946224650
:10203000304603F075FB744A744B754E9A60754BCD
:10204000754A304675499A60FFF7E4FD3046744E94
:102050002246294603F064FB30467249FFF7DAFD59
:102060003046714E2246294603F05AFB30466F49EE
:10207000FFF7D0FD30466E4E2246294603F050FB56
:1020800030466C49FFF7C6FD30466B4E2246294666
:1020900003F046FB30466949FFF7BCFD3046684E09
:1020A0002246294603F03CFB30466649FFF7B2FD65
:1020B0003046654E2246294603F032FB30466349DE
:1020C000FFF7A8FD3046624E2246294603F028FB62
:1020D00030466049FFF79EFD30465F4E2246294656
:1020E00003F01EFB30465D49FFF794FD30465C4E21
:1020F0002246294603F014FB30465A49FFF78AFD71
:102100003046594E2246294603F00AFB30465749CD
:10211000FFF780FD3046564E2246294603F000FB6D
:1021200030465449FFF776FD3046534E2246294645
:1021300003F0F6FA30465149FFF76CFD3046504E39
:102140002246294603F0ECFA30464E49FFF762FD7D
:1021500030464D4E2246294603F0E2FA30464B49BE
:10216000FFF758FD30464A4E2246294603F0D8FA7A
:1021700030464849FFF74EFD3046474E2246294635
:1021800003F0CEFA30464549FFF744FD3046444E51
:102190002246294603F0C4FA30464249FFF73AFD89
:1021A0003046414E2246294603F0BAFA30463F49AE
:1021B000FFF730FD304629462246BDE8F04103F0E6
:1021C000AFBA00BFD40B0010E82200101C080010AA
:1021D0004834001048010010A8310010FC14001011
:1021E000FC3A001060090010782E0010580800100A
:1021F000582D001014160010042100106413001054
:102200002C2C00101C1400109C130010BC0B001090
:10221000E4330010481B0010F40A0010A815001049
:10222000F8260010F419001080330010C0080010C8
:10223000C024001020030010A02000101413001070
:10224000F42C0010CC0E0010542F00107806001053
:10225000983A0010B01B00105C38001044040010C5
:10226000C0380010C410001084220010AC190010F7
:10227000902C001008120010A82A0010BC030010B7
:10228000183C001048090010D0280010180F00104A
:10229000C82B0010E8180010C83500106C0D001095
:1022A000AC340010F80D001020220010500B00106C
:1022B0004FF0FF307047C0F89010C0F8942070477E
:1022C000F8B5134D00F1480704460E46384609118B
:1022D00002F080FD284603F04BF9236C626B284620
:1022E0001A6003F045F9E36B626B31461A603846B9
:1022F00002F070FD284603F03BF9236C626B284620
:102300001A6003F035F9E36B626B1A60F8BD00BF29
:10231000ACC52738826AC3691360FFF7D1BF0000DC
:1023200010B501210446FFF7F5FF044803F020F93A
:102330000023C4F89030C4F8943010BD45F5D63A67
:102340002DE9F0410F468EB000210446984616460E
:1023500002F08EFE304804F1180520603430182257
:1023600060600021284603F0EAFD2846394604F162
:10237000300502F0A7FF18222846002103F0DFFDF8
:102380002846314602F09EFF169A414600924FF0D1
:10239000FF320192029203920492059206920792F2
:1023A000089209920A920B920C92159B149A04F1CE
:1023B000480002F09BFC9DF85C30626B84F88C3026
:1023C000E36B16481A60E269A36A03251A6003F0FA
:1023D000CFF820460321FFF773FF114803F0C8F838
:1023E000013DF6D120460221FFF76AFF0D4803F0B8
:1023F000BFF820462821FFF78DFF20460C21FFF76C
:1024000089FF20460621FFF785FF2046FFF788FF5A
:1024100020460EB0BDE8F08120D200008FC2753C8E
:1024200045F5D63AACC52738426AC3691360FFF751
:1024300047BF90F88C30012B10D0032B14D1032A06
:102440000CD8DFE802F00E02050801F1C000704769
:1024500001F19400704701F1D4007047282000FB7F
:10246000021101F180007047901C01EB8010704751
:1024700038B504461D46FFF7DCFF01462046FFF74E
:1024800049FF20462946BDE83840FFF7CDBF90F808
:102490008C30023B012B8CBF10201420704790F829
:1024A0008C30032B0CBF0420022070470A29F8B59A
:1024B00004460D4608D1D0F8947000260137C0F8C4
:1024C0009060C0F8947019E0D0F89010D0F8942083
:1024D0002B46FFF7CDFFD4F8906020460136C4F8B4
:1024E0009060FFF7D4FF86420EDBD4F8947000268C
:1024F0000137C4F89060C4F894702046FFF7CFFF0E
:102500008742A8BFC4F894602846F8BD0C4A30B48E
:10251000936894681A46B4F1805F0CD2094A03F1BB
:10252000C40553F8044BAB4242F8044FF9D1044BB5
:102530004FF080529A60103042F8201030BC704743
:1025400000ED00E0FCFFFF0F2B4A202370B4C2F81F
:10255000A031D2F8A031980645D4274B022100259E
:102560000124AA2055220B26C3F80411C3F8A85150
:102570001946C3F8AC51C3F80C41C3F88460C3F8E2
:102580008C00C3F88C20C3F88040C3F88C00C3F8DB
:102590008C20D1F88830184A5B01FAD50321AA2093
:1025A0005523C2F88010C2F88C001146C2F88C3056
:1025B000D1F88830104A13F0407FF9D00F4900233A
:1025C0000520C2F80801C2F8C410C2F8C831136867
:1025D00070BC23F4704323F03A0343F4405343F0B8
:1025E0003A0313607047D2F8A0315906B5D4D2F837
:1025F000A0315906F7D5B0E700C00F40DE872804A8
:1026000000B599B072B63B49684602F05BFE06A879
:10261000394902F057FE0CA8384902F053FE12A8BF
:10262000374902F04FFE32E00699039B019A0131CF
:102630001A6059D00C990A9B079A01311A604DD043
:102640001299109B0D9A01311A6041D0159B139A73
:1026500096201A6002F098FF009B013332D0069951
:10266000049B019A01311A6026D00C99099B079AA4
:1026700001311A601AD012990F9B0D9A01311A601C
:102680000ED0169B139A96201A6002F07DFF009BD5
:102690000133C9D11B481C49242202F0C1FDC3E704
:1026A00018481949242202F0BBFDEAE715481649EB
:1026B000242202F0B5FDDEE712481349242202F07D
:1026C000AFFDD2E70F481049242202F0A9FDC6E76A
:1026D0000C480D49242202F0A3FDB7E709480A4936
:1026E000242202F09DFDABE706480749242202F0B0
:1026F00097FD9FE732C0092034C0092035C009206A
:1027000037C0092060D2000078D20000036870B59D
:102710001B690021012204469847431C05460ED040
:10272000236820461B690021022298472368064639
:1027300029461B69204600229847304670BD70BD6F
:10274000084A094B10B4026003F58071002453F865
:10275000042B824208BF43F8044C8B42F7D15DF84A
:10276000044B704700D30000383D00100A4A0B4B61
:1027700010B503F5807104460260002053F8042B65
:10278000944208BF43F8040C8B42F7D1204602F074
:10279000C3FF204610BD00BF00D30000383D00102D
:1027A00002480349034A02F04DB900BFFC4B001038
:1027B00002C0092003C00920F0B50E4685B0354996
:1027C000054603F0A2FE20B9334B1B6863B105B088
:1027D000F0BD2846314903F098FE78B92E4B1B68AE
:1027E00043B1012005B0F0BD0190FFF7D9FF01987A
:1027F00005B0F0BDFFF7D4FF0120E8E728462849DF
:1028000003F083FE10B3274B002402E00134402C78
:1028100021D053F8040F0028F8D12B783A2B32D06E
:10282000294602A802F0DCFA02A802F02BFB90B1C4
:1028300002A802F00FFB88B102A802F015FB0346C4
:102840004BB1194AE01C42F82430C0E7124B1B6818
:10285000ABB10220BBE74FF0FF30B8E702A802F0AF
:10286000EDFA05460028F6D0036802A89F6802F03A
:10287000E3FA324601462846B8470346E0E7FFF749
:102880008FFF0220A3E72846084902AA03F0CEFDE5
:10289000029BD5E7E0D20000684A0010F0D20000A9
:1028A000E8D20000343D0010383D001028D300006D
:1028B000022808B50BDD084BC21E53F82200002188
:1028C00043F8221028B103685B68984708BD0020D0
:1028D00008BD4FF0FF3008BD383D0010022870B52C
:1028E0000C4616460FDC0E4B1B680BB9FFF758FF62
:1028F000A51936B114F8011B0A4801F0F3FFAC42E8
:10290000F8D1304670BD084B033853F8200018B199
:1029100003681B68984770BD4FF0FF3070BD00BF63
:10292000684A0010FC4B0010383D0010022810B51A
:102930000C4609DC0D4B1B688BB10D4801F076FF8E
:1029400001232070184610BD0A4B033853F82000AD
:1029500040B103689B6898470346184610BDFFF7CF
:102960001FFFEAE74FF0FF33ECE700BF684A0010B3
:10297000FC4B0010383D0010022808B508DD074B5D
:10298000033853F8200028B10368DB68984708BD76
:10299000012008BD4FF0FF3008BD00BF383D0010DA
:1029A000022808B508DD074B033853F8200028B18A
:1029B00003681B69984708BD002008BD4FF0FF3031
:1029C00008BD00BF383D0010022808B504D84FF4F8
:1029D00000534B60002008BD02F0C8FE09230360CD
:1029E0004FF0FF3008BD00BF08B5012002F040FCE9
:1029F000074A13681844EFF30881884202D2106036
:102A000018467047034B0C221A604FF0FF30704796
:102A1000F01B0010044C00100649074A074B9A426D
:102A2000BEBF51F8040B42F8040BF8E70448804796
:102A30000448004794DC0000C8000010301D00105E
:102A40004925000021010000FEE7FEE7FEE7FEE762
:102A5000FEE7FEE7FEE7FEE7FEE7FEE780F3098814
:102A60007047EFF309807047684680F30988414852
:102A70000078C00714BF0220032080F31488704739
:102A8000DFF8F4C0EFF305831B0618BF6047EFF3D0
:102A90001483DB0708BF604700DF7047DFF8DCC046
:102AA000EFF305831B0618BF6047EFF31483DB07C2
:102AB00008BF604700DF7047EFF30980816911F8B4
:102AC000021CF9B990E80F10E047EFF3098C8CE88D
:102AD00007002B4B93E80600914200F0108039B1BB
:102AE0002CE9F00FC1F824C00CB400F0A5FB0CBC1D
:102AF0001A60D2F824C0BCE8F00F8CF309886FF09C
:102B0000020E704710B51F4A1268914200F20A8007
:102B10001D4C54F8214090E80F10A047EFF3098CAA
:102B20008CE80F0010BD00F019FB154B93E8060070
:102B3000914200F01180EFF3098C2CE9F00FC1F8FD
:102B400024C00CB400F078FB0CBC1A60D2F824C08E
:102B5000BCE8F00F8CF309886FF0020E704700F0AC
:102B60004DFBFFF7E2BF00F047FB00F047FBFFF72C
:102B7000DCBF000038D30000912E0000AB2E000017
:102B8000383E001000000000FCFFFFFF08B50448BD
:102B900001F066F8034B58600223437008BD00BF84
:102BA0008C490010383E0010074B01201B889842CA
:102BB00007D8064A02EB800252F8042C12B1013009
:102BC000F5E70020704700BF36D300000C47001027
:102BD00030B5002401250470457081704460846024
:102BE000C46004618482C4820483448380F82040EA
:102BF0001146BDE8304001F011B90000024B5860A9
:102C000002234370704700BF383E001070B5044681
:102C100018B9BDE87040FFF7B9BF0B4DA27828681E
:102C2000012683789A4207D901F02CF82B685E7050
:102C300002236C60637070BD667021460348BDE876
:102C4000704000F0F5BF00BF383E00108C49001006
:102C500038B50D46014678B14FF6FF729042074CE9
:102C600002D0206801F018F8236805485D7000F074
:102C7000F7FF02236060437038BD00BF383E00108C
:102C80008C490010024B186800B1C078704700BF33
:102C9000383E001010B588B9174B1B68997017485B
:102CA00043689B788B4222D9134C216800F0C0FF07
:102CB000236801225A70FFF769FF18E0104B1B8848
:102CC000984216D80F4B013853F820408CB10A4B6C
:102CD000A1701B689C42E2D0204601F051F8637855
:102CE000012B04D1054800F0BBFFFFF78FFF002048
:102CF00010BDFF2010BD00BF383E00108C490010F1
:102D000036D300000C47001070B5184D18B12B6871
:102D1000DB78984213D12E6800247470FFF7A1FE6F
:102D2000706200F089FA2B68114AD9782C60013959
:102D300042F821409C62FFF729FF204670BD0D4BF1
:102D40001B8898420FD80A4C461E54F8265055B19D
:102D5000284600F0FFFF284601F02CF8002044F838
:102D60002600A86270BDFF2070BD00BF383E001075
:102D70000C47001036D3000010B5284B1A880023EA
:102D8000934205D22649002041F823000133F7E79A
:102D9000244CFF23E370244B20461B8800216384CE
:102DA000224B234AA362FFF713FF224A0023042188
:102DB00011705360204A1170D360136193821F4ACF
:102DC0001460022262701E4A137053701D4B1B78F0
:102DD000D37000F07FF81C4B1A6842F47F021A602F
:102DE0001B681B0203F07F43DB43B3FA83F3174AEC
:102DF000DBB21268C3F10803C2F302229A42A8BFF1
:102E0000531C6FF0807000FA03F3114A03F07F4304
:102E1000116821F07F410B43136010BD36D30000D1
:102E20000C470010403E001040D3000068470010DF
:102E30003D3A00008C49001074490010383E0010E3
:102E40008846001042D3000020ED00E00CED00E0C9
:102E50001CED00E008B500F0B9F90C4B0028186033
:102E600012DB00F16040FF2200F5644002701A6836
:102E70000121531102F01F0201FA02F29B0003F13B
:102E8000604303F561431A6008BD00BF783E00103F
:102E9000EFF3108172B6036801F001010BB11A68FB
:102EA000026001B962B61846704781420DD343688B
:102EB00099420AD2EFF3108272B603680B60016088
:102EC00012F0010003D162B6704701207047002064
:102ED00070470000034B00221A60034A1268DA8030
:102EE000704700BF703E001048D3000008B50F4B7C
:102EF00059680F4B1A688A420E4A05D0D888196063
:102F000011680138014499809988138899420BD13E
:102F1000074B002205481A6000F0A2FEBDE80840F9
:102F20000146024800F084BE08BD00BF8C49001075
:102F3000703E001070490010012310390370890899
:102F40000023437083704360038143818381C18187
:102F50007047000038B5838904461546002B35D0EC
:102F60004289101D54F8200001320860E18992B2B4
:102F70009142628104BF002262816268F2B162788C
:102F8000022A1BD1204600F06BFE0021054600F00E
:102F90006BFF2389EA69191D44F821200133E28976
:102FA0009BB29A42238108BF0023284608BF238191
:102FB00000F000FF2846FFF729FE05E0EFF310823E
:102FC00072B6013BA38162B6002038BD82B142686F
:102FD000084B1AB1196800F02BFE05E01B6843602E
:102FE0005A6098600123437028460821FFF730FE9D
:102FF000012038BD383E0010C2898089101A704700
:1030000008B500F0EBFEBDE8084000F095B88389F4
:1030100010B50446EBB14389043350F823300B60FC
:103020004378022B04D1002100F0D8FE00F084F890
:10303000EFF3108372B6A389013BA38162B6638963
:10304000E28901339BB29A42638104D100236381F8
:1030500001E0184610BD042010BD0000436870B5A3
:1030600004460E46002B4AD04578022D1CD0032D75
:103070000AD0012D5DD100F0F3FD10210446324647
:1030800000F0F5FE657034E00846FFF701FF0546E5
:1030900000284ED0204600F0E3FD2946044600F00B
:1030A000E3FE0123637024E000F0DAFD0021054611
:1030B00000F0DAFE2389EA69191D44F82120EFF3B4
:1030C000108272B6A2890132A28162B6E28901330E
:1030D0009BB29A42238104BF002323810123284607
:1030E0006B7000F067FE13482946BDE8704000F0A1
:1030F0009FBD204600F05EFE0E482146F5E7808920
:10310000E189884210D22289151D44F82560EFF329
:10311000108572B60130A08162B6013292B28A4245
:1031200014BF2281238170BD0320BDE8704000F0F0
:1031300086BC70BD8C490010054B1B7823B9054B2C
:103140004FF080521A607047034B01221A7070478B
:103150007D3E001004ED00E07C3E001038B5184BB9
:10316000184D18680123437000F08CFD6C78AA7824
:10317000144BEAB103EBC403586802781AB91989F1
:1031800000F018FC07E0012A03D19968FFF766FFF9
:1031900001E000F039FCEB7801349C4208BF0024C8
:1031A000EFF3108372B6AB78013BAB7062B6DEE72B
:1031B0005C70054800F054FDBDE83840FFF71EBDC7
:1031C000383E0010884600108C490010084B4FF024
:1031D000FF301A68074B1A6000225A60072243F832
:1031E000042CD3F80C2D42F07F42C3F80C2D70470D
:1031F00044D3000014E000E07047000008B50B4B1A
:1032000018680123437000F03DFDFFF76FFE084B87
:103210001A6801321A6000F065FD00F061F9054896
:1032200000F01EFDBDE80840FFF7E8BC383E001086
:10323000704900108C490010084B1B68DA78012A8D
:103240000AD09A6A5B6A9A4203D81268044B9A427F
:1032500002D0012000F0F3BB704700BF383E0010E1
:10326000A52E5AE238B1830704D10378002B18BF8A
:10327000002070470020704700B5DFF80CC000DF69
:10328000DFF808C000DFFEE7293400004134000009
:1032900030B50C4C00222368254633B11C89A1426D
:1032A00003D31A46091B1B68F7E789B20360018143
:1032B00013B11C89611A19810AB1106030BD2860F0
:1032C00030BD00BF803E0010431C11D00B4B984214
:1032D00011D80B4B4FF47A711B685A1E01FB00206A
:1032E000B0FBF3F04FF6FE73984228BF18467047C4
:1032F0004FF6FF7070474FF6FE70704700093D00B3
:103300003CD3000038B5084C257855B9FFF734FD9B
:10331000064BFF221B6828469A7000F092FB01239F
:103320002370002038BD00BF7E3E0010383E0010E4
:1033300010B5EFF305845CB9EFF31484E40703D40C
:10334000BDE81040FFF7DEBFDFF808C000DF10BDAA
:10335000822010BD0533000010B588B0EFF305845E
:1033600034BBEFF3148404F00304022C0CD0032CC0
:1033700016D0012C1ED008AC84F309880F4C247899
:10338000E40705D5022404E00C4C2478E4070BD4B0
:10339000032484F31488BFF34F8FBFF36F8F03E0D0
:1033A000064C2478E40705D4DFF814C000DF02E0FF
:1033B000822000E0FF2008B010BD00BF38D300001D
:1033C000A5370000F8B5044650B1026842B18388C1
:1033D000D81C80B2062803D8A06808B1E66826B9D0
:1033E000802000F02EFB0020F8BD04F11005E16202
:1033F000191DC9B2A66360862846FFF7E9FBFFF7EF
:10340000D3FB074E471E46F82750E0742846FFF7C7
:10341000FDFB56F82700034A436A5A63F8BD00BF14
:103420000C4700107932000008B5FFF72BFC18B1EB
:10343000024B013853F8200008BD00BF0C470010B4
:1034400008B5FFF70FFF38B1C078FFF75DFCFF2824
:1034500014BF0020812008BD802008BD70B505463E
:103460000C46EFF3058686B9EFF31486F60706D40B
:10347000074E36781EB9BDE87040FFF7A3BF284657
:103480002146DFF810C000DF70BD002070BD00BF16
:10349000843E0010C533000010B5EFF305841CB95D
:1034A000DFF808C000DF10BD002010BD2934000087
:1034B00010B5EFF305841CB9DFF808C000DF10BDBC
:1034C000822010BD41340000830706D128B1016974
:1034D000C3680A68194610467047002000217047EB
:1034E000F8B5134B1C681F460CB32389013B23819D
:1034F0002389E3B90F4B26681D683E6055B12B78D0
:10350000012B07D12846FFF777FD18B12846214641
:10351000FFF776FD6379012B04D120466189FFF71F
:10352000B7FE01E0012323710EB13446E0E7F8BD98
:10353000803E00106C49001010B504460846DFF8C4
:103540000CC000DF84E80300204610BDC934000031
:1035500038B50C46FFF786FE034648B1220C12042C
:1035600032B9058BD978A0B200F0E4F9284638BD0D
:103570004FF0004038BD00002DE9F74F020C120457
:1035800003460C46002A2DD1084601935BB1FFF794
:103590009BFE019B81B2012298B200F0A5F902289E
:1035A000019B0FD112E0FFF78FFE019B81B21A46FB
:1035B0004FF6FF7000F098F9022803D10F4B1B68FB
:1035C0005B8B03E024B10023402203E0082201E0EA
:1035D000234622464FF00008C14614461D464E467B
:1035E0004F4603E0002586242E462F4620462946D6
:1035F00032463B4603B0BDE8F08F00BF383E0010B6
:1036000038B50C46EFF3058585B1FFF72BFE034671
:1036100048B1220C120432B9058BD978A0B200F05F
:10362000B7F9284638BD4FF0004038BDDFF804C078
:1036300000DF38BD5135000030B50446084611465C
:10364000EFF3058515B18223236004E0DFF80CC099
:1036500000DF84E80700204630BD00007935000017
:1036600010B520B9802000F0ECF9002010BD0468EE
:10367000002CF7D02378002BF4D1204600F010FA6C
:10368000204610BD70B510F0030604460D4611D15A
:1036900080B10378032B0DD10846FFF715FE81B2E8
:1036A000204600F095FA012806D1002D0CBF81209C
:1036B000C12070BD802070BD304670BD820708B546
:1036C0000AD148B10378032B06D100F02BFAFF286A
:1036D00014BF0020812008BD802008BD10B510F067
:1036E000030407D130B10378032B03D100F0E0F9D4
:1036F000204610BD802010BD30B50446EFF305858F
:103700007DB9EFF31485ED0706D4074D2D781DB96B
:10371000BDE83040FFF7A4BF2046DFF810C000DF4F
:1037200030BD002030BD00BF843E00106136000077
:1037300010B5EFF305841CB9DFF808C000DF10BD39
:10374000822010BD8536000010B5EFF305841CB94A
:10375000DFF808C000DF10BD822010BDBD360000BC
:1037600010B5EFF305841CB9DFF808C000DF10BD09
:10377000822010BDDD36000010B5044618B1016886
:1037800009B1406820B9802000F05BF9002010BD2D
:103790000378002BF7D10431890089B2FFF7CCFB05
:1037A000606810BD38B5104D2C78D4B921460F484B
:1037B000FFF7E2FF0E4B214618600E48FFF702FEAE
:1037C0000D4B214618602046FFF764FA0B4B1A6830
:1037D000526A203282F309881C60FFF73BFB012309
:1037E0002B70002038BD00BF843E0010341C001038
:1037F0006C4900103C1C001068490010383E001055
:103800002DE9F04F0C4685B08046E8B10378012BD6
:103810001FD10846FFF758FD02A982B24046FFF7C4
:1038200099FB012806D10020002C0246034618BF50
:10383000402003E00020024603461020029904467F
:103840000D4616461F4608E08024054606460746F4
:1038500003E0002580242E462F4620462946324686
:103860003B4605B0BDE8F08F7FB5044616460846D6
:10387000EFF30581A9B101AD00B10AB180230AE0DF
:103880000378012BFAD102A9FFF7C1FB042801D06C
:10389000019601E01023019395E8070084E80700F2
:1038A00005E01146DFF80CC000DF84E80700204681
:1038B00004B070BD013800007FB50A4B03A8196839
:1038C0004FF0FF32FFF7D0FF039B102BF5D101A87B
:1038D0000499FFF731FE019B002BEED00298984728
:1038E000EBE700BF6C49001070B50346104C4AB1BD
:1038F0002268158B00EA050686420DD125EA0605E9
:10390000158307E02268158B284007D025EA0303BA
:1039100050831383022070BD062200E00522206838
:10392000438308461146FFF793F9012070BD00BF9D
:10393000383E0010154B013910B553F821401CB327
:10394000238B62781843062A2083638B04D100EA14
:1039500003029A4218D105E0052A15D110EA0302A4
:1039600012D0628320EA03002083204600F022FA6E
:10397000012320466370628B082100F078FA20460C
:10398000BDE81040FFF742B910BD00BF0C47001062
:1039900008B5074B0139024653F8210030B11146F2
:1039A00000F01CFABDE80840FFF7C6BB08BD00BF29
:1039B0000C47001010B5038B42781943062A0446C1
:1039C0000183438B04D101EA03029A4219D105E035
:1039D000052A16D111EA030213D0428321EA03011A
:1039E0002183204600F0E6F9012320466370082178
:1039F000628B00F03CFA21460248BDE8104000F01E
:103A000017B910BD8C490010426810B57AB100F0AA
:103A100027F9044600F0CEF901216170204600F03C
:103A200023FA21460448BDE8104000F001B942885D
:103A30000132428010BD00BF8C490010FEE7FEF746
:103A4000DFBD08B1FEF7DCBD704700000449054A40
:103A5000C1F1805303F5F8439360D160704700BF14
:103A6000084C0010F41B00100020002104460D46F5
:103A7000094801F065FE02F0C9F920462946FFF722
:103A800057FCFFF7E3FF05480021FFF7E7FCFFF7CE
:103A900063FC01F0EDFB0000955B0000F41B0010DF
:103AA00003230370002343704380436083607047A7
:103AB000438870B504464BB1836842789A70174BBF
:103AC00080681B68984201D000F05AF9656885B19A
:103AD000204600F0C5F80021054600F0C5F928464B
:103AE00000F068F901236B700D48294600F0A0F83A
:103AF000ECE70B4843686BB1084E9A7831688B78D5
:103B00009A4207D900F094F8336801225A70284687
:103B1000FFF77CF80020207070BD00BF383E001019
:103B20008C4900102DE9F84345880446002D47D004
:103B3000DFF898808168D8F80030994240D1013D83
:103B4000ADB2458015B10020BDE8F88343781E4F23
:103B50008B7046682EB300F083F8294606464FF076
:103B6000010900F081F9304600F024F9A4F8029030
:103B7000A660B3786370D8F800107B688A789B7869
:103B80009A4219D2384600F053F83846314600F0D0
:103B90004FF8D8F80030284683F8019086F8019055
:103BA0000BE07A6892789A42CDD9384600F040F816
:103BB000D8F8003001225A703046FFF727F8C2E7E4
:103BC000FF20BDE8F88300BF8C490010383E00108C
:103BD00070B50E4641880446144D21B92B688360A8
:103BE0009B78437003E083682A68934203D10131D4
:103BF0006180002070BDB6B192784178914203D2C5
:103C00009A70806800F0BCF8626822B1204629688A
:103C100000F00EF803E02B6863605A609C60304649
:103C20000921FFF715F8012070BD00BF383E0010D4
:103C300030B502788C78013A4368D2B22BB19D78C6
:103C4000A54202D318465B68F8E7022A4B60416040
:103C500003D803B19960886030BD00238B6030BD0C
:103C6000436802785968013A022A41604FF0000225
:103C700004D809B188605A609A6000E05A6018461A
:103C800070470000034B5A6842600022826058600F
:103C9000704700BF8C490010114B10B5DA680AB1AB
:103CA0009A8A0CE000248A1AC460D86003619A8260
:103CB000848210BD002CF5D0A38A1A4423468A4280
:103CC000DC68F7D3C460D860C468036104B12061C4
:103CD000521A92B28282998A8A1A9A8210BD00BFC1
:103CE0007449001038B5184DEB68002B2AD0AB8A08
:103CF000013BAB82AA8A2ABB134BDC6814B3A368CE
:103D00003BB161685960616809B18B6062600023F2
:103D1000A3600E482146FFF78BFFA38AAB8263782E
:103D2000042B04D10A4B1A68E38A1344A3820123AB
:103D30006370E3680022EB6013B103491961E2602C
:103D40002261D7E738BD00BF744900108C490010CC
:103D50007049001083682BB142685A6042685AB1BA
:103D600093607047054B5A68824202D142685A609C
:103D700070470AB11346F6E7704700BF8C49001040
:103D800038B58468054624B94378012B0ED1084C18
:103D900003E023780BB9A468FBE72846FFF7DAFFB6
:103DA00020462946BDE83840FFF742BF38BD00BF76
:103DB0008C490010036910B573B1C268DA60C2683B
:103DC0003AB1998A848A2144998213610023C3609D
:103DD00000E09A820023036110BD000030B50E4A56
:103DE000D578EFF3108372B69378AB4207D20133E4
:103DF000937013785C1CAC4208BF0024147062B648
:103E0000AB4204D202EBC3035860996030BD02207C
:103E1000BDE83040FFF713BE88460010438CF0B574
:103E2000846A9B0804EB83035A0748BF043B4FF0A6
:103E3000807203E90600A3F14005A3F14402A3F157
:103E40000C06002742F8047FB242FAD1C26943F857
:103E5000202CC3784562012B18BF024BC16218BFEA
:103E60002360F0BDA52E5AE2436A19627047436A87
:103E700019625A627047000038B500F1080504461F
:103E800000210C22284602F05AF8204640F8045F30
:103E9000FFF732FC206010B9024801F0D7F9204644
:103EA00038BD00BF4CD300000068FFF741BC08B527
:103EB00000210068FFF73CFCD0F1010038BF002072
:103EC00008BD0068FFF740BC10B504460068FFF766
:103ED00047FC204610BD0000431C10B5044608D026
:103EE0002046002100F08EF904F01F040120A040BC
:103EF00010BD03480349152201F092F9F0E700BF15
:103F000074D3000088D3000038B504464B1C0D461E
:103F100021600FD00846FFF7DFFF25F01F0505F1F0
:103F2000180105F11C0205F114036060A560E16051
:103F30002261636138BD00BF006800F08BB900BF2B
:103F400038B50368044601330D4610D045B1012D44
:103F500005D1A368626819680A431A6038BD38BD84
:103F6000A36861681A6822EA01021A6038BD034832
:103F700003492C2201F054F9E8E700BF60D20000A9
:103F800088D300002DE9F04F414B83B05F689E68F5
:103F90005D6A9C6A0FB3DFF800913E4A9B464FF082
:103FA000010A05E00AFA08F3FF1ACBF80C3014D026
:103FB000B7FA87F8C8F11F085FFA88F859F828009F
:103FC0000028EFD013680121019298470AFA08F3FC
:103FD000FF1A019ACBF80C30EAD1D6B1DFF8B890CD
:103FE000DFF8B0A0DFF8A88005E00123BB40F61A97
:103FF000C8F80C300DD0B6FA86F7C7F11F07FFB22C
:1040000059F827000028F0D0DAF80030022198474C
:10401000EBE7E5B1DFF88080DFF878901C4F04E033
:104020000123B340ED1AFB6211D0B5FA85F6C6F153
:104030001F06F6B20F2EF3D806F1200358F823001E
:104040000028EDD0D9F8003001219847E8E7DCB12D
:10405000114FDFF840800E4E04E00123AB40E41A1C
:10406000F36211D0B4FA84F5C5F11F05EDB20F2D3E
:10407000F3D805F1200357F823000028EDD0D8F835
:10408000003002219847E8E703B0BDE8F08F00BF99
:1040900080800240A4490010A8490010F8B51E46CF
:1040A0004B1C044623D0134B21F01F0001F01F05C9
:1040B000114F21F05F0199423A6084E8210004D059
:1040C0000E4801F0C3F894E821000A4B0C499842CD
:1040D00018BF20350B4BA560152043F82560FEF76F
:1040E00015FA094B4FF400121A600020F8BD08467B
:1040F000F8BD00BF00C00920A4490010F0D30000A3
:10410000853F0000A849001000E100E08268024BF2
:10411000002143F822107047A849001030B403680A
:10412000314CA34232D0314DAB4212D001293ED0A6
:10413000A34220D0AB420AD14368012101FA03F324
:10414000002A41D12A4A516B21EA0303536330BC50
:1041500070474368012404FA03F3254C0129E36204
:10416000EED1436801219940214B002A36D01A6BC9
:104170000A431A63EBE74368012101FA03F3E2B152
:104180001B4A30BC51690B4353617047436801249B
:1041900004FA03F3164C0129E360F0D143680121CE
:1041A0009940134BAAB11A690A431A61CFE7A34297
:1041B000F4D0AB42D5D030BC70470D4A30BC516909
:1041C00021EA030353617047094A516B0B43536360
:1041D000BDE71A6922EA01021A61B8E71A6B22EAFE
:1041E00001021A63B3E700BF00C0092040C00920E4
:1041F00080800240024B4FF400121A60704700BFEB
:1042000000E100E038B5431C04460D4617D004F128
:104210006040A0F51C2000F00F035B0003229A40D1
:104220009D4003099B0003F1804303F53033196877
:1042300021EA02021A601A6815431D6038BD03485E
:104240000349152200F0ECFFE1E700BF74D3000042
:1042500020D4000038B5431C04460D462CD004F190
:104260006040A0F51C2000F01F04C5F3800202FA94
:1042700004F443099B0003F1804303F53033996E46
:1042800021EA04019966996E0C439C669AB900F084
:104290000F035B0003229A4005FA03F30009800034
:1042A00000F1804000F53030016C21EA0202026426
:1042B000026C1343036438BD02480349202200F016
:1042C000AFFFCCE774D3000020D4000008B5154A36
:1042D0009368C3F34203012B1ED0022B19D1124B5A
:1042E000596F01310AD0D3F88010986F086093F8A5
:1042F000A61019B9516821F001015160186F0A4BDD
:1043000048B193F8A6302BB10021084A13689847AA
:1043100008BD08BD08BD08BD034A106F0028F9D0CC
:104320001946F2E700800940704A00106C4A0010FC
:1043300070B50368294CA34249D041DD284CA34203
:104340002AD004F58044A34244D1264C08263ABB27
:1043500001290BD04568244AC5EBC50502EBC5040D
:1043600094F8355094F83620EA4214D1012202FA2A
:1043700001F5D1F1010138BF002102FA01F15C68B9
:1043800024EA05045C6003685B68194203D1B2400B
:10439000164BC3F8802070BD154C0726002AD7D0D5
:1043A000012505FA01F176B2304605FA06F65A689B
:1043B0000A435A602146FEF7A9F80C4B1E6070BDF7
:1043C000A4F58044A34205D10A4C0526BFE70A4C58
:1043D0000626BCE700242646B9E700BF00000140DE
:1043E0000080094061440000704A001000E100E0D4
:1043F000CD420000FD430000CD44000008B5154A41
:104400009368C3F34203012B1DD0022B18D1124B2A
:104410005968013109D019699868086093F8361015
:1044200019B9516821F00101516018680A4B48B16F
:1044300093F836302BB10021084A1368984708BD1D
:1044400008BD08BD08BD044A10680028F9D0194607
:10445000F2E700BF00C00040704A00106C4A001034
:1044600008B5174A9368C3F34203012B21D0022BEE
:104470001CD1144BD3F8AC1001310BD0D3F8B810C9
:10448000D3F8B000086093F8DE1019B9516821F034
:1044900001015160D3F8A8000A4B48B193F8DE300F
:1044A0002BB10021084A1368984708BD08BD08BD14
:1044B00008BD044AD2F8A8000028F8D01946F1E750
:1044C00000C00940704A00106C4A001008B5154A37
:1044D0009368C3F34203012B1DD0022B18D1124B5A
:1044E000D96B013109D0996C186C086093F86E1083
:1044F00019B9516821F001015160986B0A4B48B11C
:1045000093F86E302BB10021084A1368984708BD14
:1045100008BD08BD08BD044A906B0028F9D01946B3
:10452000F2E700BF00000140704A00106C4A001022
:104530002DE9F04F0368884A8DB0934209908B466D
:1045400000F3F080854A934200F0F78040F3D78073
:10455000834A934200F09F8002F5804293420CD13F
:10456000804AD2F8AC1121F44021C2F8AC11D2F843
:10457000AC1141F48021C2F8AC117B494FEA0B1217
:1045800009680891089CB1FBF2F102FB114289B263
:104590000491002A00F0B1806100A200012302947E
:1045A00000240B910A9201930F4603920693CDF8D3
:1045B0001CB05E460594DDF81CA001994FF0000880
:1045C000D146CDB2DA46C346002F79DB0399DDF838
:1045D00004E0B1FBF9F464090134C4F34F04DE4490
:1045E000002C66D10124B8F1000F67D104FB0EF056
:1045F000029AC000B2FBF0F00130CAEB500001F0AB
:104600009BF8B04206DA504564D00646CDF81480D7
:10461000049406950BF1010B5FFA8BF84545D144E4
:10462000D2D8019CD3460F2C4FF000035DD0029AE4
:104630000899019C0A440B99013402920194039A4F
:104640000F440A9C07992244594403920791002B76
:10465000B1D0069B059A099C42EA03102368C0B2B8
:10466000197B049C41F08001C4F30722099C197353
:10467000236804991A7123685FFA81FB83F800B0FC
:10468000236883F8280023681A7B02F07F021A73DC
:104690000DB0BDE8F08F334AD2F8AC1121F44031AF
:1046A000C2F8AC11D2F8AC1141F48031C2F8AC11AF
:1046B00063E7B8F1000F99D0012C97D8022495E751
:1046C000B7FBF9F42409DDF804E00134C4F34F0426
:1046D000DE4485E70494019CD3460F2C0695CDF863
:1046E000148056464FF00103A1D10599069A099C02
:1046F00041EA0210C0B22368B2E71020B0E7A2F589
:10470000804293427FF439AF164AD2F8A81121F0C3
:10471000C001C2F8A811D2F8A81141F04001C2F8B6
:10472000A8112AE79B221148114900F079FD099C44
:104730000A4A236893427FF409AF0A4AD2F8A811C3
:1047400021F44071C2F8A811D2F8A81141F4807187
:10475000C2F8A81111E700BF00C0094000000140E5
:104760000080094000C00F40EC1B001024D5000061
:1047700040D50000F8B55D1E012D07460C461646D3
:1047800004D915481549FB2200F04AFD053C032CCD
:104790001CD8042E14D8013EF6B2032E0DD8104BAF
:1047A000082253F826301B01DBB244EA8504144387
:1047B00023433A68DBB21373F8BD00231A46F4E7CB
:1047C00008480649FE2200F02BFDE4E706480349AD
:1047D000FC2200F025FDDCE7A8D5000040D5000054
:1047E000A8D40000F4D50000D0D50000436810B470
:1047F0000448054CC3EBC30344F8332001605DF863
:10480000044B70476C4A0010704A001010B439B95C
:104810004368054CC3EBC30304EBC30383F83620A2
:104820005DF8044BFFF784BD704A001000B50268C4
:10483000137DDB07FCD543680949C3EBC30301EBD8
:10484000C303596810780131C0B207D059690433E5
:104850005B680B60536843F0010353605DF804FB31
:10486000704A00100368187D00F00100704700BF17
:1048700038B54368184AC3EBC303DB00D1180446BC
:10488000C869013011D018331A445368151D01331B
:1048900016D06A696B6812681A4204D12368187DC1
:1048A000C0F3801038BD002038BD23681B7D9B06F7
:1048B0000CD491F834000F288CBF0020012038BDA3
:1048C000064807492C2200F0ABFCE2E7002381F800
:1048D0003430012038BD00BF704A001060D20000A3
:1048E00078D6000038B504460D462046FFF7C0FFD5
:1048F0000028FAD02368EDB21D706268054BC2EB48
:10490000C20203EBC20393F83420013283F834204F
:1049100038BD00BF704A00102DE9F04F0446454DE8
:10492000006883B0A8420E469046994643D0656819
:10493000002301932A46DFF808A1EF00C2EBC20270
:10494000781B4FF0000E0AEBC0000AEBC20C4FF0D0
:10495000FF33C36143607146724620468CF835E0F0
:10496000FFF7E6FC16B903B0BDE8F08F32494046C8
:1049700000F028FD31498346484600F023FDB21E71
:10498000012A38D9012EEED1B8F1FF3FEBD02949E9
:10499000226807208B45107215D1019B9BB11B7CAF
:1049A000019A254943F040034046137403B0BDE823
:1049B000F04F00F0D5BC037C656803F03F0303743F
:1049C00062680190B7E77D1B0AEBC50041460430E1
:1049D000002200F099FC62680125C2EBC2020AEBDA
:1049E000C20320462A46002183F8355003B0BDE8B3
:1049F000F04FFFF79DBCB9F1FF3F09D00D4A90423F
:104A00000CD0781B0AEBC00049461C3000F048FC73
:104A1000032EA8D1B8F1FF3FB9D1A4E7019B002B29
:104A2000EFD01A7C484642F080021A74034900F025
:104A300097FCEDE70000014084D4000060D700003F
:104A4000704A00102DE9F0470F46054608466149B7
:104A5000164600F0C5FC60490446304600F0C0FC34
:104A60000146204600F09CFC411C044600F0AB804F
:104A70005A4B2860984200F0838053D9584B984293
:104A800076D003F58043984206D1564BD3F8C42024
:104A900042F00072C3F8C4204FF0010984F8089076
:104AA0002B684FF00008C3F8048028464FF41651D5
:104AB000FFF73EFD42464B4628460821FFF75AFEC7
:104AC0003846444900F04CFC3046434900F048FC6D
:104AD0007A1C03D038464146FFF7BCFB731C03D059
:104AE00030460021FFF7B6FB3C4B9C4250D025D905
:104AF0003B4B9C4264D003F580439C424BD1032343
:104B00006B603949C3EBC3034FF0FF34284601EB18
:104B1000C305224623466C60EC610021BDE8F047E6
:104B2000FFF7FABEA3F580439842B5D12D4BD3F8D9
:104B3000C42042F00802C3F8C420ADE7A3F58043C7
:104B40009C4228D1284E4FF0FF3400216960224654
:104B5000234628467460F461FFF7DEFE234B0124F0
:104B600029461C6022480822BDE8F04701F0DEB962
:104B70001C4BD3F8C42042F08072C3F8C4208BE7EA
:104B8000184BD3F8C42042F01002C3F8C42083E7C6
:104B900001236B60B5E76B681349C3EBC3034FF0A8
:104BA000FF3601EBC30732463346284600217E60BC
:104BB000FE61FFF7B1FE0F4B9C42CFD0BDE8F087FE
:104BC00002236B609DE70C480C495C2200F028FB37
:104BD0002C6061E7F4D60000B8D40000000001406A
:104BE0000080094000C00F40704A0010684A001061
:104BF000FC4B001000C00040E4D6000040D500008F
:104C0000134A38B513680BBB12490124D1F8C450BC
:104C10001460114A114845F40005C1F8C4501367E7
:104C2000036801F1437101F5F45103319B08A1FBC5
:104C300003039B0C013B022151600420D36008490F
:104C40005460FDF763FC074B10221A6038BD00BFAB
:104C5000504B001000C00F4000400940EC1B0010FA
:104C60005154000000E100E008B5044B1B680BB98B
:104C7000FFF7C6FF024B986808BD00BF504B0010FD
:104C800000400940034B98615A6942F001025A61A1
:104C9000704700BF00400940024B5A6922F00102F0
:104CA0005A61704700400940014B01221A60704769
:104CB0000040094038B5074B0546036000242B1916
:104CC0005B68043418460BB100F026FD402CF6D189
:104CD000284638BD90D7000010B50446FFF7EAFF1C
:104CE000204600F019FD204610BD00BF2DE9F0411F
:104CF000234C90B00460169C01920394199C1E9A58
:104D000006941A9C189D07941B9C179E08941C9C43
:104D1000804600910F4602932098219B2299099486
:104D20000B921D9C1F9A0595002504960A940C92DF
:104D30000D900E930F912E4614E0182000F0D8FC31
:104D40003946066046608660C66006614661044674
:104D500000F0B8FA08EB05030435402D5C600AD07A
:104D60005DF805707B1CE8D108EB050304350024D1
:104D7000402D5C60F4D1404610B0BDE8F08100BF2A
:104D800090D700002DE9F0418846061F0025043623
:104D9000746854B148FA05F7236807F00107013336
:104DA00008D077B9236962681A600135102DEED1F9
:104DB000BDE8F08105480649242200F031FA002FB1
:104DC000F0D0E36862681A60EFE700BF60D20000CD
:104DD00078D2000010B50446FFF7D4FF204610BD7E
:104DE00038B50023036043600A7804462F2A01D0B7
:104DF000204638BD4A78002AFAD0481C20604A78FC
:104E00002F2A14D0B2B18D1C194600E052B1256092
:104E10002A782B462F2A01F1010105F10105F5D170
:104E20000133236000F000FC6060204638BD194665
:104E30000346F5E71146F5E70068704710B50446EC
:104E4000406828B100F00EFC012801D1606810BD57
:104E5000002010BD406808B528B100F003FCD0F177
:104E6000010038BF002008BD10B50446406830B1CD
:104E700000F0F8FB18B9606808B1043810BD0020D4
:104E800010BD00BF4068003018BF0120704700BF50
:104E9000002280E806008261704700BF002380E89E
:104EA0000A00704708B5036801460BB1984708BD72
:104EB000406810B18B690831984708BD00F06EB8A2
:104EC000A0F14800FFF7FABF00F06CB8A0F148006D
:104ED000FFF7FABF38B504461D4600F01BF8294617
:104EE00004F1480000F0C4F8054B204603F1080126
:104EF00003F1200254332160A264E36438BD00BF93
:104F000098D70000C1EBC10100EB81000C30FFF726
:104F1000C9BF00BFF8B5104B0025044680E8280043
:104F20000E46856029460C301746FFF7B1FF29462B
:104F300004F12800FFF7ACFF251D4FF4165331464E
:104F40003A4663642846FFF77DFD2846224603491A
:104F5000FFF74CFC2046F8BD50B80000054F00009C
:104F60000430FFF77FBC00BF38B5144605460A463B
:104F700069B1C4EBC40005EB80000C30FFF78EFF75
:104F8000281D21460122BDE83840FFF73FBC2146DD
:104F90000430BDE83840FFF739BC00BF0430FFF7EC
:104FA00045BC00BF10B504300C46FFF79BFC204603
:104FB00010BD00BF00207047F8B58E18B1420F46F3
:104FC00005460FD00C4601E0A64209D02B682846C2
:104FD0005B6A14F8011B98470130F5D1E01BF8BD5E
:104FE000F01BF8BD0020F8BDF8B58E18B1420F4691
:104FF00005460FD00C4603E004F8010BA64207D08B
:105000002B6828469B6A9847431CF5D1E01BF8BDE6
:10501000F01BF8BD0020F8BD00207047002070474D
:10502000002070470020704710B5074B044603F17D
:1050300008023C3380E80C00406900F0EFFB20469A
:1050400000F012FB204610BDF8D70000A0F10400CC
:10505000FFF7EABF10B50446FFF7E6FF204600F071
:105060005BFB204610BD00BFA0F10400FFF7F2BFBC
:1050700030B585B0044600F027FB0C4B002503F14A
:1050800008023C3384E80C006561224601A8084907
:1050900001F0A8F901A8074900F0D2FD2946606196
:1050A00001F0CCF8204605B030BD00BFF8D70000B5
:1050B00028D3000040D8000010B50446406900F035
:1050C00063FC6069BDE8104000F09CBC0EB430B5D4
:1050D00082B005AB53F8045B04464069019300F0CD
:1050E00053FC29466069019A01F08EFE02B0BDE8CA
:1050F000304003B0704700BF70B5D0E90223D0E95B
:1051000006451219064643EB050300F07BF806F14D
:105110002000BDE87040FFF7C5BE00BF10B50446D3
:1051200000F07AF804F120000021BDE81040FFF7FC
:10513000B5BE00BF70B514461D46064600F06CF8BB
:10514000C6E90645FFF790FD221845F100033046F9
:10515000BDE8704000F056B838B5002505604560E0
:1051600085600446FFF780FDA5606060204638BD7D
:10517000036810B5044623B9FFF776FD012360608C
:10518000236010BD38B504460068A56818B1FFF764
:105190006BFD6368C01A284438BD00BF08B50368BA
:1051A0009B68984708BD00BF10B5044A044640F804
:1051B000082B00F0ABF9204610BD00BF68D80000F6
:1051C00010B5054B044640F8083B00F09FF9204617
:1051D00000F0A2FA204610BD68D8000038B5074D8F
:1051E00000210022002304460560C0E9022301617A
:1051F0004161034800F022F9204638BD68D800001C
:105200009D51000000B583B00090083000F04CF9CB
:1052100003B05DF804FB00BF083000F077B900BFB1
:1052200010B5084B0446186882B00B46C0680649A2
:105230000092224600F00EFD02B0BDE81040FDF7DE
:10524000DFB900BFDC1C001078D800000FB400B537
:10525000064A83B004AB126853F8041BD0681A46A0
:10526000019301F0D1FD012000F002F8DC1C0010D8
:1052700038B50A4C05462368986800F085FB23681A
:10528000D86800F081FB00F069F820B905B9FEE7A5
:10529000FDF7B6F9FBE700F0BDF8F7E7DC1C0010FE
:1052A00038B50D460446FEF72FFE013509D02046DD
:1052B0000021FEF745FE20460321BDE83840FEF7F9
:1052C0003BBE38BD38B50D460446FEF71DFE013520
:1052D0000FD0236801330DD02369626820461A601D
:1052E0000121FEF72DFE20460221BDE83840FEF7E1
:1052F00023BE38BD024803492422FFF791FFEBE7A4
:1053000060D2000078D2000070B50D461646044603
:10531000FEF7FAFD013514D02368013312D066B9C7
:10532000236962681A6020460121FEF709FE2046C3
:105330000221BDE87040FEF7FFBDE36862681A60B5
:10534000F1E770BD034804492422FFF769FF002EEE
:10535000E6D0F2E760D2000078D2000000F066B834
:10536000431C10B5044618D00B68581C04D10FE03C
:1053700051F80C3F5A1C0BD09C42F9D12046896849
:10538000FEF740FF20460221BDE81040FEF762BF55
:105390000248BDE81040FFF759BF10BDACD800006F
:1053A000884208B50AD0431C07D0013106D0044812
:1053B000FFF74CFF4FF0FF3008BD084608BD00BFA7
:1053C000C0D800000B685A1C04D107E051F80C3F0C
:1053D0005A1C03D08342F9D1486870471846704779
:1053E00008B5431C0CD00B685A1C04D109E051F8D5
:1053F0000C3F5A1C05D09842F9D14868411C00D096
:1054000008BD0348FFF722FF4FF0FF30F8E700BF69
:10541000D4D8000030B585B018246D462046294602
:10542000ABBE0446204605B030BD00BF024B186835
:1054300000F00100704700BFF0ED00E010B5044639
:10544000FFF7DEFB014B1C6010BD00BF584B001086
:10545000F8B5FFF729FC124E124F3368ABB1D3E910
:105460000045FFF701FC221A65F1000310461946BA
:10547000012871F100030CDA31683A68CB683360B7
:10548000002AEBD088689047E7E7BDE8F840FFF7CF
:1054900003BC3368D3E90001BDE8F840FFF7F2BB75
:1054A000544B0010584B0010F8B50699064672B6DA
:1054B000DFF854C0C0E90023DCF800708160D7B188
:1054C000D7E90045141B63EB0505002C75F10000BE
:1054D0000ADA10E0D1E90045141B63EB0505002C46
:1054E00075F1000003DB0F46F9680029F2D1FE6078
:1054F000F16062B6F8BD19461046CCF80060FFF7BF
:10550000C1FB3946F4E700BF544B001008B572B632
:10551000104B1A68824211D04AB1D368834208D036
:105520002BB1DA68824205D01346002BF9D162B65E
:1055300008BD1346C268DA6062B608BDD2681A6058
:105540002AB1D2E90001FFF79DFB62B608BDFFF763
:10555000A3FBECE7544B001038B50546FFF784FB7E
:105560000446FFF781FB001BA842FAD338BD00BFF9
:1055700008B5044905F0D2FF06F020F9BDE808405F
:10558000FFF7EABF002474494FF47A7303FB00F07D
:10559000FFF7E2BF094A8368026053B1084B1A68FB
:1055A000824201D106E01A4653688342FBD1436828
:1055B0005360704742681A60704700BF00D900000E
:1055C0005C4B00100C4A836810B50446026053B16E
:1055D0000A4B1A68904201D10AE01A4653689C426D
:1055E000FBD163685360204600F096F8204610BD5A
:1055F00042681A60F7E700BF00D900005C4B00105A
:10560000074B10B400240273816080E8180019B1C0
:10561000044B1A68186042605DF8044B704700BF85
:1056200000D900005C4B00100D4B70B51C6806469D
:105630000D4614B912E0646884B1A36831462A4665
:105640001846002BF7D000F072FF0028F3D1A068B5
:1056500000F065FFA842EED1204670BD002070BD6D
:105660005C4B0010007B704710B5074B044603F1FC
:1056700008023433226040F8043FFFF78BFF2046D6
:10568000FDF75EF8204610BD08D90000A0F1040027
:10569000FFF7EABF094B10B503F1080204463433A3
:1056A000226040F8043FFFF775FF2046FDF748F8F9
:1056B000204600F031F8204610BD00BF08D9000098
:1056C000A0F10400FFF7E6BF074B10B50022044627
:1056D00040F8043BFFF794FF044B204603F1080217
:1056E000343384E80C0010BD00D3000008D900005A
:1056F00010B5002814BF04460124204600F0F8FB32
:1057000030B9044B1B680BB900F00FF89847F4E769
:1057100010BD00BF604B001008B100F0F1BB704736
:1057200003460846194600F011B808B5062000F0F7
:105730003DFE012006F078F80028B8BF40427047CF
:10574000014600200246034602F0AABB70B5064C93
:1057500006460D4613462CB131462A46022002F079
:105760009FFB70BD204670BDA17E0000014B1868F4
:10577000704700BFDC1C001070B505460C4609B927
:10578000002070BD18B183690BB900F097F9204B68
:105790009C4201D16C6808E01E4B9C4201D1AC6870
:1057A00003E01D4B9C4208BFEC68B4F90C30002BA1
:1057B000E6D02846214600F0BDF8236B064633B1FB
:1057C0002846216A98470028B8BF4FF0FF36A389C2
:1057D0001B0603D52846216900F0BAFB616B41B175
:1057E00004F14403994202D0284600F0B1FB0023A3
:1057F0006363A16C21B1284600F0AAFB0023A364D7
:1058000000F0C6F90023A38100F0C3F9304670BD53
:1058100048D9000068D9000088D90000024B014631
:105820001868FFF7A9BF00BFDC1C00108A892DE9AA
:10583000F041054610070C4657D44B68002B02DC9C
:105840000B6C002B18DDE66AB6B102F4805200231F
:1058500092B22F682B600AB1626D10E0216A28466F
:105860000123B047411C024609D12B683BB11D2BD7
:1058700001D0162B46D12F600020BDE8F081A3890E
:105880005B0705D56368D21A636B0BB1236CD21A20
:10589000E66A2846216A0023B047461CA28905D142
:1058A0002B681BB11D2B01D0162B19D1002363606F
:1058B0002369D104236004D5421C01D12B6803B9AC
:1058C0006065616B2F600029D6D004F144039942D2
:1058D00002D0284600F03CFB00206063BDE8F08168
:1058E00042F04002A281BDE8F0810E69002EC3D0D3
:1058F0000B680E60C6EB030893070CBF4B690023CF
:105900008B6012E0A3894FF0FF3043F04003A38186
:10591000BDE8F081A76A2846216A32464346B84767
:105920000028EFDD0644C0EB0808B8F1000FF1DCF9
:10593000A2E7000038B50B6905460C46DBB118B18B
:1059400083690BB900F0BAF80C4B9C4201D16C682A
:1059500008E00B4B9C4201D1AC6803E0094B9C4230
:1059600008BFEC68B4F90C302BB128462146BDE8DD
:105970003840FFF75BBF002038BD00BF48D90000AA
:1059800068D9000088D90000014620B9044B0549B8
:10599000186800F01DBA044B1868FFF7CBBF00BFB2
:1059A000ACD9000035590000DC1C001038B50C469D
:1059B000054618B183690BB900F080F80E4B9C4284
:1059C00001D16C6808E00D4B9C4201D1AC6803E04A
:1059D0000B4B9C4208BFEC686368013B002B636083
:1059E00005DA28462146BDE8384000F0EBBB2368C5
:1059F0005A1C2260187838BD48D9000068D90000C8
:105A000088D90000024B01461868FFF7CFBF00BFDE
:105A1000DC1C0010F8B5074600F1480494B1A568F5
:105A20006668013E0CD4AB89012B07D9B5F90E305D
:105A3000013303D038462946FFF77CFF6835F0E78D
:105A40002468EBE7F8BD0000002310B504460360AE
:105A50004360836081814366C281036143618361E6
:105A600019465C30082200F06AFA054B2462636232
:105A7000044BA362044BE362044B236310BD00BFDD
:105A800081640000A7640000DF640000036500007B
:105A900070B54B1E68255D430E4605F1740100F09C
:105AA0009BFA044640B1002180E842000C30A0601F
:105AB00005F1680200F043FA204670BD836910B515
:105AC000044633BB8364C3640365124B124A1B68EC
:105AD0008262984204BF0123836100F01FF8606076
