:1000000000800010AD230000DD230000DF2300008E
:10001000E1230000E3230000E523000000000000CE
:100020000000000000000000000000004D2400005F
:10003000E923000000000000BB240000F3240000BE
:10004000EF230000EF230000EF230000EF23000068
:10005000EF230000EF230000EF230000EF23000058
:10006000EF230000EF230000EF230000EF23000048
:10007000EF230000EF230000EF230000EF23000038
:10008000EF230000EF230000EF230000EF23000028
:10009000EF230000EF230000EF230000EF23000018
:1000A000EF230000EF230000EF230000EF23000008
:1000B000EF230000EF230000EF230000EF230000F8
:1000C000EF230000EF230000EF23000010B5054CE4
:1000D000237833B9044B13B10448AFF300800123F4
:1000E000237010BD0809001000000000E0D80000D7
:1000F00008B5064B1BB106480649AFF30080064819
:10010000036813B1054B03B1984708BD0000000018
:10011000E0D800000C0900100809001000000000E1
:10012000154B002B08BF134B9D46A3F5803A0021C9
:100130008B460F461348144A121A06F02AFE0F4B3C
:10014000002B00D098470E4B002B00D09847002082
:10015000002104000D000D48002802D00C4806F0D4
:1001600019FA06F07DFD2000290000F0CFFC05F013
:10017000A9FF00BF00000800008000100000000080
:10018000DD3F00000809001084270010956500007D
:10019000E969000000B583B001900091019B1B68E4
:1001A000B3F1FF3F04D10B480B49242205F062FF55
:1001B000009B002B05D0019BDB68019A52681A60F6
:1001C00004E0019B1B69019A52681A6003B05DF854
:1001D00004FB00BF9CC60000B4C6000000B583B09D
:1001E0000190019B1B68B3F1FF3F04D109480A4904
:1001F0002C2205F03FFF019B5B691A68019B5B683D
:100200001340002B01D0012300E00023184603B067
:100210005DF804FB9CC60000B4C6000000B583B0C6
:1002200001900091019B00221A60019B00225A60FC
:10023000019B00229A60019B0022DA60019B002250
:100240001A61019B00225A61019B1846009905F032
:1002500051FF019B184603B05DF804FB00B583B065
:100260000190019B1846FFF7B9FF0346184603B0FB
:100270005DF804FB00B583B00190019B064A1A604B
:100280000023002B02D0019806F070F9019B18465C
:1002900003B05DF804FB00BF60C8000000B583B088
:1002A00001900198FFF7E6FF019806F05FF9019BC6
:1002B000184603B05DF804FB00B585B003900291C9
:1002C000CDE90023039B20331846029905F010FD69
:1002D0000398DDE9002305F057FE05B05DF804FB47
:1002E00000B583B00190019B094A1A60019805F09E
:1002F0003FFE019B184605F081FE0023002B02D033
:10030000019806F033F9019B184603B05DF804FB31
:10031000A8D4000000B583B001900198FFF7E0FF7A
:10032000019806F023F9019B184603B05DF804FB21
:1003300000B583B0019000F0EBF803461A46019B2C
:100340001A60019B184603B05DF804FB00B583B04A
:10035000019000F0DDF803461A46019B1B68D31A92
:10036000184603B05DF804FB00B583B0019000911E
:1003700000F0CEF80246009BD31A1A46019B1A6081
:1003800003B05DF804FB00BF82B00190019BDB6EFF
:10039000184602B0704700BF82B00190019B18461A
:1003A00002B0704700B585B0039002910192ADF89C
:1003B0000230BDF9023003980299019A00F006F864
:1003C000039B184605B05DF804FB00BF00B585B07F
:1003D000039002910192ADF80230039B029A5A6099
:1003E000039BBDF802201A81039B4FF40062DA6080
:1003F00040F2AA2006F0A6FC03461A46039B1A61A7
:10040000039B1B69002B02D1064800F069F8039B8F
:10041000002283F84820039B019ADA6405B05DF856
:1004200004FB00BF40420F0000B583B00190019B68
:100430005B68002B00D10EE0019B012283F848206D
:10044000019B1A1D019BDB6C1046194602F092FFBE
:100450000246019B1A6003B05DF804FB00B585B04D
:100460000190019B93F8483083F00103DBB2002B2D
:1004700001D000230FE0019B002283F84820019B5C
:100480001B68184602F0BAFF0390019B5B6C18468C
:1004900006F060FC039B184605B05DF804FB00BF46
:1004A00000B583B001900091019B1B68184600992C
:1004B00003F092F90346184603B05DF804FB00BF51
:1004C00000B585B0039002910192039B18460299F2
:1004D000019A03F0A1F9039805B05DF804FB00BF91
:1004E00000B583B00190019802F0C6FF034618469C
:1004F00003B05DF804FB00BF00B583B00190019824
:10050000FFF7ACFF019B184603B05DF804FB00BF8A
:1005100008B50348FFF738FF0346184608BD00BF7B
:100520004818001000B583B00190019B184605F0F3
:100530007FFD019B0B4A1A60019B4FF0FF329A61CD
:10054000019B00221A77019B0022DA63019B24336E
:1005500018460021182206F01CFC019B184603B027
:100560005DF804FB48C8000000B583B00190019B12
:10057000084A1A60019B184605F040FD0023002B35
:1005800002D0019805F0F2FF019B184603B05DF818
:1005900004FB00BF48C8000000B583B0019001987B
:1005A000FFF7E2FF019805F0E1FF019B184603B059
:1005B0005DF804FB00B585B00390CDE90023039BF3
:1005C0001846DDE9002305F047FD05B05DF804FBA2
:1005D00000B583B00190019B10331846002118220A
:1005E00006F0D7FB019B0433184600210C2206F0CD
:1005F000D0FB019B00221A70019B184603B05DF8E6
:1006000004FB00BF82B00190019B184602B0704706
:1006100030B583B00190019B083301241D4604E0EE
:100620002846FFF77FFF4035013CB4F1FF3FF7D18B
:10063000019B88331846FFF7CBFF019B002283F80C
:10064000B120019B93F8B120019B83F8B020019B5E
:10065000184603B030BD00BF00B583B001900091D3
:10066000019B18460749009A0023FFF79BFE019B58
:100670005033184604F0A4F8019B184603B05DF807
:1006800004FB00BF2D16000082B00190019B1846AC
:1006900002B0704700B583B0019000910348009903
:1006A00000F046FC03B05DF804FB00BF48180010E2
:1006B00000B583B0019000910348009900F040FC20
:1006C00003B05DF804FB00BF4818001000B583B00C
:1006D0000190034800F0C2FD03B05DF804FB00BFC9
:1006E0004818001000B583B00190009103480099AC
:1006F00000F07CFC03B05DF804FB00BF481800105C
:1007000000B585B0039002910192009304480299CC
:10071000019A009B00F0F4FC05B05DF804FB00BFFB
:100720004818001000B587B00590049103928DF829
:100730000B309DF80B30089A009204480499039AF4
:1007400000F0ECFC07B05DF804FB00BF4818001097
:1007500000B587B00590049103928DF80B309DF899
:100760000B309DF82020009203480499039A00F072
:100770000BFD07B05DF804FB4818001000B583B00E
:100780000190019B1846FFF7D3FD019B40F2DC521C
:100790005A60019B4FF416729A60019B42F21072EC
:1007A000DA60019B4FF4FA721A61019B4FF47A727E
:1007B0005A61019B4FF4FA729A61019B4FF47A726D
:1007C000DA61019B00221A62019B4FF416725A6291
:1007D000019B40F2DC529A62019B42F21072DA6293
:1007E000019B30331846FFF7A3FD019B00225A639B
:1007F000019B00229A63019B0022DA63019B184649
:1008000003B05DF804FB00BF014B00221A62704781
:1008100080120010014B00221A62704780120010F3
:10082000014B01221A62704780120010014B002216
:100830001A62704780120010014B02221A62704740
:1008400080120010044B1B6A002B14BF00230123ED
:10085000DBB21846704700BF8012001008B502488E
:100860000021FFF781FD08BD80120010044B1B6AB8
:10087000002B0CBF00230123DBB21846704700BFDA
:100880008012001008B50648FFF760FD0246044BD1
:100890001B699A42B4BF00230123DBB2184608BD8E
:1008A0008012001008B502480021FFF75DFD08BD69
:1008B0008012001008B50648FFF748FD0246044BB9
:1008C0005B699A42CCBF00230123DBB2184608BD06
:1008D0008012001008B502480021FFF745FD08BD51
:1008E00080120010044B1B6A002B0CBF0023012355
:1008F000DBB21846704700BF80120010044B1B6A21
:10090000002B14BF00230123DBB21846704700BF41
:100910008012001008B502480021FFF725FD08BD30
:100920008012001008B50648FFF710FD0246044B80
:100930009B699A42B4BF00230123DBB2184608BD6D
:100940008012001008B502480021FFF70DFD08BD18
:100950008012001008B50648FFF7F8FC0246044B69
:10096000DB699A42CCBF00230123DBB2184608BDE5
:100970008012001008B502480021FFF7F5FC08BD01
:1009800080120010074B9A6B064B5B6A4EF6602193
:1009900091FBF3F39A42D4BF00230123DBB2184644
:1009A000704700BF801200100C4B9A6B0B4B9B6A78
:1009B0004EF6602191FBF3F39A420BDB074B9A6BE7
:1009C000064B5B6A4EF6602191FBF3F39A4201DC21
:1009D000012300E000231846704700BF801200107A
:1009E000074B9A6B064B9B6A4EF6602191FBF3F323
:1009F0009A42ACBF00230123DBB21846704700BF08
:100A00008012001008B50648FFF7A0FC0246054B0F
:100A1000DB6A9A42B4BF00230123DBB2184608BD4B
:100A2000B01200108012001008B50A4B5B6B4EF636
:100A3000602202FB03F2074BDB6A92FBF3F2054BE9
:100A40009A63044B00225A6303480021FFF78CFC91
:100A500008BD00BF80120010B0120010024B5B6B8B
:100A60005A1C014B5A6370478012001008B50648A3
:100A7000FFF76CFC0246054BDB6A9A42CCBF0023B1
:100A80000123DBB2184608BDB0120010801200101E
:100A900000B583B0019008484FF0FF3103F0B6FE77
:100AA00006480749019A05F03BFA034803F0D2FED5
:100AB00003B05DF804FB00BF341700101C170010D2
:100AC00004C7000000B583B0019009484FF0FF3122
:100AD00003F09CFE019B9B68064807491A4605F0F7
:100AE0001FFA034803F0B6FE03B05DF804FB00BF35
:100AF000341700101C1700100CC7000008B502487E
:100B00000121FFF7CDFC08BDF817001000B583B038
:100B100019481A4905F004FA01AB1846FFF7B4FD6D
:100B200001AB18464FF47A71FFF7B4FD1448FFF794
:100B300095FB0346002B14BF00230123DBB2002BDF
:100B400004D001AB184600F04BFF03E001AB1846A0
:100B500000F0EEF80B48FFF767FC0B480B4900224A
:100B600005F02CF901AB1846FFF7B0FD002318463D
:100B700003B05DF804FB00BF1C17001020C7000085
:100B8000E0170010F8170010D4160010FD0A00003E
:100B900000B589B00190019B069302AB1846012174
:100BA0004FF0FF32FFF78CFC98E0534805F0AEF9A8
:100BB000034603F0DF03413B152B00F28F8001A2B7
:100BC00052F823F05D0C0000DD0C0000DD0C00008D
:100BD0003D0C0000DD0C0000DD0C0000DD0C000011
:100BE000DD0C0000DD0C0000DD0C0000DD0C000061
:100BF000DD0C00004D0C0000DD0C0000710C00004D
:100C0000DD0C0000DD0C00001D0C0000DD0C000000
:100C10002D0C0000DD0C0000670C00003748FFF7CA
:100C200037FF06983649FFF75DFD57E03548FFF777
:100C30002FFF06983449FFF755FD4FE03348FFF783
:100C400027FF06983049FFF74DFD47E03048FFF792
:100C50001FFF06982F49FFF745FD3FE006982E49F4
:100C6000FFF740FD3AE006982C49FFF73BFD35E0E1
:100C700000230793204805F049F903468DF8173003
:100C80009DF817302F2B0FD99DF81730392B0BD823
:100C9000079A13469B0013445B001A469DF81730D1
:100CA0001344303B0793E5E79DF817300D2B03D035
:100CB0009DF817300A2B0FD1194B079ADA621948A1
:100CC0004FF0FF3103F0A2FD0B481749079A05F0DA
:100CD00027F9144803F0BEFD00BF00BF134805F01C
:100CE00069F80346002B0CBF00230123DBB2002B65
:100CF0007FF45BAF51E700BF1C17001064C7000012
:100D00002C01001070C70000440100107CC70000D7
:100D100088C70000380100105C010010500100106D
:100D2000801200103417001094C70000D416001071
:100D300000B585B003904548FFF7AAFE03984449E3
:100D4000444A454BFFF7DCFC03984449414A444B75
:100D5000FFF7D6FC039843493E4A434BFFF7D0FCCC
:100D6000039842493B4A424BFFF7CAFC414B009370
:100D700003983749404A0423FFF7D4FC3D4B0093C6
:100D8000039836493D4A0423FFF7CCFC394B0093C6
:100D9000039834493A4A0423FFF7C4FC354B0093C7
:100DA00003983249374A0423FFF7BCFC49F6404315
:100DB000009303982B49344A0423FFF7B3FC49F608
:100DC0004043009303982949304A0423FFF7AAFCC3
:100DD0000123009303981E492D4A0323FFF7B8FC13
:100DE0000123009303981D492A4A0323FFF7B0FC0F
:100DF00003982949FFF75CFC03982849FFF758FC42
:100E000003982749FFF754FC03982649FFF750FC45
:100E100003982549FFF74CFC03982449FFF748FC49
:100E200003982349FFF744FC03982249FFF740FC4D
:100E300003982149FFF73CFC20482149039A0023ED
:100E4000FFF7C4FA05B05DF804FB00BFB8C70000A7
:100E5000CC000010C50A0000D4C70000D800001064
:100E6000DCC70000E4000010E4C70000F000001040
:100E7000ECC7000090D0030032C0092034C0092024
:100E800035C0092037C0092012C0092011C009202F
:100E90000FC0092010C0092030030010B803001053
:100EA000040400108C040010D80400104C0500103D
:100EB000C005001034060010A8060010F817001036
:100EC000910B000000B583B00190019B184605F01E
:100ED000AFF8019B064A1A60019B20331846002197
:100EE00004F000FF019B184603B05DF804FB00BF4F
:100EF000A8D4000000B583B00190019B04331846CC
:100F000003F05EFC019B1833184605F04FF8019B77
:100F100028331846FFF7D6FF019B00221A60019B79
:100F20000022DA66019B184603B05DF804FB00BF9F
:100F300082B001900091019B009A9A6602B07047BE
:100F400000B583B001900091019B1A680B4B1B68A0
:100F50009A4203DB0A4805F0A3F80CE0094B1A6833
:100F6000019B1B689B001344009A1A60019B1B683D
:100F70005A1C019B1A6003B05DF804FBC407001003
:100F8000F4C70000C0070010024BDB6E5A1C014B77
:100F9000DA6670474818001000B585B001900B461E
:100FA0008DF80330019B0393039B1B689B6893F8A8
:100FB0008830012B03D0022B0AD0002B11E09DF8C2
:100FC0000330012B03D10848039900F00FF808E023
:100FD0009DF80330022B03D10348039900F006F873
:100FE00000BF05B05DF804FB4818001000B585B0DF
:100FF00001900091009B1B689B68012283F8B02040
:101000000023039367E0009B1B689A68039B9B0186
:10101000083313440293029B9B69B3F1FF3F00D155
:1010200056E0029B1B7F052B52D801A252F823F0F9
:10103000D110000049100000571000007710000088
:1010400085100000AB100000029B243318460121DC
:10105000FFF7A0F83CE0029BDB6BC3F10102029BAF
:10106000DA63029B03F12402029BDB6B10461946F4
:10107000FFF790F82CE0029B243318460021FFF77D
:1010800089F825E0029B243318460121FFF782F8F6
:1010900004F014FD0246029B1B6A13441A464FF0EB
:1010A00000030298FFF786FA12E0029B24331846E9
:1010B0000021FFF76FF804F001FD0246029B1B6A56
:1010C00013441A464FF000030298FFF773FA00BF6B
:1010D000039B01330393039B012B94DD009B5B680F
:1010E000002B03D0009B5B6800989847019B5B6ACC
:1010F0001846012102F070FB05B05DF804FB00BF4B
:1011000084B00390029101920093029B019A5A606D
:10111000029B009A9A6004B0704700BF00B587B088
:101120000390029101928DF803300023059325E08E
:10113000029B1B689A68059B9B0108331344049328
:10114000049B9B69B3F1FF3F05D0049B9A69019B07
:101150009A4200D00FE0049B24331846019904F012
:10116000DBFF049B9DF803201A77049B089A1A6200
:10117000049B019A9A61059B01330593059B012B02
:10118000D6DD07B05DF804FB00B587B0039002918F
:1011900001928DF80330029B1B689B6893F888309E
:1011A000002B06D0029B1B689B688C33184603F00B
:1011B000D7FE029B1B689B689DF8202083F888203F
:1011C000029B1B689B6898331846019904F092FFB4
:1011D000029B1B689B6803F18C02029B10460199DD
:1011E0001D4A03F085FE029B1B689B6803F1980271
:1011F0009DF803301046194603F0C8FD00238DF812
:1012000017309DF82030012B03D0022B05D0002B86
:1012100007E001238DF8173003E002238DF8173023
:1012200000BF9DF81730002B12D0029B1B689B68F3
:1012300003F18C029DF8173010461946012203F085
:1012400097FE029B1B689B688C33184603F0FCFEDC
:1012500007B05DF804FB00BF990F000000B585B032
:10126000019002F0B7F80246019B5A62019B03F11C
:101270002801019B9B6E1A464FEAE273084610490B
:10128000FFF71AF8019B1833184604F09BFE002361
:1012900003930CE00B4B1A68039B9B0013441B68E1
:1012A0005B681846FFF7C0F8039B01330393019B6B
:1012B0001A68039B9A42EDDC019800F005F8FBE701
:1012C000890F0000C007001000B589B00190019B94
:1012D0001833184604F080FE0790019800F030F8AB
:1012E000019800F061F80198042100F091F801984C
:1012F000079900F045FB0690019B9A6E069B9A4267
:1013000000DC14E00198032100F082F8019B9A6E42
:10131000069BD31A094A82FB03129211DB17D31AD8
:1013200003AA104601211A46FFF7CAF8DFE7019821
:10133000022100F06DF809B05DF804FBD34D621096
:1013400084B001900023039321E0164B1A68039B9D
:101350009B0013441B681B689B68124A1168039A20
:1013600092000A4412681268926892F8B02083F8DA
:10137000B1200C4B1A68039B9B0013441B681B682D
:101380009B68002283F8B020039B01330393054B35
:101390001A68039B9B0013441B68002BD5D104B033
:1013A000704700BFC807001000B585B0019000234A
:1013B000039322E0154B1A68039B9B0013441B68A0
:1013C0005B68503318464FF0FF3103F01FFA0F4BA4
:1013D0001A68039B9B0013441B6800225A750B4B31
:1013E0001A68039B9B0013441B685B6850331846C4
:1013F00003F030FA039B01330393019B1A68039BAC
:101400009A42D7DC05B05DF804FB00BFC0070010AE
:1014100000B58DB001900091009B079300238DF8DB
:101420002F3000238DF82E3000230A937AE07E4B74
:101430001A680A9B9B0013441B68DB680693069B93
:10144000002B00D16BE0009B042B0AD0069B1B688D
:101450001B7A042B05D10423009301238DF82E3031
:1014600066E0714B1A680A9B9B0013441B685B681B
:101470005033184603F0DAF9034683F00103DBB278
:10148000002B03D001238DF82F3048E0664B1A68FB
:101490000A9B9B0013441B68DB681B681B7A1A4677
:1014A000009B1340002B0CBF00230123DBB2002B59
:1014B0002AD05D4B1A680A9B9B0013441B68DB68AB
:1014C0001B681B7A012B0CD1574B1A680A9B9B0097
:1014D00013441B685B7DDBB283F00103DBB2002B9E
:1014E00001D0012300E00023002B0DD001238DF853
:1014F0002F304D4B1A680A9B9B0013441B685B6896
:1015000018460121FEF7CCFF474B1A680A9B9B0047
:1015100013441B685B685033184603F09BF90A9B21
:1015200001330A93019B1A680A9B9A423FF77FAFE7
:101530009DF82E30002B00D071E09DF82F3083F005
:101540000103DBB2002B07D0079A009B9A4202D01E
:10155000079B009363E063E003AB184601214FF063
:10156000FF32FEF7ADFF00238DF8273000230893EC
:1015700045E02D4B1A68089B9B0013441B685B6871
:101580005033184603F052F90346002B31D0264B56
:101590001A68089B9B0013441B68DB68002B16D05D
:1015A000214B1A68089B9B0013441B68DB681B686F
:1015B0001B7A042B0BD11C4B1A68089B9B0013440D
:1015C0001B681B7DDBB2002B01D0012300E0002350
:1015D000002B02D001238DF82730134B1A68089B8B
:1015E0009B0013441B685B685033184603F032F9C4
:1015F00002E001238DF82730089B01330893019BFB
:101600001A68089B9A42B4DC9DF8273083F00103E6
:10161000DBB2002B03D0009B042B00D000E0FDE6E2
:101620000DB05DF804FB00BFC007001000B583B02B
:1016300001900348019900F005F803B05DF804FB40
:101640004818001000B58BB001900091009B9B687A
:101650000993009B1B680893009B5B6850331846F6
:101660004FF0FF3103F0D2F8089B5B68002B03D0EA
:10167000089B5B6808989847099B5B6807930198EB
:101680000099079A00F03EF9009B01229A75009B91
:101690005B685033184603F0DDF8019B5B6A18461F
:1016A000012102F099F8009B02229A7503AB1846BB
:1016B00001214FF0FF32FEF703FF009B01229A75D4
:1016C000009B5B68503318464FF0FF3103F09EF8E3
:1016D0000198009900F026F80690069B002B10D088
:1016E00001980099069A00F09DF8009BDB681B6842
:1016F0001B7A042B14BF00230123DBB2002BE7D19C
:1017000003E0009B00221A7500BF009B5B6850330A
:10171000184603F09FF8019B5B6A1846012102F00E
:101720005BF8C0E700B587B001900091009BDB68D3
:101730000493049B1B685B680393039B002B01D1FC
:10174000002320E00023059315E0059B9B00039AEE
:1017500013441B68019800991A4600F019F80346D3
:10176000002B05D0059B9B00039A13441B680AE0DD
:10177000059B01330593059B9B00039A13441B684B
:10178000002BE2D10023184607B05DF804FB00BF30
:1017900000B587B0039002910192019B1B689B6882
:1017A000002B19D0019B1B689B680593059B1B6848
:1017B0009B6893F8B03083F00103DBB2002B0BD0B1
:1017C000059B1B689B6893F8B13083F00103DBB283
:1017D000002B01D0002321E0019B1B681B69002B1B
:1017E0001BD0039B043318464FF0FF3103F00EF873
:1017F000019B1B681B69984703468DF81330039BB8
:101800000433184603F026F89DF8133083F00103E3
:10181000DBB2002B01D0002300E00123184607B003
:101820005DF804FB00B587B0039002910192029B22
:10183000DB681B681B7A012B14BF00230123DBB27A
:10184000002B02D0029B01225A75029B01221A75BD
:10185000029BDB68039802991A4600F067F8019B27
:101860005B68002B03D0019B5B6801989847019B44
:101870001B685B69002B0FD0039B043318464FF0A5
:10188000FF3102F0C3FF019B1B685B699847039B14
:101890000433184602F0DEFF019B1B689B68002B97
:1018A00011D0019B1B689B680593059B1B685B79A6
:1018B00083F00103DBB2002B05D0059B1B689B68FE
:1018C000002283F8B020019B1B68DB68002B06D048
:1018D000019B1B68DB6803981946FFF787FB019B98
:1018E0009B68002B03D0019B9B6801989847019B44
:1018F0001B685B68039802991A4600F003F807B06A
:101900005DF804FB00B585B0039002910192029B43
:10191000019ADA60019B5B68002B03D0019B5B6836
:101920000198984705B05DF804FB00BF00B585B08D
:10193000039002910192029B0022DA60019B9B6856
:10194000002B03D0019B9B680198984705B05DF878
:1019500004FB00BF84B0039002910192029A019BA4
:101960009A4203DB029A019BD31A05E0029A6FF0B8
:1019700000439B1A019A1344184604B0704700BFF5
:1019800000B583B001900091019B1833184604F014
:1019900023FB034601981946009AFFF7DBFF034635
:1019A000184603B05DF804FB00B583B00190019BBD
:1019B0001B7F042B02D0052B07D00DE0019B2433A5
:1019C00018460021FEF7E6FB06E0019B243318468B
:1019D0000121FEF7DFFB00BF03B05DF804FB00BF91
:1019E00000B583B001900248FFF752F8FEE700BF50
:1019F0000CC8000010B582B00190019B88331846D6
:101A0000FEF700FE019B0833002B0CD0019B03F175
:101A10008804019B08339C4205D0403C23681B6826
:101A200020469847F5E7019B184602B010BD00BF5D
:101A300000B583B00190019B5033184602F018FFA7
:101A4000019B1846FEF758FD019B184603B05DF850
:101A500004FB00BF00B583B00190019B0D4A1A60E2
:101A6000019B0D4A9A64019B0C4ADA64019B48333E
:101A7000184604F003FA019B1846FEF7FBFB00230F
:101A8000002B02D0019804F071FD019B184603B0B1
:101A90005DF804FBF8D3000010D4000044D400002B
:101AA000A0F14C00FFF7D6BFA0F14800FFF7D2BF6E
:101AB00000B583B001900198FFF7CCFF019804F0C6
:101AC00055FD019B184603B05DF804FBA0F14C00E6
:101AD000EEE700BFA0F14800EAE700BF00B583B021
:101AE0000190019B0C4A1A60019B0C4A5A60019BB1
:101AF0004833184604F008F8019B184604F0BEF974
:101B00000023002B02D0019804F030FD019B184601
:101B100003B05DF804FB00BF90CF0000C4CF00000D
:101B2000A0F10400FFF7DABF00B583B0019001987F
:101B3000FFF7D4FF019804F019FD019B184603B08C
:101B40005DF804FBA0F10400EEE700BF00B583B030
:101B50000190019B28331846FEF7C2FB019B04331A
:101B6000184602F085FE019B184603B05DF804FBA1
:101B700000B587B005900491059B012B40F00B81C7
:101B8000049A4FF6FF739A4240F005818348FEF7AE
:101B90003FFD82488249834A04F0ECFC8248FEF70C
:101BA00037FD81487E497F4A04F0E4FC7F48FEF718
:101BB0002FFD7E487A497B4A04F0DCFC7C48FEF726
:101BC00027FD7B487649774A04F0D4FC7948FEF734
:101BD0001FFD78487249734A04F0CCFC7648FEF742
:101BE00017FD75486E496F4A04F0C4FC7348FEF750
:101BF0000FFD72486A496B4A04F0BCFC7048FEF75E
:101C000007FD6F486649674A04F0B4FC6D48FEF76B
:101C1000FFFC6C486249634A04F0ACFC6A48FEF77A
:101C2000F7FC69485E495F4A04F0A4FC6748FEF788
:101C3000EFFC66485A495B4A04F09CFC6448FEF796
:101C4000E7FC63485649574A04F094FC6148FEF7A4
:101C5000DFFC60485249534A04F08CFC5E48FEF7B2
:101C60008DFD5E4A5E4B9A605E4A5F4B9A605F48AC
:101C70005F49FEF7F1FC5D485E494A4A04F07AFC90
:101C80005D485E49FEF7E8FC5B485A49454A04F066
:101C900071FC5B485B49FEF7DFFC59485549414AF6
:101CA00004F068FC58485949FEF7D6FC564851499B
:101CB0003C4A04F05FFC56485649FEF7CDFC5448B8
:101CC0004C49384A04F056FC53485449FEF7C4FCCA
:101CD00051484849334A04F04DFC51485149FEF7F8
:101CE000BBFC4F4843492F4A04F044FC4E484F493F
:101CF000FEF7B2FC4C483F492A4A04F03BFC4C48F2
:101D00004C49FEF7A9FC4A483A49264A04F032FCFD
:101D100049484A49FEF7A0FC47483649214A04F0A1
:101D200029FC47484749484A002303F0FDFF44483F
:101D300046491C4A04F01EFC454802F041FD444857
:101D40004449184A04F016FC434B0093434B01935B
:101D5000434B02930023039342484349434A444B75
:101D600002F0F2FD3F4843490E4A04F003FC4248AA
:101D70004249FEF753FA4248FEF70EFB40484149FC
:101D8000084A04F0F7FB4048FFF7B4F83E483F49E3
:101D9000044A04F0EFFB07B05DF804FB28090010CB
:101DA000F5190000C8000010E0090010980A0010A2
:101DB000500B0010080C0010C00C0010780D001023
:101DC000300E0010E80E0010A00F00105810001088
:101DD00010110010C81100108012001050010010E6
:101DE000D00100105C01001008020010C0120010A9
:101DF00030030010311A000024130010B803001043
:101E00008813001004040010EC1300108C04001060
:101E100050140010D8040010B41400104C05001029
:101E200018150010C00500107C15001034060010B5
:101E3000E0150010A806001044160010A8070010B6
:101E4000D416001002C0092003C00920551A000052
:101E500034170010714800001AC009203EC0092044
:101E60003FC009204817001017C0092018C00920DA
:101E700019C00920DD1A0000E017001040C0092039
:101E8000F8170010F9040000481800104D1B00005E
:101E900008B501204FF6FF71FFF76AFE08BD00BFCD
:101EA0000C4A30B4936894681A46B4F1805F0CD23F
:101EB000094A03F1C40553F8044BAB4242F8044FFE
:101EC000F9D1044B4FF080529A60103042F8201044
:101ED00030BC704700ED00E0FCFFFF0F2B4A2023D1
:101EE00070B4C2F8A031D2F8A031980645D4274B7F
:101EF000022100250124AA2055220B26C3F8041133
:101F0000C3F8A8511946C3F8AC51C3F80C41C3F843
:101F10008460C3F88C00C3F88C20C3F88040C3F8F9
:101F20008C00C3F88C20D1F88830184A5B01FAD5B0
:101F30000321AA205523C2F88010C2F88C00114654
:101F4000C2F88C30D1F88830104A13F0407FF9D0B5
:101F50000F4900230520C2F80801C2F8C410C2F8D6
:101F6000C831136870BC23F4704323F03A0343F480
:101F7000405343F03A0313607047D2F8A03159063A
:101F8000B5D4D2F8A0315906F7D5B0E700C00F405C
:101F9000DE87280400B599B072B63B49684604F064
:101FA000BBF806A8394904F0B7F80CA8384904F082
:101FB000B3F812A8374904F0AFF832E00699039B52
:101FC000019A01311A6059D00C990A9B079A013184
:101FD0001A604DD01299109B0D9A01311A6041D0B0
:101FE000159B139A96201A6004F0F8F9009B0133B0
:101FF00032D00699049B019A01311A6026D00C99BF
:10200000099B079A01311A601AD012990F9B0D9AF9
:1020100001311A600ED0169B139A96201A6004F0B4
:10202000DDF9009B0133C9D11B481C49242204F06F
:1020300021F8C3E718481949242204F01BF8EAE7FD
:1020400015481649242204F015F8DEE71248134912
:10205000242204F00FF8D2E70F481049242204F09C
:1020600009F8C6E70C480D49242204F003F8B7E745
:1020700009480A49242203F0FDFFABE70648074957
:10208000242203F0F7FF9FE732C0092034C0092063
:1020900035C0092037C0092004CE00001CCE000046
:1020A000036870B51B690021012204469847431C50
:1020B00005460ED0236820461B690021022298475E
:1020C0002368064629461B69204600229847304669
:1020D00070BD70BD084A094B10B4026003F58071F1
:1020E000002453F8042B824208BF43F8044C8B426F
:1020F000F7D15DF8044B7047A8CE0000B818001067
:102100000A4A0B4B10B503F58071044602600020AB
:1021100053F8042B944208BF43F8040C8B42F7D1C8
:10212000204604F023FA204610BD00BFA8CE0000D0
:10213000B818001002480349034A03F0ADBB00BFC2
:102140007827001002C0092003C00920F0B50E4610
:1021500085B03549054605F002F920B9334B1B68B7
:1021600063B105B0F0BD2846314905F0F8F878B9FB
:102170002E4B1B6843B1012005B0F0BD0190FFF765
:10218000D9FF019805B0F0BDFFF7D4FF0120E8E7C3
:102190002846284905F0E3F810B3274B002402E055
:1021A0000134402C21D053F8040F0028F8D12B78AB
:1021B0003A2B32D0294602A803F03CFD02A803F0D6
:1021C0008BFD90B102A803F06FFD88B102A803F067
:1021D00075FD03464BB1194AE01C42F82430C0E7B4
:1021E000124B1B68ABB10220BBE74FF0FF30B8E7E2
:1021F00002A803F04DFD05460028F6D0036802A8AA
:102200009F6803F043FD324601462846B84703461F
:10221000E0E7FFF78FFF0220A3E72846084902AA5C
:1022200005F02EF8029BD5E784CE0000E4250010CF
:1022300094CE00008CCE0000B4180010B818001026
:10224000D0CE0000022808B50BDD084BC21E53F8A3
:102250002200002143F8221028B103685B689847E8
:1022600008BD002008BD4FF0FF3008BDB8180010B1
:10227000022870B50C4616460FDC0E4B1B680BB9D6
:10228000FFF758FFA51936B114F8011B0A4803F0EF
:1022900053FAAC42F8D1304670BD084B033853F8BE
:1022A000200018B103681B68984770BD4FF0FF30DD
:1022B00070BD00BFE425001078270010B81800108A
:1022C000022810B50C4609DC0D4B1B688BB10D487C
:1022D00003F0D6F901232070184610BD0A4B0338CD
:1022E00053F8200040B103689B689847034618469E
:1022F00010BDFFF71FFFEAE74FF0FF33ECE700BF29
:10230000E425001078270010B8180010022808B53E
:1023100008DD074B033853F8200028B10368DB6859
:10232000984708BD012008BD4FF0FF3008BD00BF31
:10233000B8180010022808B508DD074B033853F819
:10234000200028B103681B69984708BD002008BD1C
:102350004FF0FF3008BD00BFB8180010022808B5C4
:1023600004D84FF400534B60002008BD04F028F956
:10237000092303604FF0FF3008BD00BF08B50120FE
:1023800003F0A0FE074A13681844EFF3088188425F
:1023900002D2106018467047034B0C221A604FF0AF
:1023A000FF307047D0070010802700100649074A09
:1023B000074B9A42BEBF51F8040B42F8040BF8E7F2
:1023C0000448804704480047ECD80000C8000010CB
:1023D00008090010DD1E000021010000FEE7FEE7F5
:1023E000FEE7FEE7FEE7FEE7FEE7FEE7FEE7FEE7C5
:1023F00080F309887047EFF309807047684680F3DF
:10240000098841480078C00714BF0220032080F3E8
:1024100014887047DFF8F4C0EFF305831B0618BF7C
:102420006047EFF31483DB0708BF604700DF7047A6
:10243000DFF8DCC0EFF305831B0618BF6047EFF33E
:102440001483DB0708BF604700DF7047EFF30980A4
:10245000816911F8021CF9B990E80F10E047EFF319
:10246000098C8CE807002B4B93E80600914200F0A2
:10247000108039B12CE9F00FC1F824C00CB400F081
:1024800095FD0CBC1A60D2F824C0BCE8F00F8CF3A8
:1024900009886FF0020E704710B51F4A126891420A
:1024A00000F20A801D4C54F8214090E80F10A0471C
:1024B000EFF3098C8CE80F0010BD00F0E3FC154B26
:1024C00093E80600914200F01180EFF3098C2CE9AB
:1024D000F00FC1F824C00CB400F068FD0CBC1A6009
:1024E000D2F824C0BCE8F00F8CF309886FF0020E1C
:1024F000704700F035FDFFF7E2BF00F02FFD00F060
:102500002FFDFFF7DCBF0000E8CE0000AD29000082
:10251000E5290000B819001000000000FCFFFFFFD3
:1025200084B01A4B194A126842F47F021A60174BA2
:102530001B681B0203F07F43DB430193019BB3FA4B
:1025400083F38DF803309DF80330C3F10803039340
:102550000F4B1B681B0A03F007030293029A039BAD
:102560009A4202DB029B013303930A4B6FF08071A6
:10257000039A01FA02F202F07F41064A126822F041
:102580007F420A431A6004B0704700BF20ED00E0AC
:102590000CED00E01CED00E082B0012301930BE0A4
:1025A000019B5A1E094B53F82230002B01D1019B8D
:1025B00009E0019B01330193054B1B881A46019BDF
:1025C0009A42EDD20023184602B07047881C0010D2
:1025D000DECE000000B585B003900B4601928DF869
:1025E0000B30039B00221A70039B01225A70039B3D
:1025F0009DF80B209A70039B00225A60039B0022D7
:102600009A60039B0022DA60039B00221A61039BFD
:1026100000229A82039B0022DA82039B00221A8303
:10262000039B00225A83039B002283F820200398F7
:10263000019902F053F805B05DF804FB82B00190F7
:10264000034B019A5A60019B02225A7002B07047F4
:10265000B819001000B583B00190019B002B07D181
:10266000124801F095FE01900198FFF7E7FF1AE08C
:10267000019B9A780E4B1B689B789A420CD90C4BA5
:102680001B68184601F0B0FE094B1B6801225A7006
:102690000198FFF7D3FF06E0019B01225A7003481F
:1026A000019901F035FE03B05DF804FBF024001041
:1026B000B819001000B585B002460B46ADF80620EB
:1026C0008DF80530BDF80630002B19D0BDF8062076
:1026D0004FF6FF739A4207D00B4B1A68BDF80630CD
:1026E0001046194601F0B6FE074B1B689DF8052001
:1026F0005A70064801F04CFE03900398FFF79EFFC6
:1027000005B05DF804FB00BFB8190010F0240010FC
:10271000054B1B68002B01D1002302E0024B1B6814
:10272000DB781846704700BFB819001000B585B0B7
:1027300001900B468DF80330019B002B1AD1264BDC
:102740001B689DF803209A70244B5B689B789DF86A
:1027500003209A420CD2204B1B682048194601F0F6
:10276000D7FD1D4B1B6801225A700020FFF772FF36
:1027700000232DE01A4B1B881A46019B9A4206D370
:10278000019B5A1E174B53F82230002B01D1FF2317
:102790001EE0019B5A1E134B53F822300393039BF8
:1027A0009DF803209A700C4B1A68039B9A4200D143
:1027B000CAE7039801F028FE039B5B78012B06D142
:1027C000064801F0E5FD03900398FFF743FF00235F
:1027D000184605B05DF804FBB8190010F02400108D
:1027E000DECE0000881C001010B584B00190019B63
:1027F000002B06D0264B1B68DB781A46019B9A42B9
:102800001ED1234B1B6800225A70214B1C68FFF716
:10281000F2FD0346636200F0C9FB1D4B1B68DB78C9
:102820005A1E1C4B002143F82210194B1B68002232
:102830009A62174B00221A600020FFF70BFF23E07B
:10284000154B1B881A46019B9A4206D3019B5A1EC0
:10285000104B53F82230002B01D1FF2315E0019BD0
:102860005A1E0C4B53F822300393039801F0B6FE26
:10287000039801F0E1FE019B5A1E064B002143F82C
:102880002210039B00229A620023184604B010BD58
:10289000B8190010881C0010DECE000000B583B00F
:1028A0000023019307E0234B019A002143F82210F3
:1028B000019B01330193204B1B881A46019B9A42CE
:1028C000F1D81E4BFF22DA701D4B1A881B4B5A841D
:1028D0001A4B1C4A9A62194800211B4AFFF77AFEDC
:1028E0001A4B04221A70194B00225A60184B04220A
:1028F0001A70174B0022DA60154B00221A61144B34
:1029000000229A82134B0D4A1A60124B1B68022256
:102910005A70114B00221A700F4B00225A700E4B46
:102920000E4A1278DA7000F083F8FFF7F9FD03B071
:102930005DF804FB881C0010DECE0000C0190010FA
:10294000F0CE0000041A0010953F0000F0240010A3
:1029500008250010B8190010041C0010F2CE000069
:1029600008B500F0F3FA02460F4B1A600E4B1B68D5
:10297000002B17DB0C4B1B6803F1604303F564432A
:10298000FF221A70084B1B685B119B0003F1604328
:1029900003F56143044A126802F01F02012101FAA3
:1029A00002F21A6008BD00BFF819001086B001904D
:1029B000EFF31083039372B6039B03F001030593B7
:1029C000019B1B680493049B002B03D0049B1A6893
:1029D000019B1A60059B002B00D162B6049B184630
:1029E00006B0704784B001900091009A019B9A4212
:1029F00004D3019B5A68009B9A4201D8012313E03B
:102A0000EFF31083029372B6029B03F0010303936A
:102A1000019B1A68009B1A60019B009A1A60039B35
:102A2000002B00D162B60023184604B0704700BFE7
:102A3000044B00221A60044B1B689AB2014BDA80E7
:102A4000704700BFF0190010E0CE000000B583B061
:102A5000144B1A68144B5B689A420ED0124B5A689A
:102A6000104B1A60114B1B689AB20E4BDB88134453
:102A70009BB2013B9AB20B4B9A800A4B9A880B4B44
:102A80001B689BB29A420AD1064B00221A60064884
:102A900001F07EFC01900448019901F039FC03B07B
:102AA0005DF804FBF0190010F0240010EC24001075
:102AB00084B001900B46ADF80230019B0393039B59
:102AC00001221A70039B00225A70039B00229A7005
:102AD000039B00225A60039B00221A81039B002261
:102AE0005A81039B00229A81BDF80230103B9B085B
:102AF0009AB2039BDA8104B0704700BF00B589B079
:102B0000039002911346ADF80630039B0793079B91
:102B10009B89002B53D0079B5B891A46079B043285
:102B200053F82220029B1A60079B5B8901339AB2FB
:102B3000079B5A81079B5A89079BDB899A4202D1DE
:102B4000079B00225A81079B5B68002B2AD0079BBA
:102B50005B78022B26D1079801F01AFC06900698A4
:102B6000002101F00BFE079B1B891A46069BD969C1
:102B7000079B043243F82210079B1B8901339AB24A
:102B8000079B1A81079B1A89079BDB899A4202D10E
:102B9000079B00221A81069801F04EFD0698FFF768
:102BA00059FD0AE0EFF31083059372B6079B9B89EA
:102BB000013B9AB2079B9A8162B6002326E0BDF8DA
:102BC0000630002B01D1012320E0079B5B68002B1E
:102BD00006D0104B1B680798194601F099FB0EE0D0
:102BE0000C4B1A68079B5A600A4B1B6800225A60FC
:102BF000084B1B68079A9A60079B01225A70BDF820
:102C0000063018460821FFF755FD0123184609B084
:102C10005DF804FBB819001084B00190019B039388
:102C2000039BDB891A46039B9B89D31A184604B081
:102C3000704700BF00B585B001900091019B0393E0
:102C4000009B0398194601F01FFD00F007F905B03D
:102C50005DF804FB00B585B001900091019B0393E2
:102C6000039B9B89002B2ED0039B5B891A46039BF9
:102C7000043253F82220009B1A60039B5B78022BDE
:102C800005D10398002101F0FFFC00F0E7F8EFF315
:102C90001083029372B6039B9B89013B9AB2039BFC
:102CA0009A8162B6039B5B8901339AB2039B5A8176
:102CB000039B5A89039BDB899A4202D1039B002222
:102CC0005A81042300E00023184605B05DF804FB98
:102CD00000B587B001900091019B5B68002B70D01C
:102CE000019B5B78022B20D0032B02D0012B52D00A
:102CF00093E00098FFF75AFE0590059B002B00D14A
:102D00005EE0019801F044FB0490059B049819468D
:102D100001F034FD049B01225A70049801F08CFCF0
:102D20003F48049901F0F4FA4AE0019801F030FBC1
:102D300004900498002101F021FD019B1B891A4693
:102D4000049BD969019B043243F82210EFF31083EE
:102D5000039372B6019B9B8901339AB2019B9A81BE
:102D600062B6019B1B8901339AB2019B1A81019BB8
:102D70001A89019BDB899A4202D1019B00221A81A8
:102D8000049B01225A70049801F056FC24480499CF
:102D900001F0BEFA14E0019801F0FAFA0490009BE9
:102DA000049810211A4601F0F7FC049B01225A7086
:102DB000049801F041FC1A48049901F0A9FA00BFF7
:102DC0002BE0019B9A89019BDB899A4222D2019BCD
:102DD0001B891A46019B0432009943F82210EFF335
:102DE0001083029372B6019B9B8901339AB2019BB7
:102DF0009A8162B6019B1B8901339AB2019B1A81A9
:102E0000019B1A89019BDB899A4206D1019B002212
:102E10001A8102E0032001F0BFF807B05DF804FB5F
:102E2000F0240010084B094A12681A60084B00226F
:102E30001A60084B07221A60074B074A126842F0D3
:102E40007F421A60704700BF14E000E0E4CE00004B
:102E500018E000E010E000E020ED00E0064B1B78F9
:102E6000DBB2002B04D1054B4FF080521A6002E018
:102E7000034B01221A707047FC19001004ED00E0AA
:102E8000FD19001000B585B02C4B1B6801225A704B
:102E90002A4B1B68184601F0A7FA294B5B7803936D
:102EA00039E0274A039BDB0013445B680293029BD3
:102EB0001B78002B0AD1224A039BDB0013449B683A
:102EC0009BB20298194600F0E7FF10E0029B1B78C6
:102ED000012B09D11A4A039BDB0013449B6802981B
:102EE0001946FFF7F5FE02E0029801F02DF8039B6A
:102EF00001330393124BDB78039A9A4201D10023EA
:102F00000393EFF31083009372B60E4B1A78013AD5
:102F1000D2B21A7062B60A4B9B78002BC1D1084B13
:102F2000039AD2B25A70084801F032FA019001981F
:102F3000FFF784FB05B05DF804FB00BFB819001073
:102F4000041C0010061C0010F024001008B5FFF748
:102F500069FF4FF0FF33184608BD00BF704700BF40
:102F600000B583B00E4B1B6801225A700C4B1B68D6
:102F7000184601F039FAFFF769FD0A4B1B685A1C25
:102F8000084B1A6001F0C6FA00F0FCFA064801F09E
:102F9000FFF901900198FFF751FB03B05DF804FBC6
:102FA000B8190010EC240010F024001008B50C4BE8
:102FB0001B68DB78012B11D0094B1B685A6A084B40
:102FC0001B689B6A9A4206D3054B1B689B6A1A686A
:102FD000044B9A4202D0012000F0DEFF08BD00BF82
:102FE000B8190010A52E5AE284B00190019BB3F1EC
:102FF000FF3F02D14FF6FF731DE0019A0F4B9A423B
:1030000002D94FF6FE7316E0019B4FF47A7202FB71
:1030100003F20B4B1B6813445A1E094B1B68B2FB8F
:10302000F3F30393039A4FF6FE739A4202D94FF6D5
:10303000FE7300E0039B184604B0704700093D0092
:10304000ECCE000084B00190019B002B01D1002345
:103050000FE0019B03F00303002B01D0002308E0E5
:10306000019B0393039B1B78002B01D0002300E0FE
:10307000039B184604B0704782B00190019B03F097
:103080000303002B01D0002300E0019B184602B08F
:10309000704700BF08B50A4B1B78002B01D00023F6
:1030A0000CE0FFF7FBFB074B1B68FF229A70002028
:1030B00000F07AFF024B01221A700023184608BD67
:1030C000FE190010B819001000B583B0164B1B781C
:1030D000002B01D0002322E01448002100F0D0FC96
:1030E0000246134B1A601348002100F0ABF8024669
:1030F000114B1A6000200021FFF718FB0F4B1B68D3
:103100005B6A20330193019B83F309880B4B0022F8
:103110001A60FFF725FC044B01221A7000231846A1
:1031200003B05DF804FB00BFFF1900101408001085
:10313000E8240010D4070010C4240010B8190010AF
:1031400010B582B0EFF305840194019C002C01D0EE
:1031500082230FE0EFF314840094009C04F0010438
:10316000002C03D1FFF796FF034603E0DFF80CC005
:1031700000DF0346184602B010BD00009530000085
:1031800010B58EB0EFF305840D940D9C002C01D08A
:1031900082234FE0EFF314840C940C9C04F003049E
:1031A000032C43D80FF2040C5CF824F0BD3100006E
:1031B000F5310000F93100001B3200006C4620346C
:1031C0000B940B9C84F309881C4C247804F00104B4
:1031D000002C05D002240A940A9C84F3148804E08D
:1031E00003240994099C84F31488BFF34F8FBFF321
:1031F0006F8F1BE0FF231DE0104C247804F00104C6
:10320000002C09D103240894089C84F31488BFF38C
:103210004F8FBFF36F8F09E008E0084C247804F06B
:103220000104002C01D0FF2304E000BFDFF810C030
:1032300000DF034618460EB010BD00BFE8CE000008
:10324000C930000000B587B001900091019B002BB0
:1032500016D0019B1B68002B12D0019B9B881BB2D0
:1032600013F1030F0CDB019B9B881BB2032B07DCC4
:10327000019B9B68002B03D0019BDB68002B04D1D2
:10328000802000F091FE002339E0019B9B88DBB297
:1032900004338DF81730019B10330493019BDA68D7
:1032A000049B9A62019B9B689AB2049B5A84049B7C
:1032B000009ADA61019B1B689DF81720049811465B
:1032C0001A46FFF787F9FFF767F90390039B5A1E29
:1032D0000D4B049943F82210039BDAB2049BDA7079
:1032E0000498FFF7B7F9039B5A1E074B53F8223097
:1032F0000293029B5B6A3433044A1A60029B1846AD
:1033000007B05DF804FB00BF881C00102D340000DE
:1033100000B583B0FFF7FCF90190019B002B01D1B0
:10332000002304E0019B5A1E034B53F82230184639
:1033300003B05DF804FB00BF881C001000B585B029
:1033400001900198FFF77EFE0390039B002B01D1B3
:1033500080230BE0039BDB781846FFF745FA0290C9
:10336000029BFF2B01D1812300E00023184605B00A
:103370005DF804FB00B587B001900091EFF3058183
:1033800005910599002901D000231BE0EFF314817A
:103390000491049901F00101002909D10B49097830
:1033A000002905D101980099FFF74CFF034609E079
:1033B000019903910099029103980299DFF810C0D6
:1033C00000DF0346184607B05DF804FBFF19001044
:1033D0004532000010B582B0EFF305840194019CE2
:1033E000002C01D0002303E0DFF80CC000DF03460F
:1033F000184602B010BD00001133000000B585B0C2
:103400000190EFF3058003900398002801D08223F8
:1034100006E0019802900298DFF80CC000DF034636
:10342000184605B05DF804FB3D33000000B583B0DD
:10343000DFF810C000DF01900198DFF80CC000DF5A
:10344000FEE70000113300003D33000000B583B0FB
:103450000190019B002B01D1002308E00198FFF7A8
:10346000C3FD03469BB2184600F0D4FD4023184626
:1034700003B05DF804FB00BF00B585B00190EFF329
:10348000058003900398002801D0822306E001986C
:1034900002900298DFF80CC000DF0346184605B022
:1034A0005DF804FB4D34000084B0019000910023CE
:1034B00002931B4B1B68039310E0039B1B891A4666
:1034C000009B9A4200D90CE0039B1B89009AD31AF7
:1034D0000093039B0293039B1B680393039B002BA6
:1034E000EBD1019B039A1A60009B9AB2019B1A814F
:1034F000039B002B07D0039B1A89019B1B89D31ABE
:103500009AB2039B1A81029B002B03D0029B019A63
:103510001A6002E0024B019A1A6004B0704700BFC3
:10352000001A001000B587B001900198FFF7A4FDC4
:103530000590059B002B0ED10023039300230493D9
:10354000039B1846049B19464FF000024FF00003FE
:1035500002460B4610E0059B1B691B680393059B05
:10356000DB680493039B1846049B19464FF0000246
:103570004FF0000302460B461046194607B05DF8AF
:1035800004FB00BF00B583B01A4B1B680193019B7D
:10359000002B00D12BE0019B1B89013B9AB2019BC0
:1035A0001A811DE0019B0093019B1B680193114B45
:1035B000019A1A60104B1A68009B104619460022A7
:1035C00000F0FAFA009B5B79012B06D1009B5B8926
:1035D00000981946FFF768FF02E0009B01221A716C
:1035E000019B002B03D0019B1B89002BDAD003B079
:1035F0005DF804FB001A0010E824001000B585B047
:1036000001900091009803900398DFF81CC000DF40
:103610000B461A46019B1860019B5A6000BF019837
:1036200005B05DF804FB00002535000000B589B049
:1036300001900D4B1B6803AA104619464FF0FF324C
:1036400000F01CFB039B102B0DD1049B06AA104617
:103650001946FFF7D3FF069B002B04D0069B079A61
:1036600010469847E5E7E4E7E824001000B585B088
:10367000019000910198FFF7E5FC0390039B002B5C
:1036800002D14FF0004313E0009B1B0C1B04002BE6
:1036900002D04FF000430BE0039B1B8B0293009B77
:1036A0009AB2039BDB781046194600F077FB029B29
:1036B000184605B05DF804FB2DE9F04387B0019092
:1036C0000091019B1B0C1B04002B0ED08623029340
:1036D000029B002600274FF000084FF000091E460D
:1036E00032463B4644464D4642E0019B002B0DD0FE
:1036F000019B9CB20098FFF777FC03469BB22046E3
:103700001946012200F0E6FA05900BE00098FFF759
:103710006BFC03469BB24FF6FF701946002200F087
:10372000D9FA0590059B022B0BD108230293019B2C
:10373000002B03D1144B1B685B8B00E0019B0393B0
:1037400008E0009B002B01D0402300E000230293FF
:1037500000230393029A039B002600274FF00008E2
:103760004FF0000916461F4632463B4644464D463A
:1037700016461F46A046A9463046394642464B46A5
:1037800007B0BDE8F08300BFB819001000B585B0E0
:10379000019000910198FFF755FC0390039B002BCB
:1037A00002D14FF0004313E0009B1B0C1B04002BC5
:1037B00002D04FF000430BE0039B1B8B0293009B56
:1037C0009AB2039BDB781046194600F047FB029B38
:1037D000184605B05DF804FB00B587B00190009174
:1037E000EFF3058105910599002905D0019800990D
:1037F000FFF7CCFF034609E001990491009903917A
:1038000004980399DFF80CC000DF0346184607B0A0
:103810005DF804FB6D36000000B58BB0039002919B
:103820000192EFF3058109910999002907D08223BC
:103830000493039B04AA07CA83E8070013E00299D4
:1038400008910199079108980799DFF824C000DFD3
:103850000346184613461A46039B1860039B59609B
:10386000039B9A6000BF03980BB05DF804FB000057
:10387000B936000000B585B00190019B002B04D142
:10388000802000F091FB002317E0019B1B6803934D
:10389000039B002B04D1802000F086FB00230CE06A
:1038A000039B1B78002B04D0802000F07DFB0023BD
:1038B00003E0039800F0BCFB039B184605B05DF8DD
:1038C00004FB00BF00B585B0019000910198FFF79F
:1038D000D3FB0390039B002B01D180231AE0039BB1
:1038E0001B78032B01D0802314E00098FFF77CFBAA
:1038F00003469BB20398194600F080FC0290029B9D
:10390000012B06D1009B002B01D0C12300E08123B5
:1039100000E00023184605B05DF804FB00B585B053
:1039200001900198FFF7A8FB0390039B002B01D1A6
:1039300080230FE0039B1B78032B01D0802309E039
:10394000039800F0E1FB0290029BFF2B01D1812341
:1039500000E00023184605B05DF804FB00B585B013
:1039600001900198FFF788FB0390039B002B01D186
:10397000802309E0039B1B78032B01D0802303E005
:10398000039800F06BFB0023184605B05DF804FBBC
:1039900000B587B00190EFF30580059005980028E9
:1039A00001D0002317E0EFF314800490049800F096
:1039B0000100002808D10A480078002804D10198A5
:1039C000FFF758FF034606E0019803900398DFF8DD
:1039D00014C000DF0346184607B05DF804FB00BFC3
:1039E000FF1900107538000000B587B001900091F4
:1039F000EFF3058105910599002901D0822309E0A3
:103A0000019904910099039104980399DFF80CC07F
:103A100000DF0346184607B05DF804FBC538000018
:103A200000B585B00190EFF305800390039800285E
:103A300001D0822306E0019802900298DFF80CC0C2
:103A400000DF0346184605B05DF804FB1D39000091
:103A500000B585B00190EFF305800390039800282E
:103A600001D0822306E0019802900298DFF80CC092
:103A700000DF0346184605B05DF804FB5D39000021
:103A800000B583B001900091019B002B07D0019BF2
:103A90001B68002B03D0019B5B68002B04D18020A6
:103AA00000F082FA002317E0019B5B681B78002B73
:103AB00004D0802000F078FA00230DE0019B5A68C2
:103AC000019B1B6804339BB29B009BB210461946B6
:103AD000FEF7EEFF019B5B68184603B05DF804FB40
:103AE0002DE9F04387B001900091019B002B0ED18E
:103AF00080230293029B002600274FF000084FF01E
:103B000000091E4632463B4644464D4648E0019B6E
:103B10001B78012B0ED080230293029B00260027E6
:103B20004FF000084FF000091E4632463B4644461F
:103B30004D4635E00098FFF757FA03469BB202AABC
:103B40000432019811461A46FEF7D8FF0590059BEE
:103B5000012B15D1009B002B01D0402300E0002356
:103B60000293029A039B002600274FF000084FF0B3
:103B7000000916461F4632463B4644464D460FE076
:103B800010230293029A039B002600274FF000089F
:103B90004FF0000916461F4632463B4644464D4606
:103BA00016461F46A046A9463046394642464B4671
:103BB00007B0BDE8F08300BF00B585B00390029167
:103BC0000192039B002B02D0019B002B01D080238C
:103BD00013E0039B1B78012B01D080230DE0039899
:103BE000FFF71AF80346002B01D1812305E0029B61
:103BF00003981946FFF71EF80023184605B05DF834
:103C000004FB00BF00B589B0039002910192029BB2
:103C1000002B02D0019B002B07D080230493039B31
:103C200004AA07CA83E8070024E0029B1B78012B43
:103C300007D080230493039B04AA07CA83E80700E4
:103C400018E004AB043302981946FFF703F8079015
:103C5000079B042B07D000230493039B04AA07CAE5
:103C600083E8070006E010230493039B04AA07CA15
:103C700083E80700039809B05DF804FB00B589B03C
:103C8000039002910192EFF30581079107990029B2
:103C900006D0039B18460299019AFFF7B3FF13E081
:103CA000029906910199059106980599DFF820C0BF
:103CB00000DF0346184613461A46039B1860039B11
:103CC0005960039B9A6000BF039809B05DF804FB3C
:103CD000E13A000000B585B00B4600920246ADF80F
:103CE0000620ADF80430009B002B1DD02A4B1B682A
:103CF0001A8BBDF8063013409BB2BDF806209A42DD
:103D00000FD1254B1B68244A1268128B91B2BDF863
:103D10000620D24392B20A4092B292B21A83022390
:103D200035E00623039324E01B4B1B681A8BBDF878
:103D3000063013409BB2002B19D0174B1B68164A54
:103D40001268118BBDF806200A4092B25A83124BBA
:103D50001B68114A1268128B91B2BDF80620D2433B
:103D600092B20A4092B292B21A8302230FE0052364
:103D70000393094B1B68BDF806205A83039BDBB2F3
:103D8000BDF8042010461946FEF794FC012318469E
:103D900005B05DF804FB00BFB819001000B585B090
:103DA00003460091ADF80630009B5A1E2A4B53F88B
:103DB00022300393039B002B00D14AE0039B1A8B14
:103DC000BDF8063013439AB2039B1A83039B5B8BA7
:103DD000ADF80630039B5B78062B0AD1039B1A8B48
:103DE000BDF8063013409BB2BDF806209A4200D1C0
:103DF00013E0039B5B78052B2BD1039B1A8BBDF83B
:103E0000063013409BB2002B23D0039B5A8B039B9D
:103E10001B8B13409AB2039B5A83039B1B8B9AB252
:103E2000BDF80630DB439BB213409BB29AB2039BB2
:103E30001A83039800F000FC039B01225A70039B35
:103E40005B8B039808211A4600F0A6FC0398FEF746
:103E500001FC05B05DF804FB881C001000B585B0BE
:103E600003460091ADF80630009B5A1E094B53F8EB
:103E700022300393039B002B00D107E0BDF80630EE
:103E80000398194600F000FCFEF7E8FF05B05DF866
:103E900004FB00BF881C001000B585B001900B46E4
:103EA000ADF80230019B1A8BBDF8023013439AB271
:103EB000019B1A83019B5B8BADF80E30019B5B78F5
:103EC000062B0AD1019B1A8BBDF80E3013409BB212
:103ED000BDF80E209A4200D113E0019B5B78052BC0
:103EE0002CD1019B1A8BBDF80E3013409BB2002BD6
:103EF00024D0019B5A8B019B1B8B13409AB2019BD0
:103F00005A83019B1B8B9AB2BDF80E30DB439BB2E8
:103F100013409BB29AB2019B1A83019800F08CFB6C
:103F2000019B01225A70019B5B8B019808211A4664
:103F300000F032FC0348019900F0EAF905B05DF8A1
:103F400004FB00BFF024001000B585B00190019B78
:103F50005B68002B12D0019800F01AFA03900398C6
:103F600000F06AFB039B01225A700398012100F0C4
:103F700005FC0748039900F0CBF905E0019B5B883D
:103F800001339AB2019B5A8005B05DF804FB00BF73
:103F9000F0240010FEE700BF00B583B00190FDF7EC
:103FA000F9FF03B05DF804FB00B583B00190019BFD
:103FB000002B01D0FDF7EEFF03B05DF804FB00BF5E
:103FC0000449054AC1F1805303F5F8439360D16079
:103FD000704700BF882700101C0800100020002137
:103FE00004460D46094802F0D5FA02F039FE204693
:103FF0002946FFF7A5F8FFF7E3FF05480021FFF783
:10400000B9F9FFF7BDF802F05DF80000E9690000BA
:104010001C08001000B583B00346ADF80630BDF8AB
:10402000063018460321FEF745FB03B05DF804FB9C
:1040300084B00190019B0393039B03221A70039B9E
:1040400000225A70039B00225A80039B00225A6070
:10405000039B00229A6004B0704700BF00B585B092
:104060000190019B0393039B5B88002B10D0039B63
:104070009B68039A52789A70039B9A68204B1B683E
:104080009A4205D0039B9B68184600F0BDF912E0E8
:1040900011E0039800F07CF902900298002100F0F2
:1040A0006DFB029800F0C8FA029B01225A70154875
:1040B000029900F02DF9039B5B68002BE9D1114BAD
:1040C0005B68002B14D00F4B5B689A780C4B1B6815
:1040D0009B789A420CD90A4B1B680A48194600F093
:1040E00017F9074B1B6801225A700020FEF7B2FA3D
:1040F000039B00221A700023184605B05DF804FBEC
:10410000B8190010F024001000B585B00190019B93
:104110000393039B5B88002B05D0039B9A68354B68
:104120001B689A4201D0FF2360E0039B5B88013B40
:104130009AB2039B5A80039B5B88002B01D000231B
:1041400054E02C4B1B68039A52789A70039B5B686F
:10415000002B35D0039800F01BF902900298002143
:1041600000F00CFB029800F067FA039B01225A80D2
:10417000039B029A9A60029B9A78039B5A701D4B8C
:104180001B689A781C4B5B689B789A4203D3029811
:10419000FEF760FA29E0174B1B681748194600F034
:1041A000B7F81548029900F0B3F8124B1B680122CA
:1041B0005A70029B01225A700020FEF74BFA14E05D
:1041C0000D4B5B689A780B4B1B689B789A420CD915
:1041D000084B1B680848194600F09AF8054B1B6805
:1041E00001225A700020FEF735FA0023184605B068
:1041F0005DF804FBB8190010F024001000B585B07C
:1042000001900B46ADF80230019B0393039B5B8842
:10421000002B09D1284B1A68039B9A60264B1B6818
:104220009A78039B5A7005E0039B9A68224B1B689F
:104230009A4207D1039B5B8801339AB2039B5A8051
:10424000002335E0BDF80230002B01D101232FE01F
:10425000039B5A78184B1B689B789A420AD2039B9F
:104260009B68154A126892789A70039B9B6818465F
:1042700000F0CAF8039B5B68002B06D00E4B1B684E
:104280000398194600F044F80BE00B4B1A68039BA7
:104290005A60094B1B6800225A60074B1B68039A3F
:1042A0009A60BDF8023018460921FEF703FA01238F
:1042B000184605B05DF804FBB819001088B00390EB
:1042C00002910192EFF31083059372B6029B1B7863
:1042D0000793079A039B9A4215D2079BDBB20133DF
:1042E000DAB2029B1A70019B1B780793079B01337C
:1042F0000693069A039B9A4201D100230693069BDC
:10430000DAB2019B1A7062B6079B184608B0704774
:1043100086B00190009100230493019B1B78022B2F
:1043200007D0019B1B78012B03D0019B1B78032B2B
:1043300001D101230493009B9B780393019B5B684D
:10434000059304E0059B0193059B5B680593059B22
:10435000002B05D0059B9B781A46039B9A42F1D20D
:10436000009B059A5A60019B009A5A60049B002B9F
:1043700009D0059B002B02D0059B009A9A60009BF8
:10438000019A9A6002E0009B00229A6006B0704792
:1043900084B00190019B5B680393039B5A68019B67
:1043A0005A60019B1B78022B07D0019B1B78012BC5
:1043B00003D0019B1B78032B0ED1039B5B68002B62
:1043C00006D0039B5B68019A9A60039B00225A60A7
:1043D000039B00229A6002E0039B00225A60039B29
:1043E000184604B0704700BF82B00190054B5A6870
:1043F000019B5A60019B00229A60024B019A5A600D
:1044000002B07047F024001000B585B00190019B08
:104410009B68002B06D1019B5B78012B14D10C4BC0
:1044200003930AE0019B9B68039302E0039B9B6854
:104430000393039B1B78002BF8D0019800F0CEF873
:1044400003980199FFF764FF05B05DF804FB00BF16
:10445000F024001086B001900B46ADF80230BDF894
:10446000023003932A4B0593059BDB68002B02D196
:104470000023049307E0264B9B8A049320E0059BCE
:10448000DB68002B14D1019B0022DA60059B019AA6
:10449000DA60019B059A1A61039B9AB2049B9BB256
:1044A000D31A9AB2059B9A82019B00229A822DE030
:1044B000059BDB680593059B9B8A049A1344049330
:1044C000049A039B9A42DAD3059BDA68019BDA606F
:1044D000059B019ADA60019B059A1A61019BDB68D2
:1044E000002B03D0019BDB68019A1A61049B9AB2EE
:1044F000039B9BB2D31A9AB2019B9A82059B9A8A1C
:10450000019B9B8AD31A9AB2059B9A8206B0704788
:104510000825001000B583B02D4BDB68002B00D1BF
:1045200053E02B4B9B8A013B9AB2294B9A8244E081
:10453000274BDB680193019B9B68002B13D0019BE9
:104540009B68019A52685A60019B5B68002B07D0F8
:10455000019B5B68019A92689A60019B00225A60F5
:10456000019B00229A601B480199FFF7D1FE019B35
:104570009A8A174B9A82019B5B78042B08D1019B86
:10458000DA8A154B1B689BB213449AB2019B9A823C
:10459000019B01225A70019BDA680D4BDA60019B86
:1045A000DB68002B06D0019BDB68094A1A61019B7E
:1045B0000022DA60019B00221A61054B9B8A002BC6
:1045C00003D1034BDB68002BB2D103B05DF804FBD1
:1045D00008250010F0240010EC24001084B0019095
:1045E000019B9B68002B0FD0019B9B68019A52682E
:1045F0005A60019B5B68002B05D0019B5B68019AA8
:1046000092689A6013E012E00A4B03930CE0039B5C
:104610005A68019B9A4204D1019B5A68039B5A60D5
:1046200005E0039B5B680393039B002BEFD104B071
:10463000704700BFF024001084B00190019B1B69FB
:104640000393039B002B1DD0019BDA68039BDA6068
:10465000019BDB68002B0FD0039B9A8A019B9B8AEE
:1046600013449AB2039B9A82019BDB68039A1A61F6
:10467000019B0022DA6002E0039B00229A82019BE8
:1046800000221A6104B0704700B585B00190009116
:10469000104BDB78184610490E4AFFF70FFE0390C7
:1046A0000C4BDB781A46039B9A420CD9094A039BB0
:1046B000DB001344019A5A60064A039BDB00134453
:1046C000009A9A6002E00220FFF766FC05B05DF8F0
:1046D00004FB00BF041C0010061C001086B00190F3
:1046E0000091019B5B8C9B089BB20393019B9A6A90
:1046F000039B9B0013440593059B03F00403002BCD
:1047000002D0059B043B0593059B403B0593059B0D
:104710003C334FF080721A60059B3833009A1A6060
:104720000023049308E0049B9B00059A1344002295
:104730001A60049B01330493049B0D2BF3D9059B52
:104740002033019AD2691A60059A019B5A62019B33
:10475000009ADA62019BDB78012B03D0019B9B6AF4
:10476000014A1A6006B07047A52E5AE282B0019045
:10477000019B5B6A2033184602B0704700B585B0D4
:10478000019000910198FFF7F1FF0390039B009ABD
:104790001A6005B05DF804FB00B587B00390029184
:1047A00001920398FFF7E2FF0590059B029A1A60B9
:1047B000059B0433019A1A6007B05DF804FB00BF43
:1047C00000B583B00190019B0833184600210C22EC
:1047D00002F0DFFA019B03F10802019B5A60019B82
:1047E00004331846FFF7D4F80246019B1A60019B78
:1047F0001B68002B02D1044801F052FC019B1846B3
:1048000003B05DF804FB00BFF4CE000000B583B038
:1048100001900091019B1B6818460099FFF7E4F88E
:104820000346184603B05DF804FB00BF00B583B033
:104830000190019B1B6818460021FFF7D5F803463D
:10484000002B14BF00230123DBB2184603B05DF830
:1048500004FB00BF00B583B00190019B1B681846A4
:10486000FFF7DEF80346184603B05DF804FB00BF0F
:1048700000B583B00190019B1B681846FFF7E8F86C
:10488000019B184603B05DF804FB00BF00B583B080
:1048900001900091019B1B68B3F1FF3F04D10B48CD
:1048A0000B49242201F0E6FB009B002B05D0019B65
:1048B000DB68019A52681A6004E0019B1B69019A47
:1048C00052681A6003B05DF804FB00BF1CCF000003
:1048D00034CF000000B583B001900091019B00220D
:1048E0001A60019B00225A60019B00229A60019B82
:1048F0000022DA60019B00221A61019B00225A61AA
:10490000019B1846009901F007FC019B184603B073
:104910005DF804FB00B583B001900091019B18463F
:104920000099FFF7B3FF03B05DF804FB00B583B057
:104930000190009101980099FFF7ECFF019B184648
:1049400003B05DF804FB00BF00B595B01190109165
:104950000F920E93119B1846002101F0B3FA119BA0
:104960003E4A1A60119B3E4A5A60119B1833184602
:104970001099FFF7AFFF119B303318460F99FFF7DF
:10498000A9FF119B4833189A00924FF0FF32019211
:104990004FF0FF3202924FF0FF3203924FF0FF329E
:1049A00004924FF0FF3205924FF0FF3206924FF023
:1049B000FF3207924FF0FF3208924FF0FF32099218
:1049C0004FF0FF320A924FF0FF320B924FF0FF325E
:1049D0000C9218460E99169A179B01F0B1F8119B8C
:1049E0009DF8642083F88C20119B303318460121F8
:1049F000FFF79CFF119B183318460021FFF796FF25
:104A0000184801F0DFFC0023139309E011980321FB
:104A100000F0D8F8144801F0D5FC139B0133139330
:104A2000139B022BF2DD1198022100F0CBF80F4806
:104A300001F0C8FC1198282100F000F911980C2110
:104A400000F0FCF81198062100F0F8F8119800F039
:104A500027F8119B184615B05DF804FB90CF0000B5
:104A6000C4CF00008FC2753C45F5D63AACC5273897
:104A700000B587B0039002910192009303980299C8
:104A8000019A00F0FFF805900398059900F0D6F818
:104A90000398009900F0E4F807B05DF804FB00BF4C
:104AA00000B583B001900198012100F0C7F80548D6
:104AB00001F088FC01980021002200F005F803B005
:104AC0005DF804FB45F5D63A84B00390029101925B
:104AD000039B029AC3F89020039B019AC3F8942089
:104AE00004B0704710B582B001900091009B0A2B72
:104AF0001DD1019B0022C3F89020019BD3F8943074
:104B00005A1C019BC3F89420019BD3F89440019850
:104B100000F0FEF803469C42B4BF00230123DBB241
:104B2000002B42D0019B0022C3F894203DE0019B62
:104B3000D3F89020019BD3F89430019811461A467F
:104B4000009BFFF795FF019BD3F890305A1C019B07
:104B5000C3F89020019BD3F89040019800F0CAF868
:104B600003469C42B4BF00230123DBB2002B1CD0C0
:104B7000019B0022C3F89020019BD3F894305A1C6B
:104B8000019BC3F89420019BD3F89440019800F056
:104B9000BFF803469C42B4BF00230123DBB2002BC5
:104BA00003D0019B0022C3F89420009B184602B05A
:104BB00010BD00BF82B001904FF0FF33184602B025
:104BC000704700BF00B583B001900091019B03F1D5
:104BD0004802009B1B111046194601F025F81648A3
:104BE00001F0F0FB019B303318460021FFF79EFED9
:104BF000114801F0E7FB019B303318460121FFF714
:104C000095FE019B48331846009901F00DF80A48BB
:104C100001F0D8FB019B303318460021FFF786FED8
:104C2000054801F0CFFB019B303318460121FFF707
:104C30007DFE03B05DF804FBACC5273800B583B03A
:104C400001900091019B183318460021FFF76EFE7A
:104C500001980099FFF7B6FF03B05DF804FB00BFB1
:104C600000B583B001900091019B183318460121D3
:104C7000FFF75CFE01980099FFF7A4FF03B05DF811
:104C800004FB00BF84B0039002910192039B93F850
:104C90008C30012B1CD0032B24D1019B032B17D864
:104CA00001A252F823F000BFB94C0000BF4C000035
:104CB000C54C0000CB4C0000029B803317E0029BE8
:104CC000C03314E0029B943311E0029BD4330EE016
:104CD000019A13469B001344DB0003F18002029B00
:104CE000134404E0019B02339A01029B13441846CB
:104CF00004B0704782B00190019B93F88C30023B66
:104D0000012B01D8142300E01023184602B070478D
:104D100082B00190019B93F88C30032B01D10423C6
:104D200000E00223184602B0704700BF431C10B5D4
:104D3000044608D02046002100F08EF904F01F043C
:104D40000120A04010BD03480349152201F092F94B
:104D5000F0E700BFD0CF0000E4CF000038B5044634
:104D60004B1C0D4621600FD00846FFF7DFFF25F0F2
:104D70001F0505F1180105F11C0205F1140360601F
:104D8000A560E1602261636138BD00BF006800F08A
:104D90008BB900BF38B50368044601330D4610D007
:104DA00045B1012D05D1A368626819680A431A60EC
:104DB00038BD38BDA36861681A6822EA01021A602A
:104DC00038BD034803492C2201F054F9E8E700BF3D
:104DD00004CE0000E4CF00002DE9F04F414B83B03A
:104DE0005F689E685D6A9C6A0FB3DFF800913E4A77
:104DF0009B464FF0010A05E00AFA08F3FF1ACBF8C8
:104E00000C3014D0B7FA87F8C8F11F085FFA88F899
:104E100059F828000028EFD0136801210192984723
:104E20000AFA08F3FF1A019ACBF80C30EAD1D6B18E
:104E3000DFF8B890DFF8B0A0DFF8A88005E0012324
:104E4000BB40F61AC8F80C300DD0B6FA86F7C7F199
:104E50001F07FFB259F827000028F0D0DAF8003019
:104E600002219847EBE7E5B1DFF88080DFF8789022
:104E70001C4F04E00123B340ED1AFB6211D0B5FAD8
:104E800085F6C6F11F06F6B20F2EF3D806F1200301
:104E900058F823000028EDD0D9F8003001219847B8
:104EA000E8E7DCB1114FDFF840800E4E04E001234B
:104EB000AB40E41AF36211D0B4FA84F5C5F11F05D2
:104EC000EDB20F2DF3D805F1200357F82300002889
:104ED000EDD0D8F8003002219847E8E703B0BDE8EC
:104EE000F08F00BF80800240202500102425001094
:104EF000F8B51E464B1C044623D0134B21F01F006F
:104F000001F01F05114F21F05F0199423A6084E8DA
:104F1000210004D00E4801F0C3F894E821000A4BA8
:104F20000C49984218BF20350B4BA560152043F85B
:104F30002560FCF7B5FF094B4FF400121A60002002
:104F4000F8BD0846F8BD00BF00C0092020250010AC
:104F50004CD00000D94D00002425001000E100E0F5
:104F60008268024B002143F822107047242500106C
:104F700030B40368314CA34232D0314DAB4212D031
:104F800001293ED0A34220D0AB420AD1436801217F
:104F900001FA03F3002A41D12A4A516B21EA0303A3
:104FA000536330BC70474368012404FA03F3254C73
:104FB0000129E362EED1436801219940214B002A87
:104FC00036D01A6B0A431A63EBE74368012101FAF2
:104FD00003F3E2B11B4A30BC51690B435361704784
:104FE0004368012404FA03F3164C0129E360F0D16D
:104FF000436801219940134BAAB11A690A431A6107
:10500000CFE7A342F4D0AB42D5D030BC70470D4AB5
:1050100030BC516921EA030353617047094A516B5F
:105020000B435363BDE71A6922EA01021A61B8E72C
:105030001A6B22EA01021A63B3E700BF00C009201D
:1050400040C0092080800240024B4FF400121A60D9
:10505000704700BF00E100E038B5431C04460D4630
:1050600017D004F16040A0F51C2000F00F035B0096
:1050700003229A409D4003099B0003F1804303F5FE
:105080003033196821EA02021A601A6815431D605C
:1050900038BD03480349152200F0ECFFE1E700BFEB
:1050A000D0CF00007CD0000038B5431C04460D462C
:1050B0002CD004F16040A0F51C2000F01F04C5F3C3
:1050C000800202FA04F443099B0003F1804303F5D4
:1050D0003033996E21EA04019966996E0C439C66FF
:1050E0009AB900F00F035B0003229A4005FA03F31C
:1050F0000009800000F1804000F53030016C21EAA9
:1051000002020264026C1343036438BD024803497F
:10511000202200F0AFFFCCE7D0CF00007CD0000011
:1051200008B5154A9368C3F34203012B1ED0022B26
:1051300019D1124B596F01310AD0D3F88010986FF2
:10514000086093F8A61019B9516821F00101516067
:10515000186F0A4B48B193F8A6302BB10021084ACA
:105160001368984708BD08BD08BD08BD034A106F05
:105170000028F9D01946F2E700800940EC2500101C
:10518000E825001070B50368294CA34249D041DDE1
:10519000284CA3422AD004F58044A34244D1264C93
:1051A00008263ABB01290BD04568244AC5EBC50542
:1051B00002EBC50494F8355094F83620EA4214D135
:1051C000012202FA01F5D1F1010138BF002102FAF2
:1051D00001F15C6824EA05045C6003685B681942BD
:1051E00003D1B240164BC3F8802070BD154C072682
:1051F000002AD7D0012505FA01F176B2304605FA2A
:1052000006F65A680A435A602146FCF749FE0C4BE1
:105210001E6070BDA4F58044A34205D10A4C05264A
:10522000BFE70A4C0626BCE700242646B9E700BFC4
:105230000000014000800940B5520000EC2500103C
:1052400000E100E021510000515200002153000014
:1052500008B5154A9368C3F34203012B1DD0022BF6
:1052600018D1124B5968013109D019699868086042
:1052700093F8361019B9516821F00101516018688E
:105280000A4B48B193F836302BB10021084A136815
:10529000984708BD08BD08BD08BD044A106800282D
:1052A000F9D01946F2E700BF00C00040EC2500101D
:1052B000E825001008B5174A9368C3F34203012B91
:1052C00021D0022B1CD1144BD3F8AC1001310BD0E0
:1052D000D3F8B810D3F8B000086093F8DE1019B90D
:1052E000516821F001015160D3F8A8000A4B48B180
:1052F00093F8DE302BB10021084A1368984708BDA7
:1053000008BD08BD08BD044AD2F8A8000028F8D09E
:105310001946F1E700C00940EC250010E82500100F
:1053200008B5154A9368C3F34203012B1DD0022B25
:1053300018D1124BD96B013109D0996C186C0860E7
:1053400093F86E1019B9516821F001015160986B02
:105350000A4B48B193F86E302BB10021084A13680C
:10536000984708BD08BD08BD08BD044A906B0028D9
:10537000F9D01946F2E700BF00000140EC2500100B
:10538000E82500102DE9F04F0368884A8DB093425C
:1053900009908B4600F3F080854A934200F0F78035
:1053A00040F3D780834A934200F09F8002F5804209
:1053B00093420CD1804AD2F8AC1121F44021C2F8BA
:1053C000AC11D2F8AC1141F48021C2F8AC117B4988
:1053D0004FEA0B1209680891089CB1FBF2F102FB3D
:1053E000114289B20491002A00F0B1806100A2004C
:1053F0000123029400240B910A9201930F46039219
:105400000693CDF81CB05E460594DDF81CA001990A
:105410004FF00008D146CDB2DA46C346002F79DB03
:105420000399DDF804E0B1FBF9F464090134C4F335
:105430004F04DE44002C66D10124B8F1000F67D17F
:1054400004FB0EF0029AC000B2FBF0F00130CAEB90
:10545000500001F09BF8B04206DA504564D0064691
:10546000CDF81480049406950BF1010B5FFA8BF8CC
:105470004545D144D2D8019CD3460F2C4FF00003B0
:105480005DD0029A0899019C0A440B99013402925A
:105490000194039A0F440A9C0799224459440392A9
:1054A0000791002BB1D0069B059A099C42EA031094
:1054B0002368C0B2197B049C41F08001C4F3072229
:1054C000099C1973236804991A7123685FFA81FB98
:1054D00083F800B0236883F8280023681A7B02F061
:1054E0007F021A730DB0BDE8F08F334AD2F8AC11C9
:1054F00021F44031C2F8AC11D2F8AC1141F4803142
:10550000C2F8AC1163E7B8F1000F99D0012C97D81D
:10551000022495E7B7FBF9F42409DDF804E001342F
:10552000C4F34F04DE4485E70494019CD3460F2C5A
:105530000695CDF8148056464FF00103A1D1059988
:10554000069A099C41EA0210C0B22368B2E7102013
:10555000B0E7A2F5804293427FF439AF164AD2F801
:10556000A81121F0C001C2F8A811D2F8A81141F089
:105570004001C2F8A8112AE79B221148114900F006
:1055800079FD099C0A4A236893427FF409AF0A4ACD
:10559000D2F8A81121F44071C2F8A811D2F8A811CC
:1055A00041F48071C2F8A81111E700BF00C00940A2
:1055B000000001400080094000C00F40CC070010EF
:1055C00080D100009CD10000F8B55D1E012D07467A
:1055D0000C46164604D915481549FB2200F04AFD31
:1055E000053C032C1CD8042E14D8013EF6B2032E21
:1055F0000DD8104B082253F826301B01DBB244EAC9
:105600008504144323433A68DBB21373F8BD0023C7
:105610001A46F4E708480649FE2200F02BFDE4E7AD
:1056200006480349FC2200F025FDDCE704D2000017
:105630009CD1000004D1000050D200002CD2000008
:10564000436810B40448054CC3EBC30344F833204B
:1056500001605DF8044B7047E8250010EC25001050
:1056600010B439B94368054CC3EBC30304EBC3035F
:1056700083F836205DF8044BFFF784BDEC2500105D
:1056800000B50268137DDB07FCD543680949C3EB0D
:10569000C30301EBC303596810780131C0B207D0CE
:1056A000596904335B680B60536843F0010353602E
:1056B0005DF804FBEC2500100368187D00F0010084
:1056C000704700BF38B54368184AC3EBC303DB001B
:1056D000D1180446C869013011D018331A445368F0
:1056E000151D013316D06A696B6812681A4204D11D
:1056F0002368187DC0F3801038BD002038BD2368B2
:105700001B7D9B060CD491F834000F288CBF002021
:10571000012038BD064807492C2200F0ABFCE2E727
:10572000002381F83430012038BD00BFEC25001083
:1057300004CE0000D4D2000038B504460D46204601
:10574000FFF7C0FF0028FAD02368EDB21D70626831
:10575000054BC2EBC20203EBC20393F834200132C3
:1057600083F8342038BD00BFEC2500102DE9F04F40
:105770000446454D006883B0A8420E4690469946BF
:1057800043D06568002301932A46DFF808A1EF00A3
:10579000C2EBC202781B4FF0000E0AEBC0000AEB0E
:1057A000C20C4FF0FF33C36143607146724620461E
:1057B0008CF835E0FFF7E6FC16B903B0BDE8F08FD2
:1057C0003249404600F028FD31498346484600F002
:1057D00023FDB21E012A38D9012EEED1B8F1FF3FC8
:1057E000EBD02949226807208B45107215D1019B07
:1057F0009BB11B7C019A254943F04003404613743A
:1058000003B0BDE8F04F00F0D5BC037C656803F041
:105810003F03037462680190B7E77D1B0AEBC50084
:1058200041460430002200F099FC62680125C2EB79
:10583000C2020AEBC20320462A46002183F83550F3
:1058400003B0BDE8F04FFFF79DBCB9F1FF3F09D0B1
:105850000D4A90420CD0781B0AEBC00049461C3020
:1058600000F048FC032EA8D1B8F1FF3FB9D1A4E75E
:10587000019B002BEFD01A7C484642F080021A743C
:10588000034900F097FCEDE700000140E0D0000084
:10589000BCD30000EC2500102DE9F0470F4605466B
:1058A00008466149164600F0C5FC6049044630468A
:1058B00000F0C0FC0146204600F09CFC411C044660
:1058C00000F0AB805A4B2860984200F0838053D997
:1058D000584B984276D003F58043984206D1564BF8
:1058E000D3F8C42042F00072C3F8C4204FF001097D
:1058F00084F808902B684FF00008C3F8048028460D
:105900004FF41651FFF73EFD42464B46284608210C
:10591000FFF75AFE3846444900F04CFC30464349F4
:1059200000F048FC7A1C03D038464146FFF7BCFB28
:10593000731C03D030460021FFF7B6FB3C4B9C4262
:1059400050D025D93B4B9C4264D003F580439C4208
:105950004BD103236B603949C3EBC3034FF0FF34D2
:10596000284601EBC305224623466C60EC6100210A
:10597000BDE8F047FFF7FABEA3F580439842B5D1E2
:105980002D4BD3F8C42042F00802C3F8C420ADE781
:10599000A3F580439C4228D1284E4FF0FF340021CC
:1059A00069602246234628467460F461FFF7DEFEF4
:1059B000234B012429461C6022480822BDE8F047F9
:1059C00001F0DEB91C4BD3F8C42042F08072C3F85A
:1059D000C4208BE7184BD3F8C42042F01002C3F860
:1059E000C42083E701236B60B5E76B681349C3EB01
:1059F000C3034FF0FF3601EBC30732463346284658
:105A000000217E60FE61FFF7B1FE0F4B9C42CFD0BC
:105A1000BDE8F08702236B609DE70C480C495C22CF
:105A200000F028FB2C6061E750D3000014D1000087
:105A3000000001400080094000C00F40EC2500102C
:105A4000E42500107827001000C0004040D300007B
:105A50009CD10000134A38B513680BBB12490124CE
:105A6000D1F8C4501460114A114845F40005C1F83A
:105A7000C4501367036801F1437101F5F451033118
:105A80009B08A1FB03039B0C013B022151600420F6
:105A9000D36008495460FCF703FA074B10221A60E0
:105AA00038BD00BFCC26001000C00F4000400940A8
:105AB000CC070010A562000000E100E008B5044B2F
:105AC0001B680BB9FFF7C6FF024B986808BD00BF03
:105AD000CC26001000400940034B98615A6942F0FF
