:1000000000800010E12700001128000013280000E4
:100010001528000017280000192800000000000023
:100020000000000000000000000000008128000027
:100030001D28000000000000EF2800002729000014
:100040002328000023280000232800002328000084
:100050002328000023280000232800002328000074
:100060002328000023280000232800002328000064
:100070002328000023280000232800002328000054
:100080002328000023280000232800002328000044
:100090002328000023280000232800002328000034
:1000A0002328000023280000232800002328000024
:1000B0002328000023280000232800002328000014
:1000C00023280000232800002328000010B5054C39
:1000D000237833B9044B13B10448AFF300800123F4
:1000E000237010BD500D001000000000F0E1000072
:1000F00008B5064B1BB106480649AFF30080064819
:10010000036813B1054B03B1984708BD0000000018
:10011000F0E10000540D00104C0D00100000000034
:10012000154B002B08BF134B9D46A3F5803A0021C9
:100130008B460F461348144A121A07F044F80F4B27
:10014000002B00D098470E4B002B00D09847002082
:10015000002104000D000D48002802D00C4806F0D4
:1001600033FC06F097FF2000290000F025FE06F082
:10017000C3F900BF0000080000800010000000006C
:1001800011440000500D00107C2E0010C9690000C1
:100190001D6E000000B583B001900091019B1B68AB
:1001A000B3F1FF3F04D10B480B49242206F07CF940
:1001B000009B002B05D0019BDB68019A52681A60F6
:1001C00004E0019B1B69019A52681A6003B05DF854
:1001D00004FB00BFCCCA0000E4CA000000B583B035
:1001E0000190019B1B68B3F1FF3F04D109480A4904
:1001F0002C2206F059F9019B5B691A68019B5B6828
:100200001340002B01D0012300E00023184603B067
:100210005DF804FBCCCA0000E4CA000000B583B05E
:1002200001900091019B00221A60019B00225A60FC
:10023000019B00229A60019B0022DA60019B002250
:100240001A61019B00225A61019B1846009906F031
:100250006BF9019B184603B05DF804FB00B583B051
:100260000190019B1846FFF7B9FF0346184603B0FB
:100270005DF804FB00B583B00190019B064A1A604B
:100280000023002B02D0019806F08AFB019B184640
:1002900003B05DF804FB00BFE8CC000000B583B0FC
:1002A00001900198FFF7E6FF019806F079FB019BAA
:1002B000184603B05DF804FB00B585B003900291C9
:1002C000CDE90023039B20331846029905F02AFF4D
:1002D0000398DDE9002306F071F805B05DF804FB32
:1002E00000B583B00190019B094A1A60019806F09D
:1002F00059F8019B184606F09BF80023002B02D00A
:10030000019806F04DFB019B184603B05DF804FB15
:10031000B8DD000000B583B001900198FFF7E0FF61
:10032000019806F03DFB019B184603B05DF804FB05
:1003300000B583B0019000F0EBF803461A46019B2C
:100340001A60019B184603B05DF804FB00B583B04A
:10035000019000F0DDF803461A46019B1B68D31A92
:10036000184603B05DF804FB00B583B0019000911E
:1003700000F0CEF80246009BD31A1A46019B1A6081
:1003800003B05DF804FB00BF82B00190019BDB6EFF
:10039000184602B0704700BF82B00190019B18461A
:1003A00002B0704700B585B0039002910192ADF89C
:1003B0000230BDF9023003980299019A00F006F864
:1003C000039B184605B05DF804FB00BF00B585B07F
:1003D000039002910192ADF80230039B029A5A6099
:1003E000039BBDF802201A81039B4FF40062DA6080
:1003F00040F2AA2006F0C0FE03461A46039B1A618B
:10040000039B1B69002B02D1064800F069F8039B8F
:10041000002283F84820039B019ADA6405B05DF856
:1004200004FB00BF40420F0000B583B00190019B68
:100430005B68002B00D10EE0019B012283F848206D
:10044000019B1A1D019BDB6C1046194603F0ACF9A9
:100450000246019B1A6003B05DF804FB00B585B04D
:100460000190019B93F8483083F00103DBB2002B2D
:1004700001D000230FE0019B002283F84820019B5C
:100480001B68184603F0D4F90390019B5B6C184677
:1004900006F07AFE039B184605B05DF804FB00BF2A
:1004A00000B583B001900091019B1B68184600992C
:1004B00003F0ACFB0346184603B05DF804FB00BF35
:1004C00000B585B0039002910192039B18460299F2
:1004D000019A03F0BBFB039805B05DF804FB00BF75
:1004E00000B583B00190019803F0E0F90346184687
:1004F00003B05DF804FB00BF00B583B00190019824
:10050000FFF7ACFF019B184603B05DF804FB00BF8A
:1005100008B50348FFF738FF0346184608BD00BF7B
:10052000401F001000B583B00190019B184605F0F4
:1005300099FF019B0B4A1A60019B4FF0FF329A61B1
:10054000019B00221A77019B0022DA63019B24336E
:1005500018460021182206F036FE019B184603B00B
:100560005DF804FBD0CC000000B583B00190019B86
:10057000084A1A60019B184605F05AFF0023002B19
:1005800002D0019806F00CFA019B184603B05DF802
:1005900004FB00BFD0CC000000B583B001900198EF
:1005A000FFF7E2FF019806F0FBF9019B184603B044
:1005B0005DF804FB00B585B00390CDE90023039BF3
:1005C0001846DDE9002305F061FF05B05DF804FB86
:1005D00000B583B00190019B10331846002118220A
:1005E00006F0F1FD019B0433184600210C2206F0B1
:1005F000EAFD019B00221A70019B184603B05DF8CA
:1006000004FB00BF82B00190019B184602B0704706
:1006100030B583B00190019B083301241D4604E0EE
:100620002846FFF77FFF4035013CB4F1FF3FF7D18B
:10063000019B88331846FFF7CBFF019B002283F80C
:10064000B120019B93F8B120019B83F8B020019B5E
:10065000184603B030BD00BF00B583B001900091D3
:10066000019B18460749009A0023FFF79BFE019B58
:100670005033184604F0BEFA019B184603B05DF8EB
:1006800004FB00BF291A000082B00190019B1846AC
:1006900002B0704700B583B0019000910348009903
:1006A00000F036FE03B05DF804FB00BF401F0010F1
:1006B00000B583B0019000910348009900F030FE2E
:1006C00003B05DF804FB00BF401F001000B583B00D
:1006D0000190034800F0C0FF03B05DF804FB00BFC9
:1006E000401F001000B583B00190009103480099AD
:1006F00000F06CFE03B05DF804FB00BF401F00106B
:1007000000B585B0039002910192009304480299CC
:10071000019A009B00F0E4FE05B05DF804FB00BF09
:10072000401F001000B587B00590049103928DF82A
:100730000B309DF80B30089A009204480499039AF4
:1007400000F0DCFE07B05DF804FB00BF401F0010A6
:1007500000B587B00590049103928DF80B309DF899
:100760000B309DF82020009203480499039A00F072
:10077000FBFE07B05DF804FB401F001000B585B01C
:10078000039002910192009304480299019A009B00
:1007900000F054FF05B05DF804FB00BF401F0010DF
:1007A00000B583B00190019B1846FFF7C1FD019B86
:1007B00004331846FFF7BCFD019B4FF4FA629A60C0
:1007C000019B4FF47A72DA60019B40F2DC521A61AD
:1007D000019B4FF416725A61019B4FF416729A6195
:1007E000019B4FF4AB72DA61019B1E221A62019BDE
:1007F00032225A62019B05229A62019B9622DA629A
:10080000019B96221A63019B0A225A63019B42F2C2
:1008100010729A63019B0022DA63019B1E221A6404
:10082000019B00225A64019B96229A64019B0A2232
:10083000DA64019B96221A65019B4FF416725A6581
:10084000019B40F2DC529A65019B42F21072DA651C
:10085000019B60331846FFF76BFD019B643318461C
:10086000FFF766FD019B00229A66019B0022DA6673
:10087000019B00221A67019B184603B05DF804FB38
:10088000044B5A69034B5A65024B1A69014B9A652E
:10089000704700BFA8190010014B0122DA637047AE
:1008A000A8190010014B0022DA637047A819001044
:1008B000044BDA68034B5A65024B9A68014B9A6500
:1008C000704700BFA8190010044BDA69034B5A6542
:1008D000024B9A69014B9A65704700BFA819001036
:1008E00008B50648FFF732FD0246044B5B6D9A429D
:1008F000B4BF00230123DBB2184608BDA8190010BD
:1009000008B50648FFF722FD0246054B9B6C9A424C
:10091000B4BF00230123DBB2184608BDAC19001098
:10092000A819001008B502480021FFF71DFD08BDF9
:10093000AC19001008B502480021FFF715FD08BDED
:10094000A819001008B50648FFF700FD0246044B41
:100950005B6D9A42CCBF00230123DBB2184608BD71
:10096000A819001008B50648FFF7F0FC0246054B31
:100970009B6C9A42CCBF00230123DBB2184608BD12
:10098000AC190010A819001008B50648FFF7DEFCE6
:100990000246054B1B6D9A42B4BF00230123DBB214
:1009A000184608BD081A0010A819001008B502481A
:1009B0000021FFF7D9FC08BD081A001008B5064849
:1009C000FFF7C4FC0246054BDB6C9A42B4BF002320
:1009D0000123DBB2184608BD081A0010A819001040
:1009E00008B502480021FFF7BFFC08BD081A001037
:1009F00008B50648FFF7AAFC0246054B1B6D9A4254
:100A0000CCBF00230123DBB2184608BD081A001032
:100A1000A819001008B50648FFF798FC0246054BD8
:100A2000DB6C9A42CCBF00230123DBB2184608BD21
:100A3000081A0010A8190010044BDB6B012B14BF1F
:100A400000230123DBB21846704700BFA81900102D
:100A5000044BDB6B012B14BF00230123DBB21846D0
:100A6000704700BFA8190010044BDB6B012B14BFAB
:100A700000230123DBB21846704700BFA8190010FD
:100A8000044BDB6B012B14BF00230123DBB21846A0
:100A9000704700BFA8190010044BDB6B012B14BF7B
:100AA00000230123DBB21846704700BFA8190010CD
:100AB000044BDB6B002B14BF00230123DBB2184671
:100AC000704700BFA819001008B502480021FFF7C1
:100AD0004BFC08BDA819001008B50848FFF736FC04
:100AE0000246064B996D054B1B6CCB1A9A42B4BF5C
:100AF00000230123DBB2184608BD00BFA81900106F
:100B000008B502480021FFF72FFC08BDA819001006
:100B100008B50648FFF71AFC0246044B9B6D9A4243
:100B2000B4BF00230123DBB2184608BDA81900108A
:100B300008B50848FFF70AFC0246064B196C054B3E
:100B40005B6C0B449A42B4BF00230123DBB218460E
:100B500008BD00BFA81900100A4B5A6C094B5B6A0C
:100B60009A420ADA074B5A6A064B596C054B9B6A44
:100B70000B449A42B8BF134600E00023014A536475
:100B8000704700BFA819001008B50848FFF7DEFB42
:100B90000246064B996D054B1B6CCB1A9A42CCBF93
:100BA00000230123DBB2184608BD00BFA8190010BE
:100BB00008B50648FFF7CAFB0246044B9B6D9A42F4
:100BC000CCBF00230123DBB2184608BDA8190010D2
:100BD00008B50848FFF7BAFB0246064B196C054BEF
:100BE0005B6C0B449A42CCBF00230123DBB2184656
:100BF00008BD00BFA8190010074BDA6E064B5B6DED
:100C00004EF6602191FBF3F39A42D4BF00230123F7
:100C1000DBB21846704700BFA81900100C4BDA6E03
:100C20000B4B9B6D4EF6602191FBF3F39A420BDB6D
:100C3000074BDA6E064B5B6D4EF6602191FBF3F3CA
:100C40009A4201DC012300E000231846704700BFF0
:100C5000A8190010074BDA6E064B9B6D4EF660210B
:100C600091FBF3F39A42ACBF00230123DBB2184699
:100C7000704700BFA819001008B50648FFF766FBCB
:100C80000246054BDB6D9A42B4BF00230123DBB261
:100C9000184608BD0C1A0010A819001008B50A4B18
:100CA0009B6E4EF6602202FB03F2074BDB6D92FB5C
:100CB000F3F2054BDA66044B00229A6603480021E2
:100CC000FFF752FB08BD00BFA81900100C1A001056
:100CD000024B9B6E5A1C014B9A667047A819001074
:100CE00008B50648FFF732FB0246054BDB6D9A421A
:100CF000CCBF00230123DBB2184608BD0C1A00103C
:100D0000A819001000B583B0019008484FF0FF31DA
:100D100003F096FF06480749019A05F01BFB0348BC
:100D200003F0B2FF03B05DF804FB00BF281E001003
:100D3000101E001034CB000000B583B001900948AC
:100D40004FF0FF3103F07CFF019B9B680648074989
:100D50001A4605F0FFFA034803F096FF03B05DF86A
:100D600004FB00BF281E0010101E001034CB000032
:100D700000B583B0019009484FF0FF3103F060FFE8
:100D8000019B9B68064807491A4605F0E3FA0348A9
:100D900003F07AFF03B05DF804FB00BF281E0010CB
:100DA000101E00103CCB000008B502480121FFF7DF
:100DB00077FB08BDEC1E001000B583B019481A4936
:100DC00005F0C8FA01AB1846FFF75EFC01AB184608
:100DD0004FF47A71FFF75EFC1448FFF73FFA0346C1
:100DE000002B14BF00230123DBB2002B04D001AB86
:100DF000184600F025F903E001AB184600F0EEFFBD
:100E00000B48FFF711FB0B480B49002205F0F0F9E6
:100E100001AB1846FFF75AFC0023184603B05DF8F3
:100E200004FB00BF101E001050CB0000D41E0010A9
:100E3000EC1E0010C81D0010A90D000000B585B003
:100E40000190084BDB6E039307480021002204F059
:100E500055F805480549039A05F07CFA05B05DF898
:100E600004FB00BFA81900103C1E001094CB00002A
:100E700000B583B0019007480021012204F03EF83C
:100E8000019B9B68034804491A4605F063FA03B0C6
:100E90005DF804FB3C1E0010A0CB000000B589B03B
:100EA0000190019B069302AB184601214FF0FF32DF
:100EB000FFF706FB98E0534805F042FA034603F0BB
:100EC000DF03413B152B00F28F8001A252F823F083
:100ED000690F0000E90F0000E90F0000E90F0000B2
:100EE000490F0000E90F0000E90F0000E90F0000C2
:100EF000E90F0000E90F0000E90F0000E90F000012
:100F0000590F0000290F00007D0F0000E90F0000BD
:100F1000E90F0000E90F0000390F0000E90F0000A1
:100F2000E90F0000730F00003748FFF7EBFE06984B
:100F30003649FFF7D7FB57E03548FFF7E3FE069841
:100F40003449FFF7CFFB4FE03348FFF7DBFE06984D
:100F50003249FFF7C7FB47E03148FFF7D3FE069859
:100F60003049FFF7BFFB3FE006982F49FFF7BAFB78
:100F70003AE006982D49FFF7B5FB35E000230793CB
:100F8000204805F0DDF903468DF817309DF817303D
:100F90002F2B0FD99DF81730392B0BD8079A1346F2
:100FA0009B0013445B001A469DF817301344303BF6
:100FB0000793E5E79DF817300D2B03D09DF8173008
:100FC0000A2B0FD11A4B079ADA651A484FF0FF31F6
:100FD00003F036FE0B481849079A05F0BBF915488F
:100FE00003F052FE00BF00BF144805F0FDF80346B1
:100FF000002B0CBF00230123DBB2002B7FF45BAF7F
:1010000051E700BF101E0010A4CB000044010010E7
:10101000B0CB000050010010BCCB00005C01001000
:10102000C8CB00006801001080010010740100109E
:10103000A8190010281E0010D4CB0000C81D0010F5
:1010400000B585B003906348FFF75CFE03986249E2
:10105000624A634BFFF754FB039862495F4A624B55
:10106000FFF74EFB039861495C4A614BFFF748FB71
:1010700003986049594A604BFFF742FB03985F4968
:10108000564A5F4BFFF73CFB03985E49534A5E4B61
:10109000FFF736FB03985D495D4A5E4BFFF730FB77
:1010A00003985D495A4A5D4BFFF72AFB03985C4958
:1010B000574A5C4BFFF724FB03985B495B4A5C4B48
:1010C000FFF71EFB03985B49584A5B4BFFF718FB81
:1010D00003985A49554A5A4BFFF712FB039859494E
:1010E000524A594BFFF70CFB584B009303983A496F
:1010F000574A0423FFF716FB544B009303983949D2
:10110000544A0423FFF70EFB504B009303983749D2
:10111000514A0423FFF706FB4C4B009303983549D3
:101120004E4A0423FFF7FEFA49F640430093039822
:1011300029494B4A0423FFF7F5FA49F64043009347
:1011400003982849474A0423FFF7ECFA0123009348
:1011500003982A49444A0323FFF7FAFA012300932C
:1011600003982849414A0323FFF7F2FA03984049BC
:10117000404A0023FFF702FB03983F49FFF798FA24
:1011800003983E49FFF794FA03983D49FFF790FA18
:1011900003983C49FFF78CFA03983B49FFF788FA1C
:1011A00003983A49FFF784FA03983949FFF780FA20
:1011B00003983849FFF77CFA03983749FFF778FA24
:1011C00036483749039A0023FFF700F905B05DF868
:1011D00004FB00BFF8CB0000CC000010710D000034
:1011E00018CC0000D800001020CC00002001001016
:1011F00028CC00002C01001030CC0000E4000010CE
:1012000038CC0000F000001040CC000008010010B5
:10121000710E000048CC0000FC00001054CC00000F
:101220001401001060CC000044010010390D0000D2
:101230006CCC000050010010B0CB00005C0100102D
:10124000BCCB000068010010C8CB000090D00300A8
:1012500032C0092034C0092035C0092037C0092018
:101260000AC009200BC0092004C0092005C00920BC
:10127000980B00103D0E00000004001064050010E3
:101280002C0700101C09001090090010040A00101F
:10129000780A0010EC0A0010EC0B0010EC1E001095
:1012A0009D0E000000B583B00190019B184605F02B
:1012B000D9F8019B064A1A60019B20331846002189
:1012C00004F02AFF019B184603B05DF804FB00BF41
:1012D000B8DD000000B583B00190019B04331846CF
:1012E00003F088FC019B1833184605F079F8019B40
:1012F00028331846FFF7D6FF019B00221A60019B96
:101300000022DA66019B184603B05DF804FB00BFBB
:1013100082B001900091019B009A9A6602B07047DA
:1013200000B583B001900091019B1A680B4B1B68BC
:101330009A4203DB0A4805F0CDF80CE0094B1A6825
:10134000019B1B689B001344009A1A60019B1B6859
:101350005A1C019B1A6003B05DF804FB080C0010D6
:101360007CCC0000040C0010024BDB6E5A1C014BBD
:10137000DA667047401F001000B585B001900B463B
:101380008DF80330019B0393039B1B689B6893F8C4
:101390008830012B03D0022B0AD0002B11E09DF8DE
:1013A0000330012B03D10848039900F00FF808E03F
:1013B0009DF80330022B03D10348039900F006F88F
:1013C00000BF05B05DF804FB401F001000B585B0FC
:1013D00001900091009B1B689B68012283F8B0205C
:1013E0000023039367E0009B1B689A68039B9B01A3
:1013F000083313440293029B9B69B3F1FF3F00D172
:1014000056E0029B1B7F052B52D801A252F823F015
:10141000B114000029140000371400005714000014
:10142000651400008B140000029B24331846012130
:10143000FEF7B0FE3CE0029BDB6BC3F10102029BB6
:10144000DA63029B03F12402029BDB6B1046194610
:10145000FEF7A0FE2CE0029B243318460021FEF785
:1014600099FE25E0029B243318460121FEF792FEE7
:1014700004F03EFD0246029B1B6A13441A464FF0DD
:1014800000030298FFF796F812E0029B24331846F7
:101490000021FEF77FFE04F02BFD0246029B1B6A33
:1014A00013441A464FF000030298FFF783F800BF79
:1014B000039B01330393039B012B94DD009B5B682B
:1014C000002B03D0009B5B6800989847019B5B6AE8
:1014D0001846012102F09AFB05B05DF804FB00BF3D
:1014E00084B00390029101920093029B019A5A608A
:1014F000029B009A9A6004B0704700BF00B587B0A5
:101500000390029101928DF803300023059325E0AA
:10151000029B1B689A68059B9B0108331344049344
:10152000049B9B69B3F1FF3F05D0049B9A69019B23
:101530009A4200D00FE0049B24331846019905F02D
:1015400005F8049B9DF803201A77049B089A1A62F9
:10155000049B019A9A61059B01330593059B012B1E
:10156000D6DD07B05DF804FB00B587B003900291AB
:1015700001928DF80330029B1B689B6893F88830BA
:10158000002B06D0029B1B689B688C33184603F027
:1015900001FF029B1B689B689DF8202083F8882030
:1015A000029B1B689B6898331846019904F0BCFFA6
:1015B000029B1B689B6803F18C02029B10460199F9
:1015C0001D4A03F0AFFE029B1B689B6803F1980263
:1015D0009DF803301046194603F0F2FD00238DF804
:1015E00017309DF82030012B03D0022B05D0002BA3
:1015F00007E001238DF8173003E002238DF8173040
:1016000000BF9DF81730002B12D0029B1B689B680F
:1016100003F18C029DF8173010461946012203F0A1
:10162000C1FE029B1B689B688C33184603F026FFA3
:1016300007B05DF804FB00BF7913000084B003908D
:10164000029101920093029B019A5A60029B009AB8
:10165000DA6004B0704700BF00B585B0019002F0B9
:10166000D3F80246019B5A62019B03F12801019BBA
:101670009B6E1A464FEAE27308461049FEF71CFEBD
:10168000019B1833184604F0B7FE002303930CE0C7
:101690000B4B1A68039B9B0013441B685B6818463E
:1016A000FEF7C2FE039B01330393019B1A68039B61
:1016B0009A42EDDC019800F005F8FBE769130000A1
:1016C000040C001000B589B00190019B1833184636
:1016D00004F09CFE0790019800F030F8019800F0AB
:1016E00061F80198042100F091F80198079900F041
:1016F00045FB0690019B9A6E069B9A4200DC14E023
:101700000198032100F082F8019B9A6E069BD31A80
:10171000094A82FB03129211DB17D31A03AA10465F
:1017200001211A46FEF7CCFEDFE70198022100F006
:101730006DF809B05DF804FBD34D621084B00190E0
:101740000023039321E0164B1A68039B9B0013446C
:101750001B681B689B68124A1168039A92000A442E
:1017600012681268926892F8B02083F8B1200C4B8E
:101770001A68039B9B0013441B681B689B6800222C
:1017800083F8B020039B01330393054B1A68039B36
:101790009B0013441B68002BD5D104B0704700BFD9
:1017A0000C0C001000B585B001900023039322E0DB
:1017B000154B1A68039B9B0013441B685B685033EE
:1017C00018464FF0FF3103F03BFA0F4B1A68039BAA
:1017D0009B0013441B6800225A750B4B1A68039B2D
:1017E0009B0013441B685B685033184603F04CFAA7
:1017F000039B01330393019B1A68039B9A42D7DC36
:1018000005B05DF804FB00BF040C001000B58DB0FE
:1018100001900091009B079300238DF82F30002347
:101820008DF82E3000230A937AE07E4B1A680A9BCB
:101830009B0013441B68DB680693069B002B00D1BA
:101840006BE0009B042B0AD0069B1B681B7A042BC1
:1018500005D10423009301238DF82E3066E0714BEF
:101860001A680A9B9B0013441B685B685033184638
:1018700003F0F6F9034683F00103DBB2002B03D03B
:1018800001238DF82F3048E0664B1A680A9B9B00B5
:1018900013441B68DB681B681B7A1A46009B1340C5
:1018A000002B0CBF00230123DBB2002B2AD05D4BA1
:1018B0001A680A9B9B0013441B68DB681B681B7A31
:1018C000012B0CD1574B1A680A9B9B0013441B68D1
:1018D0005B7DDBB283F00103DBB2002B01D001237F
:1018E00000E00023002B0DD001238DF82F304D4B4D
:1018F0001A680A9B9B0013441B685B681846012109
:10190000FEF7CEFD474B1A680A9B9B0013441B68E9
:101910005B685033184603F0B7F90A9B01330A930A
:10192000019B1A680A9B9A423FF77FAF9DF82E30C1
:10193000002B00D071E09DF82F3083F00103DBB263
:10194000002B07D0079A009B9A4202D0079B009376
:1019500063E063E003AB184601214FF0FF32FEF76E
:10196000AFFD00238DF827300023089345E02D4B71
:101970001A68089B9B0013441B685B685033184629
:1019800003F06EF90346002B31D0264B1A68089BF2
:101990009B0013441B68DB68002B16D0214B1A6890
:1019A000089B9B0013441B68DB681B681B7A042B95
:1019B0000BD11C4B1A68089B9B0013441B681B7DB2
:1019C000DBB2002B01D0012300E00023002B02D06A
:1019D00001238DF82730134B1A68089B9B00134492
:1019E0001B685B685033184603F04EF902E0012390
:1019F0008DF82730089B01330893019B1A68089BD8
:101A00009A42B4DC9DF8273083F00103DBB2002B4F
:101A100003D0009B042B00D000E0FDE60DB05DF884
:101A200004FB00BF040C001000B583B00190034814
:101A3000019900F005F803B05DF804FB401F0010A9
:101A400000B58BB001900091009B9B680993009BAF
:101A50001B680893009B5B68503318464FF0FF31BA
:101A600003F0EEF8089B5B68002B03D0089B5B68D3
:101A700008989847099B5B68079301980099079A13
:101A800000F03EF9009B01229A75009B5B68503381
:101A9000184603F0F9F8019B5B6A1846012102F031
:101AA000B5F8009B02229A7503AB184601214FF04E
:101AB000FF32FEF705FD009B01229A75009B5B68D3
:101AC000503318464FF0FF3103F0BAF801980099EF
:101AD00000F026F80690069B002B10D00198009984
:101AE000069A00F09DF8009BDB681B681B7A042BAC
:101AF00014BF00230123DBB2002BE7D103E0009BDE
:101B000000221A7500BF009B5B685033184603F033
:101B1000BBF8019B5B6A1846012102F077F8C0E729
:101B200000B587B001900091009BDB680493049B93
:101B30001B685B680393039B002B01D1002320E00B
:101B40000023059315E0059B9B00039A13441B6833
:101B5000019800991A4600F019F80346002B05D0A9
:101B6000059B9B00039A13441B680AE0059B013305
:101B70000593059B9B00039A13441B68002BE2D13D
:101B80000023184607B05DF804FB00BF00B587B01E
:101B9000039002910192019B1B689B68002B19D056
:101BA000019B1B689B680593059B1B689B6893F8CA
:101BB000B03083F00103DBB2002B0BD0059B1B6818
:101BC0009B6893F8B13083F00103DBB2002B01D0A6
:101BD000002321E0019B1B681B69002B1BD0039B8A
:101BE000043318464FF0FF3103F02AF8019B1B68BD
:101BF0001B69984703468DF81330039B043318463E
:101C000003F042F89DF8133083F00103DBB2002BA0
:101C100001D0002300E00123184607B05DF804FB63
:101C200000B587B0039002910192029BDB681B68AC
:101C30001B7A012B14BF00230123DBB2002B02D03F
:101C4000029B01225A75029B01221A75029BDB68D6
:101C5000039802991A4600F067F8019B5B68002B15
:101C600003D0019B5B6801989847019B1B685B69E7
:101C7000002B0FD0039B043318464FF0FF3102F0C6
:101C8000DFFF019B1B685B699847039B0433184681
:101C900002F0FAFF019B1B689B68002B11D0019B8F
:101CA0001B689B680593059B1B685B7983F00103A8
:101CB000DBB2002B05D0059B1B689B68002283F8D4
:101CC000B020019B1B68DB68002B06D0019B1B68C2
:101CD000DB6803981946FFF779FB019B9B68002B93
:101CE00003D0019B9B6801989847019B1B685B6828
:101CF000039802991A4600F003F807B05DF804FB58
:101D000000B585B0039002910192029B019ADA60BE
:101D1000019B5B68002B03D0019B5B68019898478F
:101D200005B05DF804FB00BF00B585B003900291DB
:101D30000192029B0022DA60019B9B68002B03D07A
:101D4000019B9B680198984705B05DF804FB00BFB4
:101D500084B0039002910192029A019B9A4203DBA4
:101D6000029A019BD31A05E0029A6FF000439B1A76
:101D7000019A1344184604B0704700BF00B583B001
:101D800001900091019B1833184604F03FFB034675
:101D900001981946009AFFF7DBFF0346184603B087
:101DA0005DF804FB00B583B00190019B1B7F042B01
:101DB00002D0052B07D00DE0019B243318460021EB
:101DC000FEF7E8F906E0019B243318460121FEF7EF
:101DD000E1F900BF03B05DF804FB00BF00B583B0BC
:101DE00001900248FEF78EFFFEE700BF94CC000092
:101DF00010B582B00190019B88331846FEF702FCB3
:101E0000019B0833002B0CD0019B03F18804019B3C
:101E100008339C4205D0403C23681B682046984705
:101E2000F5E7019B184602B010BD00BF00B583B0B6
:101E30000190019B5033184602F034FF019B184675
:101E4000FEF75AFB019B184603B05DF804FB00BF88
:101E500000B583B00190019B0D4A1A60019B0D4AA9
:101E60009A64019B0C4ADA64019B4833184604F0DB
:101E70001FFA019B1846FEF7FDF90023002B02D044
:101E8000019804F08DFD019B184603B05DF804FB3A
:101E900008DD000020DD000054DD0000A0F14C0052
:101EA000FFF7D6BFA0F14800FFF7D2BF00B583B05F
:101EB00001900198FFF7CCFF019804F071FD019BA0
:101EC000184603B05DF804FBA0F14C00EEE700BF3C
:101ED000A0F14800EAE700BF00B583B00190019B84
:101EE0000C4A1A60019B0C4A5A60019B4833184601
:101EF00004F024F8019B184604F0DAF90023002BC3
:101F000002D0019804F04CFD019B184603B05DF827
:101F100004FB00BFA0D80000D4D80000A0F104004A
:101F2000FFF7DABF00B583B001900198FFF7D4FF47
:101F3000019804F035FD019B184603B05DF804FBE1
:101F4000A0F10400EEE700BF00B583B00190019B53
:101F500028331846FEF7C4F9019B0433184602F0F3
:101F6000A1FE019B184603B05DF804FB00B587B0E5
:101F700005900491059B012B40F02281049A4FF6B5
:101F8000FF739A4240F01C818F48FEF741FB8E4858
:101F90008E498F4A04F008FD8E48FEF739FB8D48C4
:101FA0008A498B4A04F000FD8B48FEF731FB8A48D2
:101FB0008649874A04F0F8FC8848FEF729FB8748E1
:101FC0008249834A04F0F0FC8548FEF721FB8448EF
:101FD0007E497F4A04F0E8FC8248FEF719FB8148FD
:101FE0007A497B4A04F0E0FC7F48FEF711FB7E480B
:101FF0007649774A04F0D8FC7C48FEF709FB7B4819
:102000007249734A04F0D0FC7948FEF701FB784826
:102010006E496F4A04F0C8FC7648FEF7F9FA754835
:102020006A496B4A04F0C0FC7348FEF7F1FA724843
:102030006649674A04F0B8FC7048FEF7E9FA6F4851
:102040006249634A04F0B0FC6D48FEF7E1FA6C485F
:102050005E495F4A04F0A8FC6A48FEF7D9FA69486D
:102060005A495B4A04F0A0FC6748FEF7D1FA66487B
:102070005649574A04F098FC6448FEF7C9FA634889
:102080005249534A04F090FC6148FEF7C1FA604897
:102090004E494F4A04F088FC5E48FEF781FB5E4AD9
:1020A0005E4B9A605E4A5F4B9A605F485F49FEF7FD
:1020B000D3FA5D485E49464A04F076FC5D485E49C5
:1020C000FEF7CAFA5B485A49414A04F06DFC5B4886
:1020D0005B49FEF7C1FA594855493D4A04F064FC92
:1020E00058485949FEF7B8FA56485149384A04F059
:1020F0005BFC56485649FEF7AFFA54484C49344AFF
:1021000004F052FC53485449FEF7A6FA5148484996
:102110002F4A04F049FC51485149FEF79DFA4F48B7
:1021200043492B4A04F040FC4E484F49FEF794FACD
:102130004C483F49264A04F037FC4C484C49FEF7CE
:102140008BFA4A483A49224A04F02EFC49484A4947
:102150004A4A002304F002F8464849491C4A04F060
:1021600023FC484802F046FD46484749184A04F017
:102170001BFC464B0093464B0193464B02930023B6
:10218000039345484549464A464B02F0F7FD42480D
:1021900045490F4A04F008FC44484549FEF73EF81B
:1021A0004448FEF7F9F843484349094A04F0FCFB68
:1021B0004248FFF78FF841484149054A04F0F4FBD3
:1021C00007B05DF804FB00BF700D0010F11D0000AA
:1021D000C8000010280E0010E00E0010980F00102C
:1021E0005010001008110010C011001078120010DB
:1021F00030130010E8130010A01400105815001040
:1022000010160010C81600108017001038180010A3
:10221000F0180010A81900107401001050020010EE
:1022200080010010880200101C1A00100004001029
:102230002D1E0000801A001064050010E41A001022
:102240002C070010481B00101C090010AC1B0010CC
:1022500090090010101C0010040A0010741C0010DB
:10226000780A0010D81C0010EC0A00103C1D001069
:10227000EC0B0010C81D001002C0092003C009208B
:10228000511E0000281E0010A54C00001AC0092095
:102290003EC009203FC009203C1E001017C0092085
:1022A00018C0092019C00920D91E0000D41E001032
:1022B00040C00920EC1E0010F9040000401F00106F
:1022C000491F000008B501204FF6FF71FFF74EFED1
:1022D00008BD00BF0C4A30B4936894681A46B4F144
:1022E000805F0CD2094A03F1C40553F8044BAB429A
:1022F00042F8044FF9D1044B4FF080529A601030ED
:1023000042F8201030BC704700ED00E0FCFFFF0FEA
:102310002B4A202370B4C2F8A031D2F8A03198061D
:1023200045D4274B022100250124AA2055220B2643
:10233000C3F80411C3F8A8511946C3F8AC51C3F847
:102340000C41C3F88460C3F88C00C3F88C20C3F838
:102350008040C3F88C00C3F88C20D1F88830184A2C
:102360005B01FAD50321AA205523C2F88010C2F8D8
:102370008C001146C2F88C30D1F88830104A13F026
:10238000407FF9D00F4900230520C2F80801C2F8A8
:10239000C410C2F8C831136870BC23F4704323F032
:1023A0003A0343F4405343F03A0313607047D2F8C2
:1023B000A0315906B5D4D2F8A0315906F7D5B0E707
:1023C00000C00F40DE87280400B599B072B63B49C3
:1023D000684604F0BBF806A8394904F0B7F80CA821
:1023E000384904F0B3F812A8374904F0AFF832E0E6
:1023F0000699039B019A01311A6059D00C990A9BE6
:10240000079A01311A604DD01299109B0D9A013133
:102410001A6041D0159B139A96201A6004F0F8F9BF
:10242000009B013332D00699049B019A01311A6056
:1024300026D00C99099B079A01311A601AD012997B
:102440000F9B0D9A01311A600ED0169B139A96209D
:102450001A6004F0DDF9009B0133C9D11B481C4907
:10246000242204F021F8C3E718481949242204F073
:102470001BF8EAE715481649242204F015F8DEE7B0
:1024800012481349242204F00FF8D2E70F481049EC
:10249000242204F009F8C6E70C480D49242204F070
:1024A00003F8B7E709480A49242203F0FDFFABE728
:1024B00006480749242203F0F7FF9FE732C00920AE
:1024C00034C0092035C0092037C0092014D70000C6
:1024D0002CD70000036870B51B6900210122044657
:1024E0009847431C05460ED0236820461B690021EF
:1024F000022298472368064629461B692046002287
:102500009847304670BD70BD084A094B10B4026050
:1025100003F58071002453F8042B824208BF43F86E
:10252000044C8B42F7D15DF8044B7047B8D70000DC
:10253000B01F00100A4A0B4B10B503F5807104461A
:102540000260002053F8042B944208BF43F8040CA7
:102550008B42F7D1204604F023FA204610BD00BF7D
:10256000B8D70000B01F001002480349034A03F027
:10257000ADBB00BF702E001002C0092003C00920AF
:10258000F0B50E4685B03549054605F002F920B98B
:10259000334B1B6863B105B0F0BD2846314905F0E7
:1025A000F8F878B92E4B1B6843B1012005B0F0BD97
:1025B0000190FFF7D9FF019805B0F0BDFFF7D4FFF8
:1025C0000120E8E72846284905F0E3F810B3274B37
:1025D000002402E00134402C21D053F8040F0028DD
:1025E000F8D12B783A2B32D0294602A803F03CFDD3
:1025F00002A803F08BFD90B102A803F06FFD88B133
:1026000002A803F075FD03464BB1194AE01C42F8DD
:102610002430C0E7124B1B68ABB10220BBE74FF080
:10262000FF30B8E702A803F04DFD05460028F6D0BC
:10263000036802A89F6803F043FD3246014628461E
:10264000B8470346E0E7FFF78FFF0220A3E72846DD
:10265000084902AA05F02EF8029BD5E794D700009E
:10266000DC2C0010A4D700009CD70000AC1F001089
:10267000B01F0010E0D70000022808B50BDD084BA2
:10268000C21E53F82200002143F8221028B103682B
:102690005B68984708BD002008BD4FF0FF3008BDBB
:1026A000B01F0010022870B50C4616460FDC0E4B0A
:1026B0001B680BB9FFF758FFA51936B114F8011BB9
:1026C0000A4803F053FAAC42F8D1304670BD084BCB
:1026D000033853F8200018B103681B68984770BD91
:1026E0004FF0FF3070BD00BFDC2C0010702E0010CA
:1026F000B01F0010022810B50C4609DC0D4B1B68FA
:102700008BB10D4803F0D6F901232070184610BD97
:102710000A4B033853F8200040B103689B68984780
:102720000346184610BDFFF71FFFEAE74FF0FF33DF
:10273000ECE700BFDC2C0010702E0010B01F001062
:10274000022808B508DD074B033853F8200028B1EC
:102750000368DB68984708BD012008BD4FF0FF30D3
:1027600008BD00BFB01F0010022808B508DD074BE8
:10277000033853F8200028B103681B69984708BD47
:10278000002008BD4FF0FF3008BD00BFB01F001093
:10279000022808B504D84FF400534B60002008BD50
:1027A00004F028F9092303604FF0FF3008BD00BF93
:1027B00008B5012003F0A0FE074A13681844EFF3A0
:1027C0000881884202D2106018467047034B0C22E1
:1027D0001A604FF0FF307047140C0010782E001074
:1027E0000649074A074B9A42BEBF51F8040B42F80C
:1027F000040BF8E70448804704480047FCE1000068
:10280000C80000104C0D0010112300002101000031
:10281000FEE7FEE7FEE7FEE7FEE7FEE7FEE7FEE790
:10282000FEE7FEE780F309887047EFF30980704701
:10283000684680F3098841480078C00714BF022029
:10284000032080F314887047DFF8F4C0EFF30583AA
:102850001B0618BF6047EFF31483DB0708BF604710
:1028600000DF7047DFF8DCC0EFF305831B0618BFFD
:102870006047EFF31483DB0708BF604700DF704752
:10288000EFF30980816911F8021CF9B990E80F1083
:10289000E047EFF3098C8CE807002B4B93E8060028
:1028A000914200F0108039B12CE9F00FC1F824C03A
:1028B0000CB400F095FD0CBC1A60D2F824C0BCE842
:1028C000F00F8CF309886FF0020E704710B51F4AA5
:1028D0001268914200F20A801D4C54F8214090E8A1
:1028E0000F10A047EFF3098C8CE80F0010BD00F02B
:1028F000E3FC154B93E80600914200F01180EFF3E2
:10290000098C2CE9F00FC1F824C00CB400F068FD6C
:102910000CBC1A60D2F824C0BCE8F00F8CF3098814
:102920006FF0020E704700F035FDFFF7E2BF00F0D8
:102930002FFD00F02FFDFFF7DCBF0000F8D70000EF
:10294000E12D0000192E0000B02000100000000052
:10295000FCFFFFFF84B01A4B194A126842F47F0251
:102960001A60174B1B681B0203F07F43DB43019384
:10297000019BB3FA83F38DF803309DF80330C3F164
:10298000080303930F4B1B681B0A03F00703029312
:10299000029A039B9A4202DB029B013303930A4B88
:1029A0006FF08071039A01FA02F202F07F41064A49
:1029B000126822F07F420A431A6004B0704700BFD9
:1029C00020ED00E00CED00E01CED00E082B0012302
:1029D00001930BE0019B5A1E094B53F82230002B48
:1029E00001D1019B09E0019B01330193054B1B8839
:1029F0001A46019B9A42EDD20023184602B0704756
:102A000080230010EED7000000B585B003900B4680
:102A100001928DF80B30039B00221A70039B012258
:102A20005A70039B9DF80B209A70039B00225A60FA
:102A3000039B00229A60039B0022DA60039B002222
:102A40001A61039B00229A82039B0022DA82039B75
:102A500000221A83039B00225A83039B002283F8DF
:102A600020200398019902F053F805B05DF804FBAB
:102A700082B00190034B019A5A60019B02225A7066
:102A800002B07047B020001000B583B00190019BE8
:102A9000002B07D1124801F095FE01900198FFF735
:102AA000E7FF1AE0019B9A780E4B1B689B789A42CD
:102AB0000CD90C4B1B68184601F0B0FE094B1B6883
:102AC00001225A700198FFF7D3FF06E0019B012213
:102AD0005A700348019901F035FE03B05DF804FB1C
:102AE000E82B0010B020001000B585B002460B4660
:102AF000ADF806208DF80530BDF80630002B19D052
:102B0000BDF806204FF6FF739A4207D00B4B1A68A8
:102B1000BDF806301046194601F0B6FE074B1B689B
:102B20009DF805205A70064801F04CFE039003986A
:102B3000FFF79EFF05B05DF804FB00BFB02000105A
:102B4000E82B0010054B1B68002B01D1002302E08D
:102B5000024B1B68DB781846704700BFB02000109E
:102B600000B585B001900B468DF80330019B002B1A
:102B70001AD1264B1B689DF803209A70244B5B6882
:102B80009B789DF803209A420CD2204B1B6820486A
:102B9000194601F0D7FD1D4B1B6801225A70002019
:102BA000FFF772FF00232DE01A4B1B881A46019B8A
:102BB0009A4206D3019B5A1E174B53F82230002B22
:102BC00001D1FF231EE0019B5A1E134B53F8223004
:102BD0000393039B9DF803209A700C4B1A68039B88
:102BE0009A4200D1CAE7039801F028FE039B5B7864
:102BF000012B06D1064801F0E5FD03900398FFF78D
:102C000043FF0023184605B05DF804FBB020001018
:102C1000E82B0010EED700008023001010B584B020
:102C20000190019B002B06D0264B1B68DB781A46CF
:102C3000019B9A421ED1234B1B6800225A70214BE4
:102C40001C68FFF7F2FD0346636200F0C9FB1D4BF1
:102C50001B68DB785A1E1C4B002143F82210194BCD
:102C60001B6800229A62174B00221A600020FFF7AF
:102C70000BFF23E0154B1B881A46019B9A4206D393
:102C8000019B5A1E104B53F82230002B01D1FF2319
:102C900015E0019B5A1E0C4B53F822300393039806
:102CA00001F0B6FE039801F0E1FE019B5A1E064BAF
:102CB000002143F82210039B00229A620023184649
:102CC00004B010BDB020001080230010EED700002B
:102CD00000B583B00023019307E0234B019A002144
:102CE00043F82210019B01330193204B1B881A46A5
:102CF000019B9A42F1D81E4BFF22DA701D4B1A88B5
:102D00001B4B5A841A4B1C4A9A62194800211B4AD1
:102D1000FFF77AFE1A4B04221A70194B00225A60F0
:102D2000184B04221A70174B0022DA60154B002250
:102D30001A61144B00229A82134B0D4A1A60124BEF
:102D40001B6802225A70114B00221A700F4B00228E
:102D50005A700E4B0E4A1278DA7000F083F8FFF7C3
:102D6000F9FD03B05DF804FB80230010EED70000EE
:102D7000B820001000D80000FC200010C94300005B
:102D8000E82B0010002C0010B0200010FC220010D6
:102D900002D8000008B500F0F3FA02460F4B1A60A3
:102DA0000E4B1B68002B17DB0C4B1B6803F16043B9
:102DB00003F56443FF221A70084B1B685B119B00EC
:102DC00003F1604303F56143044A126802F01F02F5
:102DD000012101FA02F21A6008BD00BFF0200010C4
:102DE00086B00190EFF31083039372B6039B03F058
:102DF00001030593019B1B680493049B002B03D0E4
:102E0000049B1A68019B1A60059B002B00D162B6D7
:102E1000049B184606B0704784B001900091009A58
:102E2000019B9A4204D3019B5A68009B9A4201D8A5
:102E3000012313E0EFF31083029372B6029B03F0B9
:102E400001030393019B1A68009B1A60019B009A7F
:102E50001A60039B002B00D162B60023184604B011
:102E6000704700BF044B00221A60044B1B689AB2E3
:102E7000014BDA80704700BFE8200010F0D7000057
:102E800000B583B0144B1A68144B5B689A420ED09D
:102E9000124B5A68104B1A60114B1B689AB20E4BBA
:102EA000DB8813449BB2013B9AB20B4B9A800A4BCE
:102EB0009A880B4B1B689BB29A420AD1064B0022A0
:102EC0001A60064801F07EFC01900448019901F067
:102ED00039FC03B05DF804FBE8200010E82B00107B
:102EE000E42B001084B001900B46ADF80230019B3A
:102EF0000393039B01221A70039B00225A70039BC9
:102F000000229A70039B00225A60039B00221A81C0
:102F1000039B00225A81039B00229A81BDF8023054
:102F2000103B9B089AB2039BDA8104B0704700BF44
:102F300000B589B0039002911346ADF80630039BAB
:102F40000793079B9B89002B53D0079B5B891A46ED
:102F5000079B043253F82220029B1A60079B5B896F
:102F600001339AB2079B5A81079B5A89079BDB89D9
:102F70009A4202D1079B00225A81079B5B68002B73
:102F80002AD0079B5B78022B26D1079801F01AFC08
:102F900006900698002101F00BFE079B1B891A463C
:102FA000069BD969079B043243F82210079B1B89B3
:102FB00001339AB2079B1A81079B1A89079BDB8909
:102FC0009A4202D1079B00221A81069801F04EFD19
:102FD0000698FFF759FD0AE0EFF31083059372B6E8
:102FE000079B9B89013B9AB2079B9A8162B600239B
:102FF00026E0BDF80630002B01D1012320E0079B1D
:103000005B68002B06D0104B1B680798194601F02F
:1030100099FB0EE00C4B1A68079B5A600A4B1B6821
:1030200000225A60084B1B68079A9A60079B01228E
:103030005A70BDF8063018460821FFF755FD0123E8
:10304000184609B05DF804FBB020001084B0019070
:10305000019B0393039BDB891A46039B9B89D31A2D
:10306000184604B0704700BF00B585B001900091CC
:10307000019B0393009B0398194601F01FFD00F08C
:1030800007F905B05DF804FB00B585B0019000912B
:10309000019B0393039B9B89002B2ED0039B5B8991
:1030A0001A46039B043253F82220009B1A60039BAC
:1030B0005B78022B05D10398002101F0FFFC00F0A2
:1030C000E7F8EFF31083029372B6039B9B89013BF1
:1030D0009AB2039B9A8162B6039B5B8901339AB2D1
:1030E000039B5A81039B5A89039BDB899A4202D135
:1030F000039B00225A81042300E00023184605B0F8
:103100005DF804FB00B587B001900091019B5B68FE
:10311000002B70D0019B5B78022B20D0032B02D0B8
:10312000012B52D093E00098FFF75AFE0590059BC3
:10313000002B00D15EE0019801F044FB0490059B58
:103140000498194601F034FD049B01225A7004983A
:1031500001F08CFC3F48049901F0F4FA4AE0019830
:1031600001F030FB04900498002101F021FD019B47
:103170001B891A46049BD969019B043243F822102B
:10318000EFF31083039372B6019B9B8901339AB2CC
:10319000019B9A8162B6019B1B8901339AB2019B04
:1031A0001A81019B1A89019BDB899A4202D1019BFA
:1031B00000221A81049B01225A70049801F056FCE7
:1031C0002448049901F0BEFA14E0019801F0FAFADB
:1031D0000490009B049810211A4601F0F7FC049B10
:1031E00001225A70049801F041FC1A48049901F038
:1031F000A9FA00BF2BE0019B9A89019BDB899A42C7
:1032000022D2019B1B891A46019B0432009943F884
:103210002210EFF31083029372B6019B9B89013356
:103220009AB2019B9A8162B6019B1B8901339AB2C3
:10323000019B1A81019B1A89019BDB899A4206D165
:10324000019B00221A8102E0032001F0BFF807B0C1
:103250005DF804FBE82B0010084B094A12681A605D
:10326000084B00221A60084B07221A60074B074AD6
:10327000126842F07F421A60704700BF14E000E01D
:10328000F4D7000018E000E010E000E020ED00E0DE
:10329000064B1B78DBB2002B04D1054B4FF080525C
:1032A0001A6002E0034B01221A707047F4200010EC
:1032B00004ED00E0F520001000B585B02C4B1B6834
:1032C00001225A702A4B1B68184601F0A7FA294BB5
:1032D0005B78039339E0274A039BDB0013445B6868
:1032E0000293029B1B78002B0AD1224A039BDB002E
:1032F00013449B689BB20298194600F0E7FF10E068
:10330000029B1B78012B09D11A4A039BDB00134453
:103310009B6802981946FFF7F5FE02E0029801F05B
:103320002DF8039B01330393124BDB78039A9A42E7
:1033300001D100230393EFF31083009372B60E4B79
:103340001A78013AD2B21A7062B60A4B9B78002BF7
:10335000C1D1084B039AD2B25A70084801F032FA30
:1033600001900198FFF784FB05B05DF804FB00BFF6
:10337000B0200010FC220010FE220010E82B0010EC
:1033800008B5FFF769FF4FF0FF33184608BD00BFCF
:10339000704700BF00B583B00E4B1B6801225A7006
:1033A0000C4B1B68184601F039FAFFF769FD0A4B10
:1033B0001B685A1C084B1A6001F0C6FA00F0FCFAB0
:1033C000064801F0FFF901900198FFF751FB03B0A7
:1033D0005DF804FBB0200010E42B0010E82B001077
:1033E00008B50C4B1B68DB78012B11D0094B1B680F
:1033F0005A6A084B1B689B6A9A4206D3054B1B68A6
:103400009B6A1A68044B9A4202D0012000F0DEFF4A
:1034100008BD00BFB0200010A52E5AE284B0019074
:10342000019BB3F1FF3F02D14FF6FF731DE0019AFC
:103430000F4B9A4202D94FF6FE7316E0019B4FF4F0
:103440007A7202FB03F20B4B1B6813445A1E094BA2
:103450001B68B2FBF3F30393039A4FF6FE739A4291
:1034600002D94FF6FE7300E0039B184604B0704784
:1034700000093D00FCD7000084B00190019B002BA7
:1034800001D100230FE0019B03F00303002B01D0C7
:10349000002308E0019B0393039B1B78002B01D0C2
:1034A000002300E0039B184604B0704782B00190EF
:1034B000019B03F00303002B01D0002300E0019BDC
:1034C000184602B0704700BF08B50A4B1B78002BA6
:1034D00001D000230CE0FFF7FBFB074B1B68FF222A
:1034E0009A70002000F07AFF024B01221A7000232C
:1034F000184608BDF6200010B020001000B583B0BB
:10350000164B1B78002B01D0002322E01448002129
:1035100000F0D0FC0246134B1A601348002100F063
:10352000ABF80246114B1A6000200021FFF718FB90
:103530000F4B1B685B6A20330193019B83F309885F
:103540000B4B00221A60FFF725FC044B01221A7076
:103550000023184603B05DF804FB00BFF7200010FD
:10356000580C0010E02B0010180C0010BC2B0010A1
:10357000B020001010B582B0EFF305840194019CD7
:10358000002C01D082230FE0EFF314840094009C00
:1035900004F00104002C03D1FFF796FF034603E07B
:1035A000DFF80CC000DF0346184602B010BD000073
:1035B000C934000010B58EB0EFF305840D940D9C56
:1035C000002C01D082234FE0EFF314840C940C9C68
:1035D00004F00304032C43D80FF2040C5CF824F02D
:1035E000F1350000293600002D3600004F3600006E
:1035F0006C4620340B940B9C84F309881C4C247873
:1036000004F00104002C05D002240A940A9C84F3DF
:10361000148804E003240994099C84F31488BFF3FC
:103620004F8FBFF36F8F1BE0FF231DE0104C2478FA
:1036300004F00104002C09D103240894089C84F3AD
:103640001488BFF34F8FBFF36F8F09E008E0084C79
:10365000247804F00104002C01D0FF2304E000BF13
:10366000DFF810C000DF034618460EB010BD00BFE3
:10367000F8D70000FD34000000B587B0019000913C
:10368000019B002B16D0019B1B68002B12D0019BC5
:103690009B881BB213F1030F0CDB019B9B881BB2B1
:1036A000032B07DC019B9B68002B03D0019BDB688D
:1036B000002B04D1802000F091FE002339E0019B13
:1036C0009B88DBB204338DF81730019B10330493D1
:1036D000019BDA68049B9A62019B9B689AB2049BE7
:1036E0005A84049B009ADA61019B1B689DF817209D
:1036F000049811461A46FFF787F9FFF767F9039018
:10370000039B5A1E0D4B049943F82210039BDAB217
:10371000049BDA700498FFF7B7F9039B5A1E074B16
:1037200053F822300293029B5B6A3433044A1A60D6
:10373000029B184607B05DF804FB00BF8023001011
:103740006138000000B583B0FFF7FCF90190019BE0
:10375000002B01D1002304E0019B5A1E034B53F8B8
:103760002230184603B05DF804FB00BF8023001030
:1037700000B585B001900198FFF77EFE0390039B92
:10378000002B01D180230BE0039BDB781846FFF769
:1037900045FA0290029BFF2B01D1812300E0002318
:1037A000184605B05DF804FB00B587B001900091A4
:1037B000EFF3058105910599002901D000231BE055
:1037C000EFF314810491049901F00101002909D15A
:1037D0000B490978002905D101980099FFF74CFFA2
:1037E000034609E001990391009902910398029917
:1037F000DFF810C000DF0346184607B05DF804FB91
:10380000F72000107936000010B582B0EFF3058480
:103810000194019C002C01D0002303E0DFF80CC0D0
:1038200000DF0346184602B010BD00004537000017
:1038300000B585B00190EFF3058003900398002850
:1038400001D0822306E0019802900298DFF80CC0B4
:1038500000DF0346184605B05DF804FB7137000031
:1038600000B583B0DFF810C000DF01900198DFF8E9
:103870000CC000DFFEE70000453700007137000094
:1038800000B583B00190019B002B01D1002308E01B
:103890000198FFF7C3FD03469BB2184600F0D4FD24
:1038A0004023184603B05DF804FB00BF00B585B0A7
:1038B0000190EFF3058003900398002801D0822344
:1038C00006E0019802900298DFF80CC000DF034682
:1038D000184605B05DF804FB8138000084B0019003
:1038E0000091002302931B4B1B68039310E0039B82
:1038F0001B891A46009B9A4200D90CE0039B1B8946
:10390000009AD31A0093039B0293039B1B680393B3
:10391000039B002BEBD1019B039A1A60009B9AB288
:10392000019B1A81039B002B07D0039B1A89019BE3
:103930001B89D31A9AB2039B1A81029B002B03D0D6
:10394000029B019A1A6002E0024B019A1A6004B0CD
:10395000704700BFF820001000B587B001900198B3
:10396000FFF7A4FD0590059B002B0ED100230393C8
:1039700000230493039B1846049B19464FF0000252
:103980004FF0000302460B4610E0059B1B691B68C5
:103990000393059BDB680493039B1846049B19461D
:1039A0004FF000024FF0000302460B461046194646
:1039B00007B05DF804FB00BF00B583B01A4B1B686D
:1039C0000193019B002B00D12BE0019B1B89013B44
:1039D0009AB2019B1A811DE0019B0093019B1B6819
:1039E0000193114B019A1A60104B1A68009B104604
:1039F0001946002200F0FAFA009B5B79012B06D1F0
:103A0000009B5B8900981946FFF768FF02E0009B66
:103A100001221A71019B002B03D0019B1B89002BF3
:103A2000DAD003B05DF804FBF8200010E02B0010A2
:103A300000B585B001900091009803900398DFF8DD
:103A40001CC000DF0B461A46019B1860019B5A60A0
:103A500000BF019805B05DF804FB00005939000073
:103A600000B589B001900D4B1B6803AA104619469A
:103A70004FF0FF3200F01CFB039B102B0DD1049B79
:103A800006AA10461946FFF7D3FF069B002B04D069
:103A9000069B079A10469847E5E7E4E7E02B0010FD
:103AA00000B585B0019000910198FFF7E5FC039007
:103AB000039B002B02D14FF0004313E0009B1B0C33
:103AC0001B04002B02D04FF000430BE0039B1B8B29
:103AD0000293009B9AB2039BDB781046194600F0D4
:103AE00077FB029B184605B05DF804FB2DE9F04317
:103AF00087B001900091019B1B0C1B04002B0ED082
:103B000086230293029B002600274FF000084FF007
:103B100000091E4632463B4644464D4642E0019B64
:103B2000002B0DD0019B9CB20098FFF777FC034659
:103B30009BB220461946012200F0E6FA05900BE000
:103B40000098FFF76BFC03469BB24FF6FF701946D7
:103B5000002200F0D9FA0590059B022B0BD1082317
:103B60000293019B002B03D1144B1B685B8B00E07D
:103B7000019B039308E0009B002B01D0402300E051
:103B80000023029300230393029A039B002600273D
:103B90004FF000084FF0000916461F4632463B46DC
:103BA00044464D4616461F46A046A946304639466D
:103BB00042464B4607B0BDE8F08300BFB02000107E
:103BC00000B585B0019000910198FFF755FC039076
:103BD000039B002B02D14FF0004313E0009B1B0C12
:103BE0001B04002B02D04FF000430BE0039B1B8B08
:103BF0000293009B9AB2039BDB781046194600F0B3
:103C000047FB029B184605B05DF804FB00B587B082
:103C100001900091EFF3058105910599002905D0E8
:103C200001980099FFF7CCFF034609E00199049140
:103C30000099039104980399DFF80CC000DF034654
:103C4000184607B05DF804FBA13A000000B58BB040
:103C5000039002910192EFF30581099109990029DE
:103C600007D082230493039B04AA07CA83E80700B2
:103C700013E0029908910199079108980799DFF8D4
:103C800024C000DF0346184613461A46039B1860FB
:103C9000039B5960039B9A6000BF03980BB05DF8CB
:103CA00004FB0000ED3A000000B585B00190019BD7
:103CB000002B04D1802000F091FB002317E0019B32
:103CC0001B680393039B002B04D1802000F086FB2C
:103CD00000230CE0039B1B78002B04D0802000F015
:103CE0007DFB002303E0039800F0BCFB039B184618
:103CF00005B05DF804FB00BF00B585B001900091F0
:103D00000198FFF7D3FB0390039B002B01D1802385
:103D10001AE0039B1B78032B01D0802314E000984A
:103D2000FFF77CFB03469BB20398194600F080FC2A
:103D30000290029B012B06D1009B002B01D0C123D6
:103D400000E0812300E00023184605B05DF804FB85
:103D500000B585B001900198FFF7A8FB0390039B85
:103D6000002B01D180230FE0039B1B78032B01D094
:103D7000802309E0039800F0E1FB0290029BFF2BF7
:103D800001D1812300E00023184605B05DF804FB53
:103D900000B585B001900198FFF788FB0390039B65
:103DA000002B01D1802309E0039B1B78032B01D05A
:103DB000802303E0039800F06BFB0023184605B056
:103DC0005DF804FB00B587B00190EFF30580059026
:103DD0000598002801D0002317E0EFF31480049029
:103DE000049800F00100002808D10A480078002853
:103DF00004D10198FFF758FF034606E001980390AD
:103E00000398DFF814C000DF0346184607B05DF8DA
:103E100004FB00BFF7200010A93C000000B587B0EC
:103E200001900091EFF3058105910599002901D0DA
:103E3000822309E001990491009903910498039960
:103E4000DFF80CC000DF0346184607B05DF804FB3E
:103E5000F93C000000B585B00190EFF305800390B8
:103E60000398002801D0822306E00198029002986E
:103E7000DFF80CC000DF0346184605B05DF804FB10
:103E8000513D000000B585B00190EFF3058003902F
:103E90000398002801D0822306E00198029002983E
:103EA000DFF80CC000DF0346184605B05DF804FBE0
:103EB000913D000000B583B001900091019B002B63
:103EC00007D0019B1B68002B03D0019B5B68002B74
:103ED00004D1802000F082FA002317E0019B5B6888
:103EE0001B78002B04D0802000F078FA00230DE02E
:103EF000019B5A68019B1B6804339BB29B009BB2D9
:103F000010461946FEF7EEFF019B5B68184603B0AA
:103F10005DF804FB2DE9F04387B001900091019B0F
:103F2000002B0ED180230293029B002600274FF026
:103F300000084FF000091E4632463B4644464D46B7
:103F400048E0019B1B78012B0ED080230293029B3B
:103F5000002600274FF000084FF000091E463246A9
:103F60003B4644464D4635E00098FFF757FA034676
:103F70009BB202AA0432019811461A46FEF7D8FFF6
:103F80000590059B012B15D1009B002B01D04023F0
:103F900000E000230293029A039B002600274FF0C3
:103FA00000084FF0000916461F4632463B4644467D
:103FB0004D460FE010230293029A039B0026002730
:103FC0004FF000084FF0000916461F4632463B46A8
:103FD00044464D4616461F46A046A9463046394639
:103FE00042464B4607B0BDE8F08300BF00B585B040
:103FF000039002910192039B002B02D0019B002BA6
:1040000001D0802313E0039B1B78012B01D0802378
:104010000DE00398FFF71AF80346002B01D1812326
:1040200005E0029B03981946FFF71EF80023184687
:1040300005B05DF804FB00BF00B589B003900291A4
:104040000192029B002B02D0019B002B07D0802302
:104050000493039B04AA07CA83E8070024E0029B99
:104060001B78012B07D080230493039B04AA07CA63
:1040700083E8070018E004AB043302981946FFF701
:1040800003F80790079B042B07D000230493039B9E
:1040900004AA07CA83E8070006E010230493039BE1
:1040A00004AA07CA83E80700039809B05DF804FB77
:1040B00000B589B0039002910192EFF30581079159
:1040C0000799002906D0039B18460299019AFFF729
:1040D000B3FF13E00299069101990591069805999D
:1040E000DFF820C000DF0346184613461A46039B3C
:1040F0001860039B5960039B9A6000BF039809B046
:104100005DF804FB153F000000B585B00B4600923A
:104110000246ADF80620ADF80430009B002B1DD000
:104120002A4B1B681A8BBDF8063013409BB2BDF8B2
:1041300006209A420FD1254B1B68244A1268128B25
:1041400091B2BDF80620D24392B20A4092B292B226
:104150001A83022335E00623039324E01B4B1B68DC
:104160001A8BBDF8063013409BB2002B19D0174BA9
:104170001B68164A1268118BBDF806200A4092B2DD
:104180005A83124B1B68114A1268128B91B2BDF808
:104190000620D24392B20A4092B292B21A8302230C
:1041A0000FE005230393094B1B68BDF806205A83D3
:1041B000039BDBB2BDF8042010461946FEF794FCC1
:1041C0000123184605B05DF804FB00BFB0200010C5
:1041D00000B585B003460091ADF80630009B5A1E2D
:1041E0002A4B53F822300393039B002B00D14AE063
:1041F000039B1A8BBDF8063013439AB2039B1A83B4
:10420000039B5B8BADF80630039B5B78062B0AD1D2
:10421000039B1A8BBDF8063013409BB2BDF80620F5
:104220009A4200D113E0039B5B78052B2BD1039BB3
:104230001A8BBDF8063013409BB2002B23D0039B92
:104240005A8B039B1B8B13409AB2039B5A83039B8D
:104250001B8B9AB2BDF80630DB439BB213409BB276
:104260009AB2039B1A83039800F000FC039B01227F
:104270005A70039B5B8B039808211A4600F0A6FC3A
:104280000398FEF701FC05B05DF804FB80230010E5
:1042900000B585B003460091ADF80630009B5A1E6C
:1042A000094B53F822300393039B002B00D107E006
:1042B000BDF806300398194600F000FCFEF7E8FF51
:1042C00005B05DF804FB00BF8023001000B585B089
:1042D00001900B46ADF80230019B1A8BBDF80230FD
:1042E00013439AB2019B1A83019B5B8BADF80E308E
:1042F000019B5B78062B0AD1019B1A8BBDF80E300F
:1043000013409BB2BDF80E209A4200D113E0019BEE
:104310005B78052B2CD1019B1A8BBDF80E30134016
:104320009BB2002B24D0019B5A8B019B1B8B13400B
:104330009AB2019B5A83019B1B8B9AB2BDF80E3037
:10434000DB439BB213409BB29AB2019B1A83019844
:1043500000F08CFB019B01225A70019B5B8B019842
:1043600008211A4600F032FC0348019900F0EAF9EE
:1043700005B05DF804FB00BFE82B001000B585B068
:104380000190019B5B68002B12D0019800F01AFA93
:104390000390039800F06AFB039B01225A70039874
:1043A000012100F005FC0748039900F0CBF905E076
:1043B000019B5B8801339AB2019B5A8005B05DF87E
:1043C00004FB00BFE82B0010FEE700BF00B583B080
:1043D0000190FDF7F9FF03B05DF804FB00B583B071
:1043E0000190019B002B01D0FDF7EEFF03B05DF8BB
:1043F00004FB00BF0449054AC1F1805303F5F843AB
:104400009360D160704700BF802E0010600C0010D8
:104410000020002104460D46094802F0D5FA02F0BA
:1044200039FE20462946FFF7A5F8FFF7E3FF0548C8
:104430000021FFF7B9F9FFF7BDF802F05DF80000C1
:104440001D6E0000600C001000B583B00346ADF88F
:104450000630BDF8063018460321FEF745FB03B0D1
:104460005DF804FB84B00190019B0393039B03223E
:104470001A70039B00225A70039B00225A80039BF0
:1044800000225A60039B00229A6004B0704700BF6C
:1044900000B585B00190019B0393039B5B88002BC3
:1044A00010D0039B9B68039A52789A70039B9A687A
:1044B000204B1B689A4205D0039B9B68184600F06E
:1044C000BDF912E011E0039800F07CF90290029827
:1044D000002100F06DFB029800F0C8FA029B012257
:1044E0005A701548029900F02DF9039B5B68002B68
:1044F000E9D1114B5B68002B14D00F4B5B689A78A5
:104500000C4B1B689B789A420CD90A4B1B680A48D3
:10451000194600F017F9074B1B6801225A7000205A
:10452000FEF7B2FA039B00221A700023184605B06A
:104530005DF804FBB0200010E82B001000B585B03A
:104540000190019B0393039B5B88002B05D0039B89
:104550009A68354B1B689A4201D0FF2360E0039BA9
:104560005B88013B9AB2039B5A80039B5B88002BBC
:1045700001D0002354E02C4B1B68039A52789A70A8
:10458000039B5B68002B35D0039800F01BF9029069
:104590000298002100F00CFB029800F067FA039BE0
:1045A00001225A80039B029A9A60029B9A78039B8D
:1045B0005A701D4B1B689A781C4B5B689B789A421B
:1045C00003D30298FEF760FA29E0174B1B681748DF
:1045D000194600F0B7F81548029900F0B3F8124BED
:1045E0001B6801225A70029B01225A700020FEF7BC
:1045F0004BFA14E00D4B5B689A780B4B1B689B7869
:104600009A420CD9084B1B680848194600F09AF8E2
:10461000054B1B6801225A700020FEF735FA002373
:10462000184605B05DF804FBB0200010E82B001020
:1046300000B585B001900B46ADF80230019B0393A5
:10464000039B5B88002B09D1284B1A68039B9A6057
:10465000264B1B689A78039B5A7005E0039B9A6867
:10466000224B1B689A4207D1039B5B8801339AB2A5
:10467000039B5A80002335E0BDF80230002B01D1A6
:1046800001232FE0039B5A78184B1B689B789A42B2
:104690000AD2039B9B68154A126892789A70039B12
:1046A0009B68184600F0CAF8039B5B68002B06D095
:1046B0000E4B1B680398194600F044F80BE00B4BB7
:1046C0001A68039B5A60094B1B6800225A60074B0B
:1046D0001B68039A9A60BDF8023018460921FEF75C
:1046E00003FA0123184605B05DF804FBB020001062
:1046F00088B0039002910192EFF31083059372B694
:10470000029B1B780793079A039B9A4215D2079B3B
:10471000DBB20133DAB2029B1A70019B1B7807935C
:10472000079B01330693069A039B9A4201D100230B
:104730000693069BDAB2019B1A7062B6079B184675
:1047400008B0704786B00190009100230493019B4C
:104750001B78022B07D0019B1B78012B03D0019BF8
:104760001B78032B01D101230493009B9B780393B7
:10477000019B5B68059304E0059B0193059B5B68C7
:104780000593059B002B05D0059B9B781A46039B40
:104790009A42F1D2009B059A5A60019B009A5A6096
:1047A000049B002B09D0059B002B02D0059B009A8F
:1047B0009A60009B019A9A6002E0009B00229A6036
:1047C00006B0704784B00190019B5B680393039B24
:1047D0005A68019B5A60019B1B78022B07D0019BF2
:1047E0001B78012B03D0019B1B78032B0ED1039B5D
:1047F0005B68002B06D0039B5B68019A9A60039B61
:1048000000225A60039B00229A6002E0039B002270
:104810005A60039B184604B0704700BF82B00190F5
:10482000054B5A68019B5A60019B00229A60024B1B
:10483000019A5A6002B07047E82B001000B585B0AD
:104840000190019B9B68002B06D1019B5B78012B9B
:1048500014D10C4B03930AE0019B9B68039302E085
:10486000039B9B680393039B1B78002BF8D0019854
:1048700000F0CEF803980199FFF764FF05B05DF8EA
:1048800004FB00BFE82B001086B001900B46ADF88A
:104890000230BDF8023003932A4B0593059BDB6879
:1048A000002B02D10023049307E0264B9B8A04933C
:1048B00020E0059BDB68002B14D1019B0022DA600D
:1048C000059B019ADA60019B059A1A61039B9AB2D3
:1048D000049B9BB2D31A9AB2059B9A82019B002239
:1048E0009A822DE0059BDB680593059B9B8A049AC1
:1048F00013440493049A039B9A42DAD3059BDA6823
:10490000019BDA60059B019ADA60019B059A1A61A6
:10491000019BDB68002B03D0019BDB68019A1A61C5
:10492000049B9AB2039B9BB2D31A9AB2019B9A82C0
:10493000059B9A8A019B9B8AD31A9AB2059B9A82FD
:1049400006B07047002C001000B583B02D4BDB681B
:10495000002B00D153E02B4B9B8A013B9AB2294B91
:104960009A8244E0274BDB680193019B9B68002BF4
:1049700013D0019B9B68019A52685A60019B5B6847
:10498000002B07D0019B5B68019A92689A60019B9B
:1049900000225A60019B00229A601B480199FFF790
:1049A000D1FE019B9A8A174B9A82019B5B78042B5C
:1049B00008D1019BDA8A154B1B689BB213449AB24B
:1049C000019B9A82019B01225A70019BDA680D4B70
:1049D000DA60019BDB68002B06D0019BDB68094A8B
:1049E0001A61019B0022DA60019B00221A61054BCB
:1049F0009B8A002B03D1034BDB68002BB2D103B0A1
:104A00005DF804FB002C0010E82B0010E42B0010D4
:104A100084B00190019B9B68002B0FD0019B9B6889
:104A2000019A52685A60019B5B68002B05D0019B7C
:104A30005B68019A92689A6013E012E00A4B039354
:104A40000CE0039B5A68019B9A4204D1019B5A686F
:104A5000039B5A6005E0039B5B680393039B002B59
:104A6000EFD104B0704700BFE82B001084B0019074
:104A7000019B1B690393039B002B1DD0019BDA68EC
:104A8000039BDA60019BDB68002B0FD0039B9A8AA3
:104A9000019B9B8A13449AB2039B9A82019BDB6819
:104AA000039A1A61019B0022DA6002E0039B002254
:104AB0009A82019B00221A6104B0704700B585B04C
:104AC00001900091104BDB78184610490E4AFFF711
:104AD0000FFE03900C4BDB781A46039B9A420CD9CD
:104AE000094A039BDB001344019A5A60064A039B60
:104AF000DB001344009A9A6002E00220FFF766FC94
:104B000005B05DF804FB00BFFC220010FE2200107F
:104B100086B001900091019B5B8C9B089BB2039334
:104B2000019B9A6A039B9B0013440593059B03F02A
:104B30000403002B02D0059B043B0593059B403BDF
:104B40000593059B3C334FF080721A60059B383308
:104B5000009A1A600023049308E0049B9B00059AC6
:104B6000134400221A60049B01330493049B0D2B11
:104B7000F3D9059B2033019AD2691A60059A019BEB
:104B80005A62019B009ADA62019BDB78012B03D009
:104B9000019B9B6A014A1A6006B07047A52E5AE233
:104BA00082B00190019B5B6A2033184602B07047C7
:104BB00000B585B0019000910198FFF7F1FF0390D7
:104BC000039B009A1A6005B05DF804FB00B587B03E
:104BD0000390029101920398FFF7E2FF0590059B75
:104BE000029A1A60059B0433019A1A6007B05DF8B7
:104BF00004FB00BF00B583B00190019B0833184649
:104C000000210C2202F0DFFA019B03F10802019B54
:104C10005A60019B04331846FFF7D4F80246019B03
:104C20001A60019B1B68002B02D1044801F052FC62
:104C3000019B184603B05DF804FB00BF04D80000D8
:104C400000B583B001900091019B1B681846009944
:104C5000FFF7E4F80346184603B05DF804FB00BF15
:104C600000B583B00190019B1B6818460021FFF737
:104C7000D5F80346002B14BF00230123DBB21846EE
:104C800003B05DF804FB00BF00B583B00190019B49
:104C90001B681846FFF7DEF80346184603B05DF8B8
:104CA00004FB00BF00B583B00190019B1B68184650
:104CB000FFF7E8F8019B184603B05DF804FB00BF5E
:104CC00000B583B001900091019B1B68B3F1FF3FD9
:104CD00004D10B480B49242201F0E6FB009B002B7A
:104CE00005D0019BDB68019A52681A6004E0019BC1
:104CF0001B69019A52681A6003B05DF804FB00BF9B
:104D00002CD8000044D8000000B583B00190009179
:104D1000019B00221A60019B00225A60019B002225
:104D20009A60019B0022DA60019B00221A61019BBC
:104D300000225A61019B1846009901F007FC019B73
:104D4000184603B05DF804FB00B583B001900091F4
:104D5000019B18460099FFF7B3FF03B05DF804FB11
:104D600000B583B00190009101980099FFF7ECFF26
:104D7000019B184603B05DF804FB00BF00B595B079
:104D8000119010910F920E93119B1846002101F083
:104D9000B3FA119B3E4A1A60119B3E4A5A60119B1E
:104DA000183318461099FFF7AFFF119B30331846A0
:104DB0000F99FFF7A9FF119B4833189A00924FF003
:104DC000FF3201924FF0FF3202924FF0FF32039216
:104DD0004FF0FF3204924FF0FF3205924FF0FF3256
:104DE00006924FF0FF3207924FF0FF3208924FF0D9
:104DF000FF3209924FF0FF320A924FF0FF320B92CE
:104E00004FF0FF320C9218460E99169A179B01F03C
:104E1000B1F8119B9DF8642083F88C20119B3033EE
:104E200018460121FFF79CFF119B183318460021FB
:104E3000FFF796FF184801F0DFFC0023139309E009
:104E40001198032100F0D8F8144801F0D5FC139B09
:104E500001331393139B022BF2DD1198022100F012
:104E6000CBF80F4801F0C8FC1198282100F000F998
:104E700011980C2100F0FCF81198062100F0F8F8C8
:104E8000119800F027F8119B184615B05DF804FB47
:104E9000A0D80000D4D800008FC2753C45F5D63AA2
:104EA000ACC5273800B587B00390029101920093FA
:104EB00003980299019A00F0FFF80590039805996C
:104EC00000F0D6F80398009900F0E4F807B05DF818
:104ED00004FB00BF00B583B001900198012100F0F0
:104EE000C7F8054801F088FC01980021002200F075
:104EF00005F803B05DF804FB45F5D63A84B003909D
:104F000002910192039B029AC3F89020039B019A9D
:104F1000C3F8942004B0704710B582B0019000919E
:104F2000009B0A2B1DD1019B0022C3F89020019BFE
:104F3000D3F894305A1C019BC3F89420019BD3F8FA
:104F40009440019800F0FEF803469C42B4BF002351
:104F50000123DBB2002B42D0019B0022C3F8942036
:104F60003DE0019BD3F89020019BD3F89430019849
:104F700011461A46009BFFF795FF019BD3F890302E
:104F80005A1C019BC3F89020019BD3F890400198D4
:104F900000F0CAF803469C42B4BF00230123DBB2F1
:104FA000002B1CD0019B0022C3F89020019BD3F85A
:104FB00094305A1C019BC3F89420019BD3F8944071
:104FC000019800F0BFF803469C42B4BF00230123C0
:104FD000DBB2002B03D0019B0022C3F89420009B7E
:104FE000184602B010BD00BF82B001904FF0FF33F1
:104FF000184602B0704700BF00B583B00190009121
:10500000019B03F14802009B1B111046194601F059
:1050100025F8164801F0F0FB019B303318460021BB
:10502000FFF79EFE114801F0E7FB019B3033184665
:105030000121FFF795FE019B48331846009901F0C6
:105040000DF80A4801F0D8FB019B303318460021C7
:10505000FFF786FE054801F0CFFB019B3033184671
:105060000121FFF77DFE03B05DF804FBACC52738D6
:1050700000B583B001900091019B183318460021C0
:10508000FFF76EFE01980099FFF7B6FF03B05DF8D9
:1050900004FB00BF00B583B001900091019B183361
:1050A00018460121FFF75CFE01980099FFF7A4FF65
:1050B00003B05DF804FB00BF84B00390029101923D
:1050C000039B93F88C30012B1CD0032B24D1019B24
:1050D000032B17D801A252F823F000BFED500000B7
:1050E000F3500000F9500000FF500000029B803395
:1050F00017E0029BC03314E0029B943311E0029B43
:10510000D4330EE0019A13469B001344DB0003F1F5
:105110008002029B134404E0019B02339A01029B2C
:105120001344184604B0704782B00190019B93F875
:105130008C30023B012B01D8142300E010231846C9
:1051400002B0704782B00190019B93F88C30032B22
:1051500001D1042300E00223184602B0704700BFCB
:10516000431C10B5044608D02046002100F08EF9FB
:1051700004F01F040120A04010BD0348034915227C
:1051800001F092F9F0E700BFE0D80000F4D8000089
:1051900038B504464B1C0D4621600FD00846FFF77A
:1051A000DFFF25F01F0505F1180105F11C0205F1CF
:1051B00014036060A560E1602261636138BD00BFD7
:1051C000006800F08BB900BF38B5036804460133AE
:1051D0000D4610D045B1012D05D1A368626819684C
:1051E0000A431A6038BD38BDA36861681A6822EAAC
:1051F00001021A6038BD034803492C2201F054F91A
:10520000E8E700BF14D70000F4D800002DE9F04F04
:10521000414B83B05F689E685D6A9C6A0FB3DFF89C
:1052200000913E4A9B464FF0010A05E00AFA08F356
:10523000FF1ACBF80C3014D0B7FA87F8C8F11F0862
:105240005FFA88F859F828000028EFD01368012188
:10525000019298470AFA08F3FF1A019ACBF80C302A
:10526000EAD1D6B1DFF8B890DFF8B0A0DFF8A880B7
:1052700005E00123BB40F61AC8F80C300DD0B6FA91
:1052800086F7C7F11F07FFB259F827000028F0D0B2
:10529000DAF8003002219847EBE7E5B1DFF88080CB
:1052A000DFF878901C4F04E00123B340ED1AFB6255
:1052B00011D0B5FA85F6C6F11F06F6B20F2EF3D857
:1052C00006F1200358F823000028EDD0D9F800306B
:1052D00001219847E8E7DCB1114FDFF840800E4E1E
:1052E00004E00123AB40E41AF36211D0B4FA84F570
:1052F000C5F11F05EDB20F2DF3D805F1200357F8C6
:1053000023000028EDD0D8F8003002219847E8E7C4
:1053100003B0BDE8F08F00BF80800240182C001061
:105320001C2C0010F8B51E464B1C044623D0134B12
:1053300021F01F0001F01F05114F21F05F0199427C
:105340003A6084E8210004D00E4801F0C3F894E8E4
:1053500021000A4B0C49984218BF20350B4BA56021
:10536000152043F82560FCF7B5FF094B4FF40012F8
:105370001A600020F8BD0846F8BD00BF00C0092033
:10538000182C00105CD900000D5200001C2C0010DD
:1053900000E100E08268024B002143F822107047D0
:1053A0001C2C001030B40368314CA34232D0314D74
:1053B000AB4212D001293ED0A34220D0AB420AD149
:1053C0004368012101FA03F3002A41D12A4A516BB3
:1053D00021EA0303536330BC70474368012404FA95
:1053E00003F3254C0129E362EED143680121994082
:1053F000214B002A36D01A6B0A431A63EBE7436845
:10540000012101FA03F3E2B11B4A30BC51690B439D
:10541000536170474368012404FA03F3164C0129D1
:10542000E360F0D1436801219940134BAAB11A6996
:105430000A431A61CFE7A342F4D0AB42D5D030BCC7
:1054400070470D4A30BC516921EA0303536170472C
:10545000094A516B0B435363BDE71A6922EA010203
:105460001A61B8E71A6B22EA01021A63B3E700BFB8
:1054700000C0092040C0092080800240024B4FF448
:1054800000121A60704700BF00E100E038B5431C0D
:1054900004460D4617D004F16040A0F51C2000F032
:1054A0000F035B0003229A409D4003099B0003F118
:1054B000804303F53033196821EA02021A601A6842
:1054C00015431D6038BD03480349152200F0ECFF69
:1054D000E1E700BFE0D800008CD9000038B5431CDC
:1054E00004460D462CD004F16040A0F51C2000F0CD
:1054F0001F04C5F3800202FA04F443099B0003F180
:10550000804303F53033996E21EA04019966996E60
:105510000C439C669AB900F00F035B0003229A408B
:1055200005FA03F30009800000F1804000F53030F7
:10553000016C21EA02020264026C1343036438BD69
:1055400002480349202200F0AFFFCCE7E0D800007A
:105550008CD9000008B5154A9368C3F34203012BA8
:105560001ED0022B19D1124B596F01310AD0D3F83A
:105570008010986F086093F8A61019B9516821F04F
:1055800001015160186F0A4B48B193F8A6302BB156
:105590000021084A1368984708BD08BD08BD08BD2A
:1055A000034A106F0028F9D01946F2E7008009403D
:1055B000E42C0010E02C001070B50368294CA342C5
:1055C00049D041DD284CA3422AD004F58044A342AF
:1055D00044D1264C08263ABB01290BD04568244A01
:1055E000C5EBC50502EBC50494F8355094F8362098
:1055F000EA4214D1012202FA01F5D1F1010138BFCA
:10560000002102FA01F15C6824EA05045C60036889
:105610005B68194203D1B240164BC3F8802070BDBD
:10562000154C0726002AD7D0012505FA01F176B2DC
:10563000304605FA06F65A680A435A602146FCF7D6
:1056400049FE0C4B1E6070BDA4F58044A34205D1F9
:105650000A4C0526BFE70A4C0626BCE7002426466E
:10566000B9E700BF0000014000800940E956000092
:10567000E42C001000E100E05555000085560000C4
:105680005557000008B5154A9368C3F34203012B30
:105690001DD0022B18D1124B5968013109D019695C
:1056A0009868086093F8361019B9516821F0010123
:1056B000516018680A4B48B193F836302BB100217D
:1056C000084A1368984708BD08BD08BD08BD044ACC
:1056D00010680028F9D01946F2E700BF00C000406A
:1056E000E42C0010E02C001008B5174A9368C3F3AF
:1056F0004203012B21D0022B1CD1144BD3F8AC1048
:1057000001310BD0D3F8B810D3F8B000086093F88B
:10571000DE1019B9516821F001015160D3F8A800D9
:105720000A4B48B193F8DE302BB10021084A1368C8
:10573000984708BD08BD08BD08BD044AD2F8A800B6
:105740000028F8D01946F1E700C00940E42C001009
:10575000E02C001008B5154A9368C3F34203012BEF
:105760001DD0022B18D1124BD96B013109D0996C85
:10577000186C086093F86E1019B9516821F0010196
:105780005160986B0A4B48B193F86E302BB10021F1
:10579000084A1368984708BD08BD08BD08BD044AFB
:1057A000906B0028F9D01946F2E700BF00000140D5
:1057B000E42C0010E02C00102DE9F04F0368884A1B
:1057C0008DB0934209908B4600F3F080854A934256
:1057D00000F0F78040F3D780834A934200F09F8027
:1057E00002F5804293420CD1804AD2F8AC1121F4E8
:1057F0004021C2F8AC11D2F8AC1141F48021C2F8BA
:10580000AC117B494FEA0B1209680891089CB1FB67
:10581000F2F102FB114289B20491002A00F0B1803A
:105820006100A2000123029400240B910A920193CB
:105830000F4603920693CDF81CB05E460594DDF842
:105840001CA001994FF00008D146CDB2DA46C346FC
:10585000002F79DB0399DDF804E0B1FBF9F464096A
:105860000134C4F34F04DE44002C66D10124B8F1A6
:10587000000F67D104FB0EF0029AC000B2FBF0F0FB
:105880000130CAEB500001F09BF8B04206DA5045F7
:1058900064D00646CDF81480049406950BF1010BF4
:1058A0005FFA8BF84545D144D2D8019CD3460F2CE2
:1058B0004FF000035DD0029A0899019C0A440B99AD
:1058C000013402920194039A0F440A9C07992244DE
:1058D000594403920791002BB1D0069B059A099C6D
:1058E00042EA03102368C0B2197B049C41F0800196
:1058F000C4F30722099C1973236804991A71236859
:105900005FFA81FB83F800B0236883F828002368DE
:105910001A7B02F07F021A730DB0BDE8F08F334A94
:10592000D2F8AC1121F44031C2F8AC11D2F8AC116C
:1059300041F48031C2F8AC1163E7B8F1000F99D09F
:10594000012C97D8022495E7B7FBF9F42409DDF878
:1059500004E00134C4F34F04DE4485E70494019C61
:10596000D3460F2C0695CDF8148056464FF0010310
:10597000A1D10599069A099C41EA0210C0B2236898
:10598000B2E71020B0E7A2F5804293427FF439AF2E
:10599000164AD2F8A81121F0C001C2F8A811D2F815
:1059A000A81141F04001C2F8A8112AE79B22114832
:1059B000114900F079FD099C0A4A236893427FF45B
:1059C00009AF0A4AD2F8A81121F44071C2F8A8110F
:1059D000D2F8A81141F48071C2F8A81111E700BFF4
:1059E00000C00940000001400080094000C00F4095
:1059F000100C001090DA0000ACDA0000F8B55D1E63
:105A0000012D07460C46164604D915481549FB22B8
:105A100000F04AFD053C032C1CD8042E14D8013E8E
:105A2000F6B2032E0DD8104B082253F826301B0176
:105A3000DBB244EA8504144323433A68DBB21373B0
:105A4000F8BD00231A46F4E708480649FE2200F094
:105A50002BFDE4E706480349FC2200F025FDDCE7C6
:105A600014DB0000ACDA000014DA000060DB000098
:105A70003CDB0000436810B40448054CC3EBC3038F
:105A800044F8332001605DF8044B7047E02C0010AF
:105A9000E42C001010B439B94368054CC3EBC303C0
:105AA00004EBC30383F836205DF8044BFFF784BD95
:105AB000E42C001000B50268137DDB07FCD54368B9
:105AC0000949C3EBC30301EBC303596810780131E3
:105AD000C0B207D0596904335B680B60536843F068
